{
	"selector.sol": {
		"SelectorFun": {
			"abi": [
				{
					"anonymous": false,
					"inputs": [
						{
							"indexed": false,
							"internalType": "bytes",
							"name": "data",
							"type": "bytes"
						}
					],
					"name": "Log",
					"type": "event"
				},
				{
					"anonymous": false,
					"inputs": [
						{
							"indexed": false,
							"internalType": "bytes4",
							"name": "",
							"type": "bytes4"
						}
					],
					"name": "SelectorEvent",
					"type": "event"
				},
				{
					"inputs": [],
					"name": "callWithSignature",
					"outputs": [],
					"stateMutability": "nonpayable",
					"type": "function"
				},
				{
					"inputs": [
						{
							"internalType": "uint256",
							"name": "param1",
							"type": "uint256"
						},
						{
							"internalType": "bool",
							"name": "param2",
							"type": "bool"
						}
					],
					"name": "elementaryParamSelector",
					"outputs": [
						{
							"internalType": "bytes4",
							"name": "selectorWithElementaryParam",
							"type": "bytes4"
						}
					],
					"stateMutability": "nonpayable",
					"type": "function"
				},
				{
					"inputs": [
						{
							"internalType": "uint256[3]",
							"name": "param1",
							"type": "uint256[3]"
						}
					],
					"name": "fixedSizeParamSelector",
					"outputs": [
						{
							"internalType": "bytes4",
							"name": "selectorWithFixedSizeParam",
							"type": "bytes4"
						}
					],
					"stateMutability": "nonpayable",
					"type": "function"
				},
				{
					"inputs": [
						{
							"internalType": "contract DemoContract",
							"name": "demo",
							"type": "address"
						},
						{
							"components": [
								{
									"internalType": "uint256",
									"name": "uid",
									"type": "uint256"
								},
								{
									"internalType": "bytes",
									"name": "name",
									"type": "bytes"
								}
							],
							"internalType": "struct SelectorFun.User",
							"name": "user",
							"type": "tuple"
						},
						{
							"internalType": "uint256[]",
							"name": "count",
							"type": "uint256[]"
						},
						{
							"internalType": "enum SelectorFun.School",
							"name": "mySchool",
							"type": "uint8"
						}
					],
					"name": "mappingParamSelector",
					"outputs": [
						{
							"internalType": "bytes4",
							"name": "selectorWithMappingParam",
							"type": "bytes4"
						}
					],
					"stateMutability": "nonpayable",
					"type": "function"
				},
				{
					"inputs": [
						{
							"internalType": "address",
							"name": "to",
							"type": "address"
						}
					],
					"name": "mint",
					"outputs": [],
					"stateMutability": "nonpayable",
					"type": "function"
				},
				{
					"inputs": [],
					"name": "mintSelector",
					"outputs": [
						{
							"internalType": "bytes4",
							"name": "mSelector",
							"type": "bytes4"
						}
					],
					"stateMutability": "pure",
					"type": "function"
				},
				{
					"inputs": [
						{
							"internalType": "uint256[]",
							"name": "param1",
							"type": "uint256[]"
						},
						{
							"internalType": "string",
							"name": "param2",
							"type": "string"
						}
					],
					"name": "nonFixedSizeParamSelector",
					"outputs": [
						{
							"internalType": "bytes4",
							"name": "selectorWithNonFixedSizeParam",
							"type": "bytes4"
						}
					],
					"stateMutability": "nonpayable",
					"type": "function"
				},
				{
					"inputs": [],
					"name": "nonParamSelector",
					"outputs": [
						{
							"internalType": "bytes4",
							"name": "selectorWithNonParam",
							"type": "bytes4"
						}
					],
					"stateMutability": "nonpayable",
					"type": "function"
				}
			],
			"devdoc": {
				"kind": "dev",
				"methods": {},
				"version": 1
			},
			"evm": {
				"assembly": "    /* \"selector.sol\":107:4471  contract SelectorFun {... */\n  mstore(0x40, 0x80)\n  callvalue\n  dup1\n  iszero\n  tag_1\n  jumpi\n  0x00\n  dup1\n  revert\ntag_1:\n  pop\n  dataSize(sub_0)\n  dup1\n  dataOffset(sub_0)\n  0x00\n  codecopy\n  0x00\n  return\nstop\n\nsub_0: assembly {\n        /* \"selector.sol\":107:4471  contract SelectorFun {... */\n      mstore(0x40, 0x80)\n      callvalue\n      dup1\n      iszero\n      tag_1\n      jumpi\n      0x00\n      dup1\n      revert\n    tag_1:\n      pop\n      jumpi(tag_2, lt(calldatasize, 0x04))\n      shr(0xe0, calldataload(0x00))\n      dup1\n      0x6a627842\n      gt\n      tag_11\n      jumpi\n      dup1\n      0x6a627842\n      eq\n      tag_7\n      jumpi\n      dup1\n      0xe355b0ce\n      eq\n      tag_8\n      jumpi\n      dup1\n      0xead6b8bd\n      eq\n      tag_9\n      jumpi\n      dup1\n      0xf0ca01de\n      eq\n      tag_10\n      jumpi\n      jump(tag_2)\n    tag_11:\n      dup1\n      0x03817936\n      eq\n      tag_3\n      jumpi\n      dup1\n      0x046dab16\n      eq\n      tag_4\n      jumpi\n      dup1\n      0x3ec37834\n      eq\n      tag_5\n      jumpi\n      dup1\n      0x59ebea23\n      eq\n      tag_6\n      jumpi\n    tag_2:\n      0x00\n      dup1\n      revert\n        /* \"selector.sol\":1071:1267  function nonParamSelector() external returns(bytes4 selectorWithNonParam){... */\n    tag_3:\n      tag_12\n      tag_13\n      jump\t// in\n    tag_12:\n      mload(0x40)\n      tag_14\n      swap2\n      swap1\n      tag_15\n      jump\t// in\n    tag_14:\n      mload(0x40)\n      dup1\n      swap2\n      sub\n      swap1\n      return\n        /* \"selector.sol\":743:929  function mintSelector() external pure returns(bytes4 mSelector){... */\n    tag_4:\n      tag_16\n      tag_17\n      jump\t// in\n    tag_16:\n      mload(0x40)\n      tag_18\n      swap2\n      swap1\n      tag_15\n      jump\t// in\n    tag_18:\n      mload(0x40)\n      dup1\n      swap2\n      sub\n      swap1\n      return\n        /* \"selector.sol\":1419:1682  function elementaryParamSelector(uint256 param1, bool param2) external returns(bytes4 selectorWithElementaryParam){... */\n    tag_5:\n      tag_19\n      0x04\n      dup1\n      calldatasize\n      sub\n      dup2\n      add\n      swap1\n      tag_20\n      swap2\n      swap1\n      tag_21\n      jump\t// in\n    tag_20:\n      tag_22\n      jump\t// in\n    tag_19:\n      mload(0x40)\n      tag_23\n      swap2\n      swap1\n      tag_15\n      jump\t// in\n    tag_23:\n      mload(0x40)\n      dup1\n      swap2\n      sub\n      swap1\n      return\n        /* \"selector.sol\":3180:4469  function callWithSignature() external{... */\n    tag_6:\n      tag_24\n      tag_25\n      jump\t// in\n    tag_24:\n      stop\n        /* \"selector.sol\":510:580  function mint(address to) external {... */\n    tag_7:\n      tag_26\n      0x04\n      dup1\n      calldatasize\n      sub\n      dup2\n      add\n      swap1\n      tag_27\n      swap2\n      swap1\n      tag_28\n      jump\t// in\n    tag_27:\n      tag_29\n      jump\t// in\n    tag_26:\n      stop\n        /* \"selector.sol\":2810:3137  function mappingParamSelector(DemoContract demo, User memory user, uint256[] memory count, School mySchool) external returns(bytes4 selectorWithMappingParam){... */\n    tag_8:\n      tag_30\n      0x04\n      dup1\n      calldatasize\n      sub\n      dup2\n      add\n      swap1\n      tag_31\n      swap2\n      swap1\n      tag_32\n      jump\t// in\n    tag_31:\n      tag_33\n      jump\t// in\n    tag_30:\n      mload(0x40)\n      tag_34\n      swap2\n      swap1\n      tag_15\n      jump\t// in\n    tag_34:\n      mload(0x40)\n      dup1\n      swap2\n      sub\n      swap1\n      return\n        /* \"selector.sol\":1832:2086  function fixedSizeParamSelector(uint256[3] memory param1) external returns(bytes4 selectorWithFixedSizeParam){... */\n    tag_9:\n      tag_35\n      0x04\n      dup1\n      calldatasize\n      sub\n      dup2\n      add\n      swap1\n      tag_36\n      swap2\n      swap1\n      tag_37\n      jump\t// in\n    tag_36:\n      tag_38\n      jump\t// in\n    tag_35:\n      mload(0x40)\n      tag_39\n      swap2\n      swap1\n      tag_15\n      jump\t// in\n    tag_39:\n      mload(0x40)\n      dup1\n      swap2\n      sub\n      swap1\n      return\n        /* \"selector.sol\":2266:2558  function nonFixedSizeParamSelector(uint256[] memory param1,string memory param2) external returns(bytes4 selectorWithNonFixedSizeParam){... */\n    tag_10:\n      tag_40\n      0x04\n      dup1\n      calldatasize\n      sub\n      dup2\n      add\n      swap1\n      tag_41\n      swap2\n      swap1\n      tag_42\n      jump\t// in\n    tag_41:\n      tag_43\n      jump\t// in\n    tag_40:\n      mload(0x40)\n      tag_44\n      swap2\n      swap1\n      tag_15\n      jump\t// in\n    tag_44:\n      mload(0x40)\n      dup1\n      swap2\n      sub\n      swap1\n      return\n        /* \"selector.sol\":1071:1267  function nonParamSelector() external returns(bytes4 selectorWithNonParam){... */\n    tag_13:\n        /* \"selector.sol\":1116:1143  bytes4 selectorWithNonParam */\n      0x00\n        /* \"selector.sol\":1159:1204  SelectorEvent(this.nonParamSelector.selector) */\n      0x87c76683e354abe8640b03c72d02c9175d9a00a6c0101d5bc4be081b9b8199eb\n        /* \"selector.sol\":1173:1203  this.nonParamSelector.selector */\n      shl(0xe0, 0x03817936)\n        /* \"selector.sol\":1159:1204  SelectorEvent(this.nonParamSelector.selector) */\n      mload(0x40)\n      tag_46\n      swap2\n      swap1\n      tag_15\n      jump\t// in\n    tag_46:\n      mload(0x40)\n      dup1\n      swap2\n      sub\n      swap1\n      log1\n        /* \"selector.sol\":1228:1259  keccak256(\"nonParamSelector()\") */\n      0x038179367d802aca924f17568b786520678fa7955b6cd468a00dd90b7cfbab40\n        /* \"selector.sol\":1214:1260  return bytes4(keccak256(\"nonParamSelector()\")) */\n      swap1\n      pop\n        /* \"selector.sol\":1071:1267  function nonParamSelector() external returns(bytes4 selectorWithNonParam){... */\n      swap1\n      jump\t// out\n        /* \"selector.sol\":743:929  function mintSelector() external pure returns(bytes4 mSelector){... */\n    tag_17:\n        /* \"selector.sol\":789:805  bytes4 mSelector */\n      0x00\n        /* \"selector.sol\":830:856  keccak256(\"mint(address)\") */\n      0x6a627842f752de95745ef8f3ca67858982b5f585d752f8163e5855050041cb3c\n        /* \"selector.sol\":816:857  return bytes4(keccak256(\"mint(address)\")) */\n      swap1\n      pop\n        /* \"selector.sol\":743:929  function mintSelector() external pure returns(bytes4 mSelector){... */\n      swap1\n      jump\t// out\n        /* \"selector.sol\":1419:1682  function elementaryParamSelector(uint256 param1, bool param2) external returns(bytes4 selectorWithElementaryParam){... */\n    tag_22:\n        /* \"selector.sol\":1498:1532  bytes4 selectorWithElementaryParam */\n      0x00\n        /* \"selector.sol\":1548:1600  SelectorEvent(this.elementaryParamSelector.selector) */\n      0x87c76683e354abe8640b03c72d02c9175d9a00a6c0101d5bc4be081b9b8199eb\n        /* \"selector.sol\":1562:1599  this.elementaryParamSelector.selector */\n      shl(0xe0, 0x3ec37834)\n        /* \"selector.sol\":1548:1600  SelectorEvent(this.elementaryParamSelector.selector) */\n      mload(0x40)\n      tag_49\n      swap2\n      swap1\n      tag_15\n      jump\t// in\n    tag_49:\n      mload(0x40)\n      dup1\n      swap2\n      sub\n      swap1\n      log1\n        /* \"selector.sol\":1624:1674  keccak256(\"elementaryParamSelector(uint256,bool)\") */\n      0x3ec3783488bfc90ed98dc398cd67f30f42b252c8ce7d59a4dce63a149c452548\n        /* \"selector.sol\":1610:1675  return bytes4(keccak256(\"elementaryParamSelector(uint256,bool)\")) */\n      swap1\n      pop\n        /* \"selector.sol\":1419:1682  function elementaryParamSelector(uint256 param1, bool param2) external returns(bytes4 selectorWithElementaryParam){... */\n      swap3\n      swap2\n      pop\n      pop\n      jump\t// out\n        /* \"selector.sol\":3180:4469  function callWithSignature() external{... */\n    tag_25:\n        /* \"selector.sol\":3261:3284  uint256[] memory param1 */\n      0x00\n        /* \"selector.sol\":3301:3302  3 */\n      0x03\n        /* \"selector.sol\":3287:3303  new uint256[](3) */\n      0xffffffffffffffff\n      dup2\n      gt\n      iszero\n      tag_51\n      jumpi\n      tag_52\n      tag_53\n      jump\t// in\n    tag_52:\n    tag_51:\n      mload(0x40)\n      swap1\n      dup1\n      dup3\n      mstore\n      dup1\n      0x20\n      mul\n      0x20\n      add\n      dup3\n      add\n      0x40\n      mstore\n      dup1\n      iszero\n      tag_54\n      jumpi\n      dup2\n      0x20\n      add\n      0x20\n      dup3\n      mul\n      dup1\n      calldatasize\n      dup4\n      calldatacopy\n      dup1\n      dup3\n      add\n      swap2\n      pop\n      pop\n      swap1\n      pop\n    tag_54:\n      pop\n        /* \"selector.sol\":3261:3303  uint256[] memory param1 = new uint256[](3) */\n      swap1\n      pop\n        /* \"selector.sol\":3325:3326  1 */\n      0x01\n        /* \"selector.sol\":3313:3319  param1 */\n      dup2\n        /* \"selector.sol\":3320:3321  0 */\n      0x00\n        /* \"selector.sol\":3313:3322  param1[0] */\n      dup2\n      mload\n      dup2\n      lt\n      tag_55\n      jumpi\n      tag_56\n      tag_57\n      jump\t// in\n    tag_56:\n    tag_55:\n      0x20\n      mul\n      0x20\n      add\n      add\n        /* \"selector.sol\":3313:3326  param1[0] = 1 */\n      dup2\n      dup2\n      mstore\n      pop\n      pop\n        /* \"selector.sol\":3348:3349  2 */\n      0x02\n        /* \"selector.sol\":3336:3342  param1 */\n      dup2\n        /* \"selector.sol\":3343:3344  1 */\n      0x01\n        /* \"selector.sol\":3336:3345  param1[1] */\n      dup2\n      mload\n      dup2\n      lt\n      tag_58\n      jumpi\n      tag_59\n      tag_57\n      jump\t// in\n    tag_59:\n    tag_58:\n      0x20\n      mul\n      0x20\n      add\n      add\n        /* \"selector.sol\":3336:3349  param1[1] = 2 */\n      dup2\n      dup2\n      mstore\n      pop\n      pop\n        /* \"selector.sol\":3371:3372  3 */\n      0x03\n        /* \"selector.sol\":3359:3365  param1 */\n      dup2\n        /* \"selector.sol\":3366:3367  2 */\n      0x02\n        /* \"selector.sol\":3359:3368  param1[2] */\n      dup2\n      mload\n      dup2\n      lt\n      tag_60\n      jumpi\n      tag_61\n      tag_57\n      jump\t// in\n    tag_61:\n    tag_60:\n      0x20\n      mul\n      0x20\n      add\n      add\n        /* \"selector.sol\":3359:3372  param1[2] = 3 */\n      dup2\n      dup2\n      mstore\n      pop\n      pop\n        /* \"selector.sol\":3410:3426  User memory user */\n      tag_62\n      tag_63\n      jump\t// in\n    tag_62:\n        /* \"selector.sol\":3447:3448  1 */\n      0x01\n        /* \"selector.sol\":3436:3440  user */\n      dup2\n        /* \"selector.sol\":3436:3444  user.uid */\n      0x00\n      add\n        /* \"selector.sol\":3436:3448  user.uid = 1 */\n      dup2\n      dup2\n      mstore\n      pop\n      pop\n        /* \"selector.sol\":3458:3478  user.name = \"0xa0b1\" */\n      mload(0x40)\n      dup1\n      0x40\n      add\n      0x40\n      mstore\n      dup1\n      0x06\n      dup2\n      mstore\n      0x20\n      add\n      0x3078613062310000000000000000000000000000000000000000000000000000\n      dup2\n      mstore\n      pop\n        /* \"selector.sol\":3458:3462  user */\n      dup2\n        /* \"selector.sol\":3458:3467  user.name */\n      0x20\n      add\n        /* \"selector.sol\":3458:3478  user.name = \"0xa0b1\" */\n      dup2\n      swap1\n      mstore\n      pop\n        /* \"selector.sol\":3611:3624  bool success0 */\n      0x00\n        /* \"selector.sol\":3626:3644  bytes memory data0 */\n      dup1\n        /* \"selector.sol\":3656:3660  this */\n      address\n        /* \"selector.sol\":3648:3666  address(this).call */\n      0xffffffffffffffffffffffffffffffffffffffff\n      and\n        /* \"selector.sol\":3690:3700  0x03817936 */\n      0x03817936\n        /* \"selector.sol\":3667:3701  abi.encodeWithSelector(0x03817936) */\n      add(0x24, mload(0x40))\n      mload(0x40)\n      0x20\n      dup2\n      dup4\n      sub\n      sub\n      dup2\n      mstore\n      swap1\n      0x40\n      mstore\n      swap1\n      0xe0\n      shl\n      0x20\n      dup3\n      add\n      dup1\n      mload\n      0xffffffffffffffffffffffffffffffffffffffffffffffffffffffff\n      dup4\n      dup2\n      dup4\n      and\n      or\n      dup4\n      mstore\n      pop\n      pop\n      pop\n      pop\n        /* \"selector.sol\":3648:3702  address(this).call(abi.encodeWithSelector(0x03817936)) */\n      mload(0x40)\n      tag_64\n      swap2\n      swap1\n      tag_65\n      jump\t// in\n    tag_64:\n      0x00\n      mload(0x40)\n      dup1\n      dup4\n      sub\n      dup2\n      0x00\n      dup7\n      gas\n      call\n      swap2\n      pop\n      pop\n      returndatasize\n      dup1\n      0x00\n      dup2\n      eq\n      tag_68\n      jumpi\n      mload(0x40)\n      swap2\n      pop\n      and(add(returndatasize, 0x3f), not(0x1f))\n      dup3\n      add\n      0x40\n      mstore\n      returndatasize\n      dup3\n      mstore\n      returndatasize\n      0x00\n      0x20\n      dup5\n      add\n      returndatacopy\n      jump(tag_67)\n    tag_68:\n      0x60\n      swap2\n      pop\n    tag_67:\n      pop\n        /* \"selector.sol\":3610:3702  (bool success0, bytes memory data0) = address(this).call(abi.encodeWithSelector(0x03817936)) */\n      swap2\n      pop\n      swap2\n      pop\n        /* \"selector.sol\":3760:3773  bool success1 */\n      0x00\n        /* \"selector.sol\":3775:3793  bytes memory data1 */\n      dup1\n        /* \"selector.sol\":3805:3809  this */\n      address\n        /* \"selector.sol\":3797:3815  address(this).call */\n      0xffffffffffffffffffffffffffffffffffffffff\n      and\n        /* \"selector.sol\":3839:3849  0x3ec37834 */\n      0x3ec37834\n        /* \"selector.sol\":3851:3852  1 */\n      0x01\n        /* \"selector.sol\":3854:3855  0 */\n      0x00\n        /* \"selector.sol\":3816:3856  abi.encodeWithSelector(0x3ec37834, 1, 0) */\n      add(0x24, mload(0x40))\n      tag_69\n      swap3\n      swap2\n      swap1\n      tag_70\n      jump\t// in\n    tag_69:\n      mload(0x40)\n      0x20\n      dup2\n      dup4\n      sub\n      sub\n      dup2\n      mstore\n      swap1\n      0x40\n      mstore\n      swap1\n      0xe0\n      shl\n      0x20\n      dup3\n      add\n      dup1\n      mload\n      0xffffffffffffffffffffffffffffffffffffffffffffffffffffffff\n      dup4\n      dup2\n      dup4\n      and\n      or\n      dup4\n      mstore\n      pop\n      pop\n      pop\n      pop\n        /* \"selector.sol\":3797:3857  address(this).call(abi.encodeWithSelector(0x3ec37834, 1, 0)) */\n      mload(0x40)\n      tag_71\n      swap2\n      swap1\n      tag_65\n      jump\t// in\n    tag_71:\n      0x00\n      mload(0x40)\n      dup1\n      dup4\n      sub\n      dup2\n      0x00\n      dup7\n      gas\n      call\n      swap2\n      pop\n      pop\n      returndatasize\n      dup1\n      0x00\n      dup2\n      eq\n      tag_74\n      jumpi\n      mload(0x40)\n      swap2\n      pop\n      and(add(returndatasize, 0x3f), not(0x1f))\n      dup3\n      add\n      0x40\n      mstore\n      returndatasize\n      dup3\n      mstore\n      returndatasize\n      0x00\n      0x20\n      dup5\n      add\n      returndatacopy\n      jump(tag_73)\n    tag_74:\n      0x60\n      swap2\n      pop\n    tag_73:\n      pop\n        /* \"selector.sol\":3759:3857  (bool success1, bytes memory data1) = address(this).call(abi.encodeWithSelector(0x3ec37834, 1, 0)) */\n      swap2\n      pop\n      swap2\n      pop\n        /* \"selector.sol\":3914:3927  bool success2 */\n      0x00\n        /* \"selector.sol\":3929:3947  bytes memory data2 */\n      dup1\n        /* \"selector.sol\":3959:3963  this */\n      address\n        /* \"selector.sol\":3951:3969  address(this).call */\n      0xffffffffffffffffffffffffffffffffffffffff\n      and\n        /* \"selector.sol\":3993:4003  0xead6b8bd */\n      0xead6b8bd\n        /* \"selector.sol\":3970:4013  abi.encodeWithSelector(0xead6b8bd, [1,2,3]) */\n      mload(0x40)\n      dup1\n      0x60\n      add\n      0x40\n      mstore\n      dup1\n        /* \"selector.sol\":4006:4007  1 */\n      0x01\n        /* \"selector.sol\":3970:4013  abi.encodeWithSelector(0xead6b8bd, [1,2,3]) */\n      0xff\n      and\n      dup2\n      mstore\n      0x20\n      add\n        /* \"selector.sol\":4008:4009  2 */\n      0x02\n        /* \"selector.sol\":3970:4013  abi.encodeWithSelector(0xead6b8bd, [1,2,3]) */\n      0xff\n      and\n      dup2\n      mstore\n      0x20\n      add\n        /* \"selector.sol\":4010:4011  3 */\n      0x03\n        /* \"selector.sol\":3970:4013  abi.encodeWithSelector(0xead6b8bd, [1,2,3]) */\n      0xff\n      and\n      dup2\n      mstore\n      pop\n      add(0x24, mload(0x40))\n      tag_75\n      swap2\n      swap1\n      tag_76\n      jump\t// in\n    tag_75:\n      mload(0x40)\n      0x20\n      dup2\n      dup4\n      sub\n      sub\n      dup2\n      mstore\n      swap1\n      0x40\n      mstore\n      swap1\n      0xe0\n      shl\n      0x20\n      dup3\n      add\n      dup1\n      mload\n      0xffffffffffffffffffffffffffffffffffffffffffffffffffffffff\n      dup4\n      dup2\n      dup4\n      and\n      or\n      dup4\n      mstore\n      pop\n      pop\n      pop\n      pop\n        /* \"selector.sol\":3951:4014  address(this).call(abi.encodeWithSelector(0xead6b8bd, [1,2,3])) */\n      mload(0x40)\n      tag_77\n      swap2\n      swap1\n      tag_65\n      jump\t// in\n    tag_77:\n      0x00\n      mload(0x40)\n      dup1\n      dup4\n      sub\n      dup2\n      0x00\n      dup7\n      gas\n      call\n      swap2\n      pop\n      pop\n      returndatasize\n      dup1\n      0x00\n      dup2\n      eq\n      tag_80\n      jumpi\n      mload(0x40)\n      swap2\n      pop\n      and(add(returndatasize, 0x3f), not(0x1f))\n      dup3\n      add\n      0x40\n      mstore\n      returndatasize\n      dup3\n      mstore\n      returndatasize\n      0x00\n      0x20\n      dup5\n      add\n      returndatacopy\n      jump(tag_79)\n    tag_80:\n      0x60\n      swap2\n      pop\n    tag_79:\n      pop\n        /* \"selector.sol\":3913:4014  (bool success2, bytes memory data2) = address(this).call(abi.encodeWithSelector(0xead6b8bd, [1,2,3])) */\n      swap2\n      pop\n      swap2\n      pop\n        /* \"selector.sol\":4074:4087  bool success3 */\n      0x00\n        /* \"selector.sol\":4089:4107  bytes memory data3 */\n      dup1\n        /* \"selector.sol\":4119:4123  this */\n      address\n        /* \"selector.sol\":4111:4129  address(this).call */\n      0xffffffffffffffffffffffffffffffffffffffff\n      and\n        /* \"selector.sol\":4153:4163  0xf0ca01de */\n      0xf0ca01de\n        /* \"selector.sol\":4165:4171  param1 */\n      dup12\n        /* \"selector.sol\":4130:4179  abi.encodeWithSelector(0xf0ca01de, param1, \"abc\") */\n      add(0x24, mload(0x40))\n      tag_81\n      swap2\n      swap1\n      tag_82\n      jump\t// in\n    tag_81:\n      mload(0x40)\n      0x20\n      dup2\n      dup4\n      sub\n      sub\n      dup2\n      mstore\n      swap1\n      0x40\n      mstore\n      swap1\n      0xe0\n      shl\n      0x20\n      dup3\n      add\n      dup1\n      mload\n      0xffffffffffffffffffffffffffffffffffffffffffffffffffffffff\n      dup4\n      dup2\n      dup4\n      and\n      or\n      dup4\n      mstore\n      pop\n      pop\n      pop\n      pop\n        /* \"selector.sol\":4111:4180  address(this).call(abi.encodeWithSelector(0xf0ca01de, param1, \"abc\")) */\n      mload(0x40)\n      tag_83\n      swap2\n      swap1\n      tag_65\n      jump\t// in\n    tag_83:\n      0x00\n      mload(0x40)\n      dup1\n      dup4\n      sub\n      dup2\n      0x00\n      dup7\n      gas\n      call\n      swap2\n      pop\n      pop\n      returndatasize\n      dup1\n      0x00\n      dup2\n      eq\n      tag_86\n      jumpi\n      mload(0x40)\n      swap2\n      pop\n      and(add(returndatasize, 0x3f), not(0x1f))\n      dup3\n      add\n      0x40\n      mstore\n      returndatasize\n      dup3\n      mstore\n      returndatasize\n      0x00\n      0x20\n      dup5\n      add\n      returndatacopy\n      jump(tag_85)\n    tag_86:\n      0x60\n      swap2\n      pop\n    tag_85:\n      pop\n        /* \"selector.sol\":4073:4180  (bool success3, bytes memory data3) = address(this).call(abi.encodeWithSelector(0xf0ca01de, param1, \"abc\")) */\n      swap2\n      pop\n      swap2\n      pop\n        /* \"selector.sol\":4235:4248  bool success4 */\n      0x00\n        /* \"selector.sol\":4250:4268  bytes memory data4 */\n      dup1\n        /* \"selector.sol\":4280:4284  this */\n      address\n        /* \"selector.sol\":4272:4290  address(this).call */\n      0xffffffffffffffffffffffffffffffffffffffff\n      and\n        /* \"selector.sol\":4314:4324  0xe355b0ce */\n      0xe355b0ce\n        /* \"selector.sol\":4326:4368  0x9D7f74d0C41E726EC95884E0e97Fa6129e3b5E99 */\n      0x9d7f74d0c41e726ec95884e0e97fa6129e3b5e99\n        /* \"selector.sol\":4370:4374  user */\n      dup14\n        /* \"selector.sol\":4376:4382  param1 */\n      dup16\n        /* \"selector.sol\":4384:4385  1 */\n      0x01\n        /* \"selector.sol\":4291:4386  abi.encodeWithSelector(0xe355b0ce, 0x9D7f74d0C41E726EC95884E0e97Fa6129e3b5E99, user, param1, 1) */\n      add(0x24, mload(0x40))\n      tag_87\n      swap5\n      swap4\n      swap3\n      swap2\n      swap1\n      tag_88\n      jump\t// in\n    tag_87:\n      mload(0x40)\n      0x20\n      dup2\n      dup4\n      sub\n      sub\n      dup2\n      mstore\n      swap1\n      0x40\n      mstore\n      swap1\n      0xe0\n      shl\n      0x20\n      dup3\n      add\n      dup1\n      mload\n      0xffffffffffffffffffffffffffffffffffffffffffffffffffffffff\n      dup4\n      dup2\n      dup4\n      and\n      or\n      dup4\n      mstore\n      pop\n      pop\n      pop\n      pop\n        /* \"selector.sol\":4272:4387  address(this).call(abi.encodeWithSelector(0xe355b0ce, 0x9D7f74d0C41E726EC95884E0e97Fa6129e3b5E99, user, param1, 1)) */\n      mload(0x40)\n      tag_89\n      swap2\n      swap1\n      tag_65\n      jump\t// in\n    tag_89:\n      0x00\n      mload(0x40)\n      dup1\n      dup4\n      sub\n      dup2\n      0x00\n      dup7\n      gas\n      call\n      swap2\n      pop\n      pop\n      returndatasize\n      dup1\n      0x00\n      dup2\n      eq\n      tag_92\n      jumpi\n      mload(0x40)\n      swap2\n      pop\n      and(add(returndatasize, 0x3f), not(0x1f))\n      dup3\n      add\n      0x40\n      mstore\n      returndatasize\n      dup3\n      mstore\n      returndatasize\n      0x00\n      0x20\n      dup5\n      add\n      returndatacopy\n      jump(tag_91)\n    tag_92:\n      0x60\n      swap2\n      pop\n    tag_91:\n      pop\n        /* \"selector.sol\":4234:4387  (bool success4, bytes memory data4) = address(this).call(abi.encodeWithSelector(0xe355b0ce, 0x9D7f74d0C41E726EC95884E0e97Fa6129e3b5E99, user, param1, 1)) */\n      swap2\n      pop\n      swap2\n      pop\n        /* \"selector.sol\":4405:4413  success0 */\n      dup10\n        /* \"selector.sol\":4405:4425  success0 && success1 */\n      dup1\n      iszero\n      tag_93\n      jumpi\n      pop\n        /* \"selector.sol\":4417:4425  success1 */\n      dup8\n        /* \"selector.sol\":4405:4425  success0 && success1 */\n    tag_93:\n        /* \"selector.sol\":4405:4437  success0 && success1 && success2 */\n      dup1\n      iszero\n      tag_94\n      jumpi\n      pop\n        /* \"selector.sol\":4429:4437  success2 */\n      dup6\n        /* \"selector.sol\":4405:4437  success0 && success1 && success2 */\n    tag_94:\n        /* \"selector.sol\":4405:4449  success0 && success1 && success2 && success3 */\n      dup1\n      iszero\n      tag_95\n      jumpi\n      pop\n        /* \"selector.sol\":4441:4449  success3 */\n      dup4\n        /* \"selector.sol\":4405:4449  success0 && success1 && success2 && success3 */\n    tag_95:\n        /* \"selector.sol\":4405:4461  success0 && success1 && success2 && success3 && success4 */\n      dup1\n      iszero\n      tag_96\n      jumpi\n      pop\n        /* \"selector.sol\":4453:4461  success4 */\n      dup2\n        /* \"selector.sol\":4405:4461  success0 && success1 && success2 && success3 && success4 */\n    tag_96:\n        /* \"selector.sol\":4397:4462  require(success0 && success1 && success2 && success3 && success4) */\n      tag_97\n      jumpi\n      0x00\n      dup1\n      revert\n    tag_97:\n        /* \"selector.sol\":3217:4469  {... */\n      pop\n      pop\n      pop\n      pop\n      pop\n      pop\n      pop\n      pop\n      pop\n      pop\n      pop\n      pop\n        /* \"selector.sol\":3180:4469  function callWithSignature() external{... */\n      jump\t// out\n        /* \"selector.sol\":510:580  function mint(address to) external {... */\n    tag_29:\n        /* \"selector.sol\":560:573  Log(msg.data) */\n      0xafabcf2dd47e06a477a89e49c03f8ebe8e0a7e94f775b25bbb24227c9d0110b2\n        /* \"selector.sol\":564:572  msg.data */\n      0x00\n      calldatasize\n        /* \"selector.sol\":560:573  Log(msg.data) */\n      mload(0x40)\n      tag_99\n      swap3\n      swap2\n      swap1\n      tag_100\n      jump\t// in\n    tag_99:\n      mload(0x40)\n      dup1\n      swap2\n      sub\n      swap1\n      log1\n        /* \"selector.sol\":510:580  function mint(address to) external {... */\n      pop\n      jump\t// out\n        /* \"selector.sol\":2810:3137  function mappingParamSelector(DemoContract demo, User memory user, uint256[] memory count, School mySchool) external returns(bytes4 selectorWithMappingParam){... */\n    tag_33:\n        /* \"selector.sol\":2935:2966  bytes4 selectorWithMappingParam */\n      0x00\n        /* \"selector.sol\":2982:3031  SelectorEvent(this.mappingParamSelector.selector) */\n      0x87c76683e354abe8640b03c72d02c9175d9a00a6c0101d5bc4be081b9b8199eb\n        /* \"selector.sol\":2996:3030  this.mappingParamSelector.selector */\n      shl(0xe0, 0xe355b0ce)\n        /* \"selector.sol\":2982:3031  SelectorEvent(this.mappingParamSelector.selector) */\n      mload(0x40)\n      tag_102\n      swap2\n      swap1\n      tag_15\n      jump\t// in\n    tag_102:\n      mload(0x40)\n      dup1\n      swap2\n      sub\n      swap1\n      log1\n        /* \"selector.sol\":3055:3129  keccak256(\"mappingParamSelector(address,(uint256,bytes),uint256[],uint8)\") */\n      0xe355b0ceecdc5a85bc460808aed3b4d8eaa7935dbf79d2db6ffcf71e5c352576\n        /* \"selector.sol\":3041:3130  return bytes4(keccak256(\"mappingParamSelector(address,(uint256,bytes),uint256[],uint8)\")) */\n      swap1\n      pop\n        /* \"selector.sol\":2810:3137  function mappingParamSelector(DemoContract demo, User memory user, uint256[] memory count, School mySchool) external returns(bytes4 selectorWithMappingParam){... */\n      swap5\n      swap4\n      pop\n      pop\n      pop\n      pop\n      jump\t// out\n        /* \"selector.sol\":1832:2086  function fixedSizeParamSelector(uint256[3] memory param1) external returns(bytes4 selectorWithFixedSizeParam){... */\n    tag_38:\n        /* \"selector.sol\":1907:1940  bytes4 selectorWithFixedSizeParam */\n      0x00\n        /* \"selector.sol\":1956:2007  SelectorEvent(this.fixedSizeParamSelector.selector) */\n      0x87c76683e354abe8640b03c72d02c9175d9a00a6c0101d5bc4be081b9b8199eb\n        /* \"selector.sol\":1970:2006  this.fixedSizeParamSelector.selector */\n      shl(0xe0, 0xead6b8bd)\n        /* \"selector.sol\":1956:2007  SelectorEvent(this.fixedSizeParamSelector.selector) */\n      mload(0x40)\n      tag_104\n      swap2\n      swap1\n      tag_15\n      jump\t// in\n    tag_104:\n      mload(0x40)\n      dup1\n      swap2\n      sub\n      swap1\n      log1\n        /* \"selector.sol\":2031:2078  keccak256(\"fixedSizeParamSelector(uint256[3])\") */\n      0xead6b8bdece33532847146a6fe63967e794ef7c18f3b888ae6fb3aebb4ef1b95\n        /* \"selector.sol\":2017:2079  return bytes4(keccak256(\"fixedSizeParamSelector(uint256[3])\")) */\n      swap1\n      pop\n        /* \"selector.sol\":1832:2086  function fixedSizeParamSelector(uint256[3] memory param1) external returns(bytes4 selectorWithFixedSizeParam){... */\n      swap2\n      swap1\n      pop\n      jump\t// out\n        /* \"selector.sol\":2266:2558  function nonFixedSizeParamSelector(uint256[] memory param1,string memory param2) external returns(bytes4 selectorWithNonFixedSizeParam){... */\n    tag_43:\n        /* \"selector.sol\":2364:2400  bytes4 selectorWithNonFixedSizeParam */\n      0x00\n        /* \"selector.sol\":2416:2470  SelectorEvent(this.nonFixedSizeParamSelector.selector) */\n      0x87c76683e354abe8640b03c72d02c9175d9a00a6c0101d5bc4be081b9b8199eb\n        /* \"selector.sol\":2430:2469  this.nonFixedSizeParamSelector.selector */\n      shl(0xe0, 0xf0ca01de)\n        /* \"selector.sol\":2416:2470  SelectorEvent(this.nonFixedSizeParamSelector.selector) */\n      mload(0x40)\n      tag_106\n      swap2\n      swap1\n      tag_15\n      jump\t// in\n    tag_106:\n      mload(0x40)\n      dup1\n      swap2\n      sub\n      swap1\n      log1\n        /* \"selector.sol\":2494:2550  keccak256(\"nonFixedSizeParamSelector(uint256[],string)\") */\n      0xf0ca01de95639524000d6ff4e9309b96c7f67f7961bf24b33f8b20e85f6ad977\n        /* \"selector.sol\":2480:2551  return bytes4(keccak256(\"nonFixedSizeParamSelector(uint256[],string)\")) */\n      swap1\n      pop\n        /* \"selector.sol\":2266:2558  function nonFixedSizeParamSelector(uint256[] memory param1,string memory param2) external returns(bytes4 selectorWithNonFixedSizeParam){... */\n      swap3\n      swap2\n      pop\n      pop\n      jump\t// out\n    tag_63:\n      mload(0x40)\n      dup1\n      0x40\n      add\n      0x40\n      mstore\n      dup1\n      0x00\n      dup2\n      mstore\n      0x20\n      add\n      0x60\n      dup2\n      mstore\n      pop\n      swap1\n      jump\t// out\n        /* \"#utility.yul\":7:156   */\n    tag_107:\n        /* \"#utility.yul\":43:50   */\n      0x00\n        /* \"#utility.yul\":83:149   */\n      0xffffffff00000000000000000000000000000000000000000000000000000000\n        /* \"#utility.yul\":76:81   */\n      dup3\n        /* \"#utility.yul\":72:150   */\n      and\n        /* \"#utility.yul\":61:150   */\n      swap1\n      pop\n        /* \"#utility.yul\":7:156   */\n      swap2\n      swap1\n      pop\n      jump\t// out\n        /* \"#utility.yul\":162:277   */\n    tag_108:\n        /* \"#utility.yul\":247:270   */\n      tag_187\n        /* \"#utility.yul\":264:269   */\n      dup2\n        /* \"#utility.yul\":247:270   */\n      tag_107\n      jump\t// in\n    tag_187:\n        /* \"#utility.yul\":242:245   */\n      dup3\n        /* \"#utility.yul\":235:271   */\n      mstore\n        /* \"#utility.yul\":162:277   */\n      pop\n      pop\n      jump\t// out\n        /* \"#utility.yul\":283:501   */\n    tag_15:\n        /* \"#utility.yul\":374:378   */\n      0x00\n        /* \"#utility.yul\":412:414   */\n      0x20\n        /* \"#utility.yul\":401:410   */\n      dup3\n        /* \"#utility.yul\":397:415   */\n      add\n        /* \"#utility.yul\":389:415   */\n      swap1\n      pop\n        /* \"#utility.yul\":425:494   */\n      tag_189\n        /* \"#utility.yul\":491:492   */\n      0x00\n        /* \"#utility.yul\":480:489   */\n      dup4\n        /* \"#utility.yul\":476:493   */\n      add\n        /* \"#utility.yul\":467:473   */\n      dup5\n        /* \"#utility.yul\":425:494   */\n      tag_108\n      jump\t// in\n    tag_189:\n        /* \"#utility.yul\":283:501   */\n      swap3\n      swap2\n      pop\n      pop\n      jump\t// out\n        /* \"#utility.yul\":507:582   */\n    tag_109:\n        /* \"#utility.yul\":540:546   */\n      0x00\n        /* \"#utility.yul\":573:575   */\n      0x40\n        /* \"#utility.yul\":567:576   */\n      mload\n        /* \"#utility.yul\":557:576   */\n      swap1\n      pop\n        /* \"#utility.yul\":507:582   */\n      swap1\n      jump\t// out\n        /* \"#utility.yul\":588:705   */\n    tag_110:\n        /* \"#utility.yul\":697:698   */\n      0x00\n        /* \"#utility.yul\":694:695   */\n      dup1\n        /* \"#utility.yul\":687:699   */\n      revert\n        /* \"#utility.yul\":711:828   */\n    tag_111:\n        /* \"#utility.yul\":820:821   */\n      0x00\n        /* \"#utility.yul\":817:818   */\n      dup1\n        /* \"#utility.yul\":810:822   */\n      revert\n        /* \"#utility.yul\":834:911   */\n    tag_112:\n        /* \"#utility.yul\":871:878   */\n      0x00\n        /* \"#utility.yul\":900:905   */\n      dup2\n        /* \"#utility.yul\":889:905   */\n      swap1\n      pop\n        /* \"#utility.yul\":834:911   */\n      swap2\n      swap1\n      pop\n      jump\t// out\n        /* \"#utility.yul\":917:1039   */\n    tag_113:\n        /* \"#utility.yul\":990:1014   */\n      tag_195\n        /* \"#utility.yul\":1008:1013   */\n      dup2\n        /* \"#utility.yul\":990:1014   */\n      tag_112\n      jump\t// in\n    tag_195:\n        /* \"#utility.yul\":983:988   */\n      dup2\n        /* \"#utility.yul\":980:1015   */\n      eq\n        /* \"#utility.yul\":970:1033   */\n      tag_196\n      jumpi\n        /* \"#utility.yul\":1029:1030   */\n      0x00\n        /* \"#utility.yul\":1026:1027   */\n      dup1\n        /* \"#utility.yul\":1019:1031   */\n      revert\n        /* \"#utility.yul\":970:1033   */\n    tag_196:\n        /* \"#utility.yul\":917:1039   */\n      pop\n      jump\t// out\n        /* \"#utility.yul\":1045:1184   */\n    tag_114:\n        /* \"#utility.yul\":1091:1096   */\n      0x00\n        /* \"#utility.yul\":1129:1135   */\n      dup2\n        /* \"#utility.yul\":1116:1136   */\n      calldataload\n        /* \"#utility.yul\":1107:1136   */\n      swap1\n      pop\n        /* \"#utility.yul\":1145:1178   */\n      tag_198\n        /* \"#utility.yul\":1172:1177   */\n      dup2\n        /* \"#utility.yul\":1145:1178   */\n      tag_113\n      jump\t// in\n    tag_198:\n        /* \"#utility.yul\":1045:1184   */\n      swap3\n      swap2\n      pop\n      pop\n      jump\t// out\n        /* \"#utility.yul\":1190:1280   */\n    tag_115:\n        /* \"#utility.yul\":1224:1231   */\n      0x00\n        /* \"#utility.yul\":1267:1272   */\n      dup2\n        /* \"#utility.yul\":1260:1273   */\n      iszero\n        /* \"#utility.yul\":1253:1274   */\n      iszero\n        /* \"#utility.yul\":1242:1274   */\n      swap1\n      pop\n        /* \"#utility.yul\":1190:1280   */\n      swap2\n      swap1\n      pop\n      jump\t// out\n        /* \"#utility.yul\":1286:1402   */\n    tag_116:\n        /* \"#utility.yul\":1356:1377   */\n      tag_201\n        /* \"#utility.yul\":1371:1376   */\n      dup2\n        /* \"#utility.yul\":1356:1377   */\n      tag_115\n      jump\t// in\n    tag_201:\n        /* \"#utility.yul\":1349:1354   */\n      dup2\n        /* \"#utility.yul\":1346:1378   */\n      eq\n        /* \"#utility.yul\":1336:1396   */\n      tag_202\n      jumpi\n        /* \"#utility.yul\":1392:1393   */\n      0x00\n        /* \"#utility.yul\":1389:1390   */\n      dup1\n        /* \"#utility.yul\":1382:1394   */\n      revert\n        /* \"#utility.yul\":1336:1396   */\n    tag_202:\n        /* \"#utility.yul\":1286:1402   */\n      pop\n      jump\t// out\n        /* \"#utility.yul\":1408:1541   */\n    tag_117:\n        /* \"#utility.yul\":1451:1456   */\n      0x00\n        /* \"#utility.yul\":1489:1495   */\n      dup2\n        /* \"#utility.yul\":1476:1496   */\n      calldataload\n        /* \"#utility.yul\":1467:1496   */\n      swap1\n      pop\n        /* \"#utility.yul\":1505:1535   */\n      tag_204\n        /* \"#utility.yul\":1529:1534   */\n      dup2\n        /* \"#utility.yul\":1505:1535   */\n      tag_116\n      jump\t// in\n    tag_204:\n        /* \"#utility.yul\":1408:1541   */\n      swap3\n      swap2\n      pop\n      pop\n      jump\t// out\n        /* \"#utility.yul\":1547:2015   */\n    tag_21:\n        /* \"#utility.yul\":1612:1618   */\n      0x00\n        /* \"#utility.yul\":1620:1626   */\n      dup1\n        /* \"#utility.yul\":1669:1671   */\n      0x40\n        /* \"#utility.yul\":1657:1666   */\n      dup4\n        /* \"#utility.yul\":1648:1655   */\n      dup6\n        /* \"#utility.yul\":1644:1667   */\n      sub\n        /* \"#utility.yul\":1640:1672   */\n      slt\n        /* \"#utility.yul\":1637:1756   */\n      iszero\n      tag_206\n      jumpi\n        /* \"#utility.yul\":1675:1754   */\n      tag_207\n      tag_110\n      jump\t// in\n    tag_207:\n        /* \"#utility.yul\":1637:1756   */\n    tag_206:\n        /* \"#utility.yul\":1795:1796   */\n      0x00\n        /* \"#utility.yul\":1820:1873   */\n      tag_208\n        /* \"#utility.yul\":1865:1872   */\n      dup6\n        /* \"#utility.yul\":1856:1862   */\n      dup3\n        /* \"#utility.yul\":1845:1854   */\n      dup7\n        /* \"#utility.yul\":1841:1863   */\n      add\n        /* \"#utility.yul\":1820:1873   */\n      tag_114\n      jump\t// in\n    tag_208:\n        /* \"#utility.yul\":1810:1873   */\n      swap3\n      pop\n        /* \"#utility.yul\":1766:1883   */\n      pop\n        /* \"#utility.yul\":1922:1924   */\n      0x20\n        /* \"#utility.yul\":1948:1998   */\n      tag_209\n        /* \"#utility.yul\":1990:1997   */\n      dup6\n        /* \"#utility.yul\":1981:1987   */\n      dup3\n        /* \"#utility.yul\":1970:1979   */\n      dup7\n        /* \"#utility.yul\":1966:1988   */\n      add\n        /* \"#utility.yul\":1948:1998   */\n      tag_117\n      jump\t// in\n    tag_209:\n        /* \"#utility.yul\":1938:1998   */\n      swap2\n      pop\n        /* \"#utility.yul\":1893:2008   */\n      pop\n        /* \"#utility.yul\":1547:2015   */\n      swap3\n      pop\n      swap3\n      swap1\n      pop\n      jump\t// out\n        /* \"#utility.yul\":2021:2147   */\n    tag_118:\n        /* \"#utility.yul\":2058:2065   */\n      0x00\n        /* \"#utility.yul\":2098:2140   */\n      0xffffffffffffffffffffffffffffffffffffffff\n        /* \"#utility.yul\":2091:2096   */\n      dup3\n        /* \"#utility.yul\":2087:2141   */\n      and\n        /* \"#utility.yul\":2076:2141   */\n      swap1\n      pop\n        /* \"#utility.yul\":2021:2147   */\n      swap2\n      swap1\n      pop\n      jump\t// out\n        /* \"#utility.yul\":2153:2249   */\n    tag_119:\n        /* \"#utility.yul\":2190:2197   */\n      0x00\n        /* \"#utility.yul\":2219:2243   */\n      tag_212\n        /* \"#utility.yul\":2237:2242   */\n      dup3\n        /* \"#utility.yul\":2219:2243   */\n      tag_118\n      jump\t// in\n    tag_212:\n        /* \"#utility.yul\":2208:2243   */\n      swap1\n      pop\n        /* \"#utility.yul\":2153:2249   */\n      swap2\n      swap1\n      pop\n      jump\t// out\n        /* \"#utility.yul\":2255:2377   */\n    tag_120:\n        /* \"#utility.yul\":2328:2352   */\n      tag_214\n        /* \"#utility.yul\":2346:2351   */\n      dup2\n        /* \"#utility.yul\":2328:2352   */\n      tag_119\n      jump\t// in\n    tag_214:\n        /* \"#utility.yul\":2321:2326   */\n      dup2\n        /* \"#utility.yul\":2318:2353   */\n      eq\n        /* \"#utility.yul\":2308:2371   */\n      tag_215\n      jumpi\n        /* \"#utility.yul\":2367:2368   */\n      0x00\n        /* \"#utility.yul\":2364:2365   */\n      dup1\n        /* \"#utility.yul\":2357:2369   */\n      revert\n        /* \"#utility.yul\":2308:2371   */\n    tag_215:\n        /* \"#utility.yul\":2255:2377   */\n      pop\n      jump\t// out\n        /* \"#utility.yul\":2383:2522   */\n    tag_121:\n        /* \"#utility.yul\":2429:2434   */\n      0x00\n        /* \"#utility.yul\":2467:2473   */\n      dup2\n        /* \"#utility.yul\":2454:2474   */\n      calldataload\n        /* \"#utility.yul\":2445:2474   */\n      swap1\n      pop\n        /* \"#utility.yul\":2483:2516   */\n      tag_217\n        /* \"#utility.yul\":2510:2515   */\n      dup2\n        /* \"#utility.yul\":2483:2516   */\n      tag_120\n      jump\t// in\n    tag_217:\n        /* \"#utility.yul\":2383:2522   */\n      swap3\n      swap2\n      pop\n      pop\n      jump\t// out\n        /* \"#utility.yul\":2528:2857   */\n    tag_28:\n        /* \"#utility.yul\":2587:2593   */\n      0x00\n        /* \"#utility.yul\":2636:2638   */\n      0x20\n        /* \"#utility.yul\":2624:2633   */\n      dup3\n        /* \"#utility.yul\":2615:2622   */\n      dup5\n        /* \"#utility.yul\":2611:2634   */\n      sub\n        /* \"#utility.yul\":2607:2639   */\n      slt\n        /* \"#utility.yul\":2604:2723   */\n      iszero\n      tag_219\n      jumpi\n        /* \"#utility.yul\":2642:2721   */\n      tag_220\n      tag_110\n      jump\t// in\n    tag_220:\n        /* \"#utility.yul\":2604:2723   */\n    tag_219:\n        /* \"#utility.yul\":2762:2763   */\n      0x00\n        /* \"#utility.yul\":2787:2840   */\n      tag_221\n        /* \"#utility.yul\":2832:2839   */\n      dup5\n        /* \"#utility.yul\":2823:2829   */\n      dup3\n        /* \"#utility.yul\":2812:2821   */\n      dup6\n        /* \"#utility.yul\":2808:2830   */\n      add\n        /* \"#utility.yul\":2787:2840   */\n      tag_121\n      jump\t// in\n    tag_221:\n        /* \"#utility.yul\":2777:2840   */\n      swap2\n      pop\n        /* \"#utility.yul\":2733:2850   */\n      pop\n        /* \"#utility.yul\":2528:2857   */\n      swap3\n      swap2\n      pop\n      pop\n      jump\t// out\n        /* \"#utility.yul\":2863:2977   */\n    tag_122:\n        /* \"#utility.yul\":2918:2925   */\n      0x00\n        /* \"#utility.yul\":2947:2971   */\n      tag_223\n        /* \"#utility.yul\":2965:2970   */\n      dup3\n        /* \"#utility.yul\":2947:2971   */\n      tag_119\n      jump\t// in\n    tag_223:\n        /* \"#utility.yul\":2936:2971   */\n      swap1\n      pop\n        /* \"#utility.yul\":2863:2977   */\n      swap2\n      swap1\n      pop\n      jump\t// out\n        /* \"#utility.yul\":2983:3141   */\n    tag_123:\n        /* \"#utility.yul\":3074:3116   */\n      tag_225\n        /* \"#utility.yul\":3110:3115   */\n      dup2\n        /* \"#utility.yul\":3074:3116   */\n      tag_122\n      jump\t// in\n    tag_225:\n        /* \"#utility.yul\":3067:3072   */\n      dup2\n        /* \"#utility.yul\":3064:3117   */\n      eq\n        /* \"#utility.yul\":3054:3135   */\n      tag_226\n      jumpi\n        /* \"#utility.yul\":3131:3132   */\n      0x00\n        /* \"#utility.yul\":3128:3129   */\n      dup1\n        /* \"#utility.yul\":3121:3133   */\n      revert\n        /* \"#utility.yul\":3054:3135   */\n    tag_226:\n        /* \"#utility.yul\":2983:3141   */\n      pop\n      jump\t// out\n        /* \"#utility.yul\":3147:3322   */\n    tag_124:\n        /* \"#utility.yul\":3211:3216   */\n      0x00\n        /* \"#utility.yul\":3249:3255   */\n      dup2\n        /* \"#utility.yul\":3236:3256   */\n      calldataload\n        /* \"#utility.yul\":3227:3256   */\n      swap1\n      pop\n        /* \"#utility.yul\":3265:3316   */\n      tag_228\n        /* \"#utility.yul\":3310:3315   */\n      dup2\n        /* \"#utility.yul\":3265:3316   */\n      tag_123\n      jump\t// in\n    tag_228:\n        /* \"#utility.yul\":3147:3322   */\n      swap3\n      swap2\n      pop\n      pop\n      jump\t// out\n        /* \"#utility.yul\":3328:3445   */\n    tag_125:\n        /* \"#utility.yul\":3437:3438   */\n      0x00\n        /* \"#utility.yul\":3434:3435   */\n      dup1\n        /* \"#utility.yul\":3427:3439   */\n      revert\n        /* \"#utility.yul\":3451:3553   */\n    tag_126:\n        /* \"#utility.yul\":3492:3498   */\n      0x00\n        /* \"#utility.yul\":3543:3545   */\n      0x1f\n        /* \"#utility.yul\":3539:3546   */\n      not\n        /* \"#utility.yul\":3534:3536   */\n      0x1f\n        /* \"#utility.yul\":3527:3532   */\n      dup4\n        /* \"#utility.yul\":3523:3537   */\n      add\n        /* \"#utility.yul\":3519:3547   */\n      and\n        /* \"#utility.yul\":3509:3547   */\n      swap1\n      pop\n        /* \"#utility.yul\":3451:3553   */\n      swap2\n      swap1\n      pop\n      jump\t// out\n        /* \"#utility.yul\":3559:3739   */\n    tag_53:\n        /* \"#utility.yul\":3607:3684   */\n      0x4e487b7100000000000000000000000000000000000000000000000000000000\n        /* \"#utility.yul\":3604:3605   */\n      0x00\n        /* \"#utility.yul\":3597:3685   */\n      mstore\n        /* \"#utility.yul\":3704:3708   */\n      0x41\n        /* \"#utility.yul\":3701:3702   */\n      0x04\n        /* \"#utility.yul\":3694:3709   */\n      mstore\n        /* \"#utility.yul\":3728:3732   */\n      0x24\n        /* \"#utility.yul\":3725:3726   */\n      0x00\n        /* \"#utility.yul\":3718:3733   */\n      revert\n        /* \"#utility.yul\":3745:4026   */\n    tag_127:\n        /* \"#utility.yul\":3828:3855   */\n      tag_233\n        /* \"#utility.yul\":3850:3854   */\n      dup3\n        /* \"#utility.yul\":3828:3855   */\n      tag_126\n      jump\t// in\n    tag_233:\n        /* \"#utility.yul\":3820:3826   */\n      dup2\n        /* \"#utility.yul\":3816:3856   */\n      add\n        /* \"#utility.yul\":3958:3964   */\n      dup2\n        /* \"#utility.yul\":3946:3956   */\n      dup2\n        /* \"#utility.yul\":3943:3965   */\n      lt\n        /* \"#utility.yul\":3922:3940   */\n      0xffffffffffffffff\n        /* \"#utility.yul\":3910:3920   */\n      dup3\n        /* \"#utility.yul\":3907:3941   */\n      gt\n        /* \"#utility.yul\":3904:3966   */\n      or\n        /* \"#utility.yul\":3901:3989   */\n      iszero\n      tag_234\n      jumpi\n        /* \"#utility.yul\":3969:3987   */\n      tag_235\n      tag_53\n      jump\t// in\n    tag_235:\n        /* \"#utility.yul\":3901:3989   */\n    tag_234:\n        /* \"#utility.yul\":4009:4019   */\n      dup1\n        /* \"#utility.yul\":4005:4007   */\n      0x40\n        /* \"#utility.yul\":3998:4020   */\n      mstore\n        /* \"#utility.yul\":3788:4026   */\n      pop\n        /* \"#utility.yul\":3745:4026   */\n      pop\n      pop\n      jump\t// out\n        /* \"#utility.yul\":4032:4161   */\n    tag_128:\n        /* \"#utility.yul\":4066:4072   */\n      0x00\n        /* \"#utility.yul\":4093:4113   */\n      tag_237\n      tag_109\n      jump\t// in\n    tag_237:\n        /* \"#utility.yul\":4083:4113   */\n      swap1\n      pop\n        /* \"#utility.yul\":4122:4155   */\n      tag_238\n        /* \"#utility.yul\":4150:4154   */\n      dup3\n        /* \"#utility.yul\":4142:4148   */\n      dup3\n        /* \"#utility.yul\":4122:4155   */\n      tag_127\n      jump\t// in\n    tag_238:\n        /* \"#utility.yul\":4032:4161   */\n      swap2\n      swap1\n      pop\n      jump\t// out\n        /* \"#utility.yul\":4167:4284   */\n    tag_129:\n        /* \"#utility.yul\":4276:4277   */\n      0x00\n        /* \"#utility.yul\":4273:4274   */\n      dup1\n        /* \"#utility.yul\":4266:4278   */\n      revert\n        /* \"#utility.yul\":4290:4407   */\n    tag_130:\n        /* \"#utility.yul\":4399:4400   */\n      0x00\n        /* \"#utility.yul\":4396:4397   */\n      dup1\n        /* \"#utility.yul\":4389:4401   */\n      revert\n        /* \"#utility.yul\":4413:4530   */\n    tag_131:\n        /* \"#utility.yul\":4522:4523   */\n      0x00\n        /* \"#utility.yul\":4519:4520   */\n      dup1\n        /* \"#utility.yul\":4512:4524   */\n      revert\n        /* \"#utility.yul\":4536:4843   */\n    tag_132:\n        /* \"#utility.yul\":4597:4601   */\n      0x00\n        /* \"#utility.yul\":4687:4705   */\n      0xffffffffffffffff\n        /* \"#utility.yul\":4679:4685   */\n      dup3\n        /* \"#utility.yul\":4676:4706   */\n      gt\n        /* \"#utility.yul\":4673:4729   */\n      iszero\n      tag_243\n      jumpi\n        /* \"#utility.yul\":4709:4727   */\n      tag_244\n      tag_53\n      jump\t// in\n    tag_244:\n        /* \"#utility.yul\":4673:4729   */\n    tag_243:\n        /* \"#utility.yul\":4747:4776   */\n      tag_245\n        /* \"#utility.yul\":4769:4775   */\n      dup3\n        /* \"#utility.yul\":4747:4776   */\n      tag_126\n      jump\t// in\n    tag_245:\n        /* \"#utility.yul\":4739:4776   */\n      swap1\n      pop\n        /* \"#utility.yul\":4831:4835   */\n      0x20\n        /* \"#utility.yul\":4825:4829   */\n      dup2\n        /* \"#utility.yul\":4821:4836   */\n      add\n        /* \"#utility.yul\":4813:4836   */\n      swap1\n      pop\n        /* \"#utility.yul\":4536:4843   */\n      swap2\n      swap1\n      pop\n      jump\t// out\n        /* \"#utility.yul\":4849:4997   */\n    tag_133:\n        /* \"#utility.yul\":4947:4953   */\n      dup3\n        /* \"#utility.yul\":4942:4945   */\n      dup2\n        /* \"#utility.yul\":4937:4940   */\n      dup4\n        /* \"#utility.yul\":4924:4954   */\n      calldatacopy\n        /* \"#utility.yul\":4988:4989   */\n      0x00\n        /* \"#utility.yul\":4979:4985   */\n      dup4\n        /* \"#utility.yul\":4974:4977   */\n      dup4\n        /* \"#utility.yul\":4970:4986   */\n      add\n        /* \"#utility.yul\":4963:4990   */\n      mstore\n        /* \"#utility.yul\":4849:4997   */\n      pop\n      pop\n      pop\n      jump\t// out\n        /* \"#utility.yul\":5003:5426   */\n    tag_134:\n        /* \"#utility.yul\":5080:5085   */\n      0x00\n        /* \"#utility.yul\":5105:5170   */\n      tag_248\n        /* \"#utility.yul\":5121:5169   */\n      tag_249\n        /* \"#utility.yul\":5162:5168   */\n      dup5\n        /* \"#utility.yul\":5121:5169   */\n      tag_132\n      jump\t// in\n    tag_249:\n        /* \"#utility.yul\":5105:5170   */\n      tag_128\n      jump\t// in\n    tag_248:\n        /* \"#utility.yul\":5096:5170   */\n      swap1\n      pop\n        /* \"#utility.yul\":5193:5199   */\n      dup3\n        /* \"#utility.yul\":5186:5191   */\n      dup2\n        /* \"#utility.yul\":5179:5200   */\n      mstore\n        /* \"#utility.yul\":5231:5235   */\n      0x20\n        /* \"#utility.yul\":5224:5229   */\n      dup2\n        /* \"#utility.yul\":5220:5236   */\n      add\n        /* \"#utility.yul\":5269:5272   */\n      dup5\n        /* \"#utility.yul\":5260:5266   */\n      dup5\n        /* \"#utility.yul\":5255:5258   */\n      dup5\n        /* \"#utility.yul\":5251:5267   */\n      add\n        /* \"#utility.yul\":5248:5273   */\n      gt\n        /* \"#utility.yul\":5245:5357   */\n      iszero\n      tag_250\n      jumpi\n        /* \"#utility.yul\":5276:5355   */\n      tag_251\n      tag_131\n      jump\t// in\n    tag_251:\n        /* \"#utility.yul\":5245:5357   */\n    tag_250:\n        /* \"#utility.yul\":5366:5420   */\n      tag_252\n        /* \"#utility.yul\":5413:5419   */\n      dup5\n        /* \"#utility.yul\":5408:5411   */\n      dup3\n        /* \"#utility.yul\":5403:5406   */\n      dup6\n        /* \"#utility.yul\":5366:5420   */\n      tag_133\n      jump\t// in\n    tag_252:\n        /* \"#utility.yul\":5086:5426   */\n      pop\n        /* \"#utility.yul\":5003:5426   */\n      swap4\n      swap3\n      pop\n      pop\n      pop\n      jump\t// out\n        /* \"#utility.yul\":5445:5783   */\n    tag_135:\n        /* \"#utility.yul\":5500:5505   */\n      0x00\n        /* \"#utility.yul\":5549:5552   */\n      dup3\n        /* \"#utility.yul\":5542:5546   */\n      0x1f\n        /* \"#utility.yul\":5534:5540   */\n      dup4\n        /* \"#utility.yul\":5530:5547   */\n      add\n        /* \"#utility.yul\":5526:5553   */\n      slt\n        /* \"#utility.yul\":5516:5638   */\n      tag_254\n      jumpi\n        /* \"#utility.yul\":5557:5636   */\n      tag_255\n      tag_130\n      jump\t// in\n    tag_255:\n        /* \"#utility.yul\":5516:5638   */\n    tag_254:\n        /* \"#utility.yul\":5674:5680   */\n      dup2\n        /* \"#utility.yul\":5661:5681   */\n      calldataload\n        /* \"#utility.yul\":5699:5777   */\n      tag_256\n        /* \"#utility.yul\":5773:5776   */\n      dup5\n        /* \"#utility.yul\":5765:5771   */\n      dup3\n        /* \"#utility.yul\":5758:5762   */\n      0x20\n        /* \"#utility.yul\":5750:5756   */\n      dup7\n        /* \"#utility.yul\":5746:5763   */\n      add\n        /* \"#utility.yul\":5699:5777   */\n      tag_134\n      jump\t// in\n    tag_256:\n        /* \"#utility.yul\":5690:5777   */\n      swap2\n      pop\n        /* \"#utility.yul\":5506:5783   */\n      pop\n        /* \"#utility.yul\":5445:5783   */\n      swap3\n      swap2\n      pop\n      pop\n      jump\t// out\n        /* \"#utility.yul\":5820:6557   */\n    tag_136:\n        /* \"#utility.yul\":5889:5894   */\n      0x00\n        /* \"#utility.yul\":5933:5937   */\n      0x40\n        /* \"#utility.yul\":5921:5930   */\n      dup3\n        /* \"#utility.yul\":5916:5919   */\n      dup5\n        /* \"#utility.yul\":5912:5931   */\n      sub\n        /* \"#utility.yul\":5908:5938   */\n      slt\n        /* \"#utility.yul\":5905:6022   */\n      iszero\n      tag_258\n      jumpi\n        /* \"#utility.yul\":5941:6020   */\n      tag_259\n      tag_125\n      jump\t// in\n    tag_259:\n        /* \"#utility.yul\":5905:6022   */\n    tag_258:\n        /* \"#utility.yul\":6040:6061   */\n      tag_260\n        /* \"#utility.yul\":6056:6060   */\n      0x40\n        /* \"#utility.yul\":6040:6061   */\n      tag_128\n      jump\t// in\n    tag_260:\n        /* \"#utility.yul\":6031:6061   */\n      swap1\n      pop\n        /* \"#utility.yul\":6119:6120   */\n      0x00\n        /* \"#utility.yul\":6159:6208   */\n      tag_261\n        /* \"#utility.yul\":6204:6207   */\n      dup5\n        /* \"#utility.yul\":6195:6201   */\n      dup3\n        /* \"#utility.yul\":6184:6193   */\n      dup6\n        /* \"#utility.yul\":6180:6202   */\n      add\n        /* \"#utility.yul\":6159:6208   */\n      tag_114\n      jump\t// in\n    tag_261:\n        /* \"#utility.yul\":6152:6156   */\n      0x00\n        /* \"#utility.yul\":6145:6150   */\n      dup4\n        /* \"#utility.yul\":6141:6157   */\n      add\n        /* \"#utility.yul\":6134:6209   */\n      mstore\n        /* \"#utility.yul\":6071:6220   */\n      pop\n        /* \"#utility.yul\":6307:6309   */\n      0x20\n        /* \"#utility.yul\":6296:6305   */\n      dup3\n        /* \"#utility.yul\":6292:6310   */\n      add\n        /* \"#utility.yul\":6279:6311   */\n      calldataload\n        /* \"#utility.yul\":6338:6356   */\n      0xffffffffffffffff\n        /* \"#utility.yul\":6330:6336   */\n      dup2\n        /* \"#utility.yul\":6327:6357   */\n      gt\n        /* \"#utility.yul\":6324:6441   */\n      iszero\n      tag_262\n      jumpi\n        /* \"#utility.yul\":6360:6439   */\n      tag_263\n      tag_129\n      jump\t// in\n    tag_263:\n        /* \"#utility.yul\":6324:6441   */\n    tag_262:\n        /* \"#utility.yul\":6480:6538   */\n      tag_264\n        /* \"#utility.yul\":6534:6537   */\n      dup5\n        /* \"#utility.yul\":6525:6531   */\n      dup3\n        /* \"#utility.yul\":6514:6523   */\n      dup6\n        /* \"#utility.yul\":6510:6532   */\n      add\n        /* \"#utility.yul\":6480:6538   */\n      tag_135\n      jump\t// in\n    tag_264:\n        /* \"#utility.yul\":6473:6477   */\n      0x20\n        /* \"#utility.yul\":6466:6471   */\n      dup4\n        /* \"#utility.yul\":6462:6478   */\n      add\n        /* \"#utility.yul\":6455:6539   */\n      mstore\n        /* \"#utility.yul\":6230:6550   */\n      pop\n        /* \"#utility.yul\":5820:6557   */\n      swap3\n      swap2\n      pop\n      pop\n      jump\t// out\n        /* \"#utility.yul\":6563:6874   */\n    tag_137:\n        /* \"#utility.yul\":6640:6644   */\n      0x00\n        /* \"#utility.yul\":6730:6748   */\n      0xffffffffffffffff\n        /* \"#utility.yul\":6722:6728   */\n      dup3\n        /* \"#utility.yul\":6719:6749   */\n      gt\n        /* \"#utility.yul\":6716:6772   */\n      iszero\n      tag_266\n      jumpi\n        /* \"#utility.yul\":6752:6770   */\n      tag_267\n      tag_53\n      jump\t// in\n    tag_267:\n        /* \"#utility.yul\":6716:6772   */\n    tag_266:\n        /* \"#utility.yul\":6802:6806   */\n      0x20\n        /* \"#utility.yul\":6794:6800   */\n      dup3\n        /* \"#utility.yul\":6790:6807   */\n      mul\n        /* \"#utility.yul\":6782:6807   */\n      swap1\n      pop\n        /* \"#utility.yul\":6862:6866   */\n      0x20\n        /* \"#utility.yul\":6856:6860   */\n      dup2\n        /* \"#utility.yul\":6852:6867   */\n      add\n        /* \"#utility.yul\":6844:6867   */\n      swap1\n      pop\n        /* \"#utility.yul\":6563:6874   */\n      swap2\n      swap1\n      pop\n      jump\t// out\n        /* \"#utility.yul\":6880:6997   */\n    tag_138:\n        /* \"#utility.yul\":6989:6990   */\n      0x00\n        /* \"#utility.yul\":6986:6987   */\n      dup1\n        /* \"#utility.yul\":6979:6991   */\n      revert\n        /* \"#utility.yul\":7020:7730   */\n    tag_139:\n        /* \"#utility.yul\":7116:7121   */\n      0x00\n        /* \"#utility.yul\":7141:7222   */\n      tag_270\n        /* \"#utility.yul\":7157:7221   */\n      tag_271\n        /* \"#utility.yul\":7214:7220   */\n      dup5\n        /* \"#utility.yul\":7157:7221   */\n      tag_137\n      jump\t// in\n    tag_271:\n        /* \"#utility.yul\":7141:7222   */\n      tag_128\n      jump\t// in\n    tag_270:\n        /* \"#utility.yul\":7132:7222   */\n      swap1\n      pop\n        /* \"#utility.yul\":7242:7247   */\n      dup1\n        /* \"#utility.yul\":7271:7277   */\n      dup4\n        /* \"#utility.yul\":7264:7269   */\n      dup3\n        /* \"#utility.yul\":7257:7278   */\n      mstore\n        /* \"#utility.yul\":7305:7309   */\n      0x20\n        /* \"#utility.yul\":7298:7303   */\n      dup3\n        /* \"#utility.yul\":7294:7310   */\n      add\n        /* \"#utility.yul\":7287:7310   */\n      swap1\n      pop\n        /* \"#utility.yul\":7358:7362   */\n      0x20\n        /* \"#utility.yul\":7350:7356   */\n      dup5\n        /* \"#utility.yul\":7346:7363   */\n      mul\n        /* \"#utility.yul\":7338:7344   */\n      dup4\n        /* \"#utility.yul\":7334:7364   */\n      add\n        /* \"#utility.yul\":7387:7390   */\n      dup6\n        /* \"#utility.yul\":7379:7385   */\n      dup2\n        /* \"#utility.yul\":7376:7391   */\n      gt\n        /* \"#utility.yul\":7373:7495   */\n      iszero\n      tag_272\n      jumpi\n        /* \"#utility.yul\":7406:7485   */\n      tag_273\n      tag_138\n      jump\t// in\n    tag_273:\n        /* \"#utility.yul\":7373:7495   */\n    tag_272:\n        /* \"#utility.yul\":7521:7527   */\n      dup4\n        /* \"#utility.yul\":7504:7724   */\n    tag_274:\n        /* \"#utility.yul\":7538:7544   */\n      dup2\n        /* \"#utility.yul\":7533:7536   */\n      dup2\n        /* \"#utility.yul\":7530:7545   */\n      lt\n        /* \"#utility.yul\":7504:7724   */\n      iszero\n      tag_276\n      jumpi\n        /* \"#utility.yul\":7613:7616   */\n      dup1\n        /* \"#utility.yul\":7642:7679   */\n      tag_277\n        /* \"#utility.yul\":7675:7678   */\n      dup9\n        /* \"#utility.yul\":7663:7673   */\n      dup3\n        /* \"#utility.yul\":7642:7679   */\n      tag_114\n      jump\t// in\n    tag_277:\n        /* \"#utility.yul\":7637:7640   */\n      dup5\n        /* \"#utility.yul\":7630:7680   */\n      mstore\n        /* \"#utility.yul\":7709:7713   */\n      0x20\n        /* \"#utility.yul\":7704:7707   */\n      dup5\n        /* \"#utility.yul\":7700:7714   */\n      add\n        /* \"#utility.yul\":7693:7714   */\n      swap4\n      pop\n        /* \"#utility.yul\":7580:7724   */\n      pop\n        /* \"#utility.yul\":7564:7568   */\n      0x20\n        /* \"#utility.yul\":7559:7562   */\n      dup2\n        /* \"#utility.yul\":7555:7569   */\n      add\n        /* \"#utility.yul\":7548:7569   */\n      swap1\n      pop\n        /* \"#utility.yul\":7504:7724   */\n      jump(tag_274)\n    tag_276:\n        /* \"#utility.yul\":7508:7529   */\n      pop\n        /* \"#utility.yul\":7122:7730   */\n      pop\n      pop\n        /* \"#utility.yul\":7020:7730   */\n      swap4\n      swap3\n      pop\n      pop\n      pop\n      jump\t// out\n        /* \"#utility.yul\":7753:8123   */\n    tag_140:\n        /* \"#utility.yul\":7824:7829   */\n      0x00\n        /* \"#utility.yul\":7873:7876   */\n      dup3\n        /* \"#utility.yul\":7866:7870   */\n      0x1f\n        /* \"#utility.yul\":7858:7864   */\n      dup4\n        /* \"#utility.yul\":7854:7871   */\n      add\n        /* \"#utility.yul\":7850:7877   */\n      slt\n        /* \"#utility.yul\":7840:7962   */\n      tag_279\n      jumpi\n        /* \"#utility.yul\":7881:7960   */\n      tag_280\n      tag_130\n      jump\t// in\n    tag_280:\n        /* \"#utility.yul\":7840:7962   */\n    tag_279:\n        /* \"#utility.yul\":7998:8004   */\n      dup2\n        /* \"#utility.yul\":7985:8005   */\n      calldataload\n        /* \"#utility.yul\":8023:8117   */\n      tag_281\n        /* \"#utility.yul\":8113:8116   */\n      dup5\n        /* \"#utility.yul\":8105:8111   */\n      dup3\n        /* \"#utility.yul\":8098:8102   */\n      0x20\n        /* \"#utility.yul\":8090:8096   */\n      dup7\n        /* \"#utility.yul\":8086:8103   */\n      add\n        /* \"#utility.yul\":8023:8117   */\n      tag_139\n      jump\t// in\n    tag_281:\n        /* \"#utility.yul\":8014:8117   */\n      swap2\n      pop\n        /* \"#utility.yul\":7830:8123   */\n      pop\n        /* \"#utility.yul\":7753:8123   */\n      swap3\n      swap2\n      pop\n      pop\n      jump\t// out\n        /* \"#utility.yul\":8129:8237   */\n    tag_141:\n        /* \"#utility.yul\":8211:8212   */\n      0x03\n        /* \"#utility.yul\":8204:8209   */\n      dup2\n        /* \"#utility.yul\":8201:8213   */\n      lt\n        /* \"#utility.yul\":8191:8231   */\n      tag_283\n      jumpi\n        /* \"#utility.yul\":8227:8228   */\n      0x00\n        /* \"#utility.yul\":8224:8225   */\n      dup1\n        /* \"#utility.yul\":8217:8229   */\n      revert\n        /* \"#utility.yul\":8191:8231   */\n    tag_283:\n        /* \"#utility.yul\":8129:8237   */\n      pop\n      jump\t// out\n        /* \"#utility.yul\":8243:8400   */\n    tag_142:\n        /* \"#utility.yul\":8298:8303   */\n      0x00\n        /* \"#utility.yul\":8336:8342   */\n      dup2\n        /* \"#utility.yul\":8323:8343   */\n      calldataload\n        /* \"#utility.yul\":8314:8343   */\n      swap1\n      pop\n        /* \"#utility.yul\":8352:8394   */\n      tag_285\n        /* \"#utility.yul\":8388:8393   */\n      dup2\n        /* \"#utility.yul\":8352:8394   */\n      tag_141\n      jump\t// in\n    tag_285:\n        /* \"#utility.yul\":8243:8400   */\n      swap3\n      swap2\n      pop\n      pop\n      jump\t// out\n        /* \"#utility.yul\":8406:9635   */\n    tag_32:\n        /* \"#utility.yul\":8564:8570   */\n      0x00\n        /* \"#utility.yul\":8572:8578   */\n      dup1\n        /* \"#utility.yul\":8580:8586   */\n      0x00\n        /* \"#utility.yul\":8588:8594   */\n      dup1\n        /* \"#utility.yul\":8637:8640   */\n      0x80\n        /* \"#utility.yul\":8625:8634   */\n      dup6\n        /* \"#utility.yul\":8616:8623   */\n      dup8\n        /* \"#utility.yul\":8612:8635   */\n      sub\n        /* \"#utility.yul\":8608:8641   */\n      slt\n        /* \"#utility.yul\":8605:8725   */\n      iszero\n      tag_287\n      jumpi\n        /* \"#utility.yul\":8644:8723   */\n      tag_288\n      tag_110\n      jump\t// in\n    tag_288:\n        /* \"#utility.yul\":8605:8725   */\n    tag_287:\n        /* \"#utility.yul\":8764:8765   */\n      0x00\n        /* \"#utility.yul\":8789:8860   */\n      tag_289\n        /* \"#utility.yul\":8852:8859   */\n      dup8\n        /* \"#utility.yul\":8843:8849   */\n      dup3\n        /* \"#utility.yul\":8832:8841   */\n      dup9\n        /* \"#utility.yul\":8828:8850   */\n      add\n        /* \"#utility.yul\":8789:8860   */\n      tag_124\n      jump\t// in\n    tag_289:\n        /* \"#utility.yul\":8779:8860   */\n      swap5\n      pop\n        /* \"#utility.yul\":8735:8870   */\n      pop\n        /* \"#utility.yul\":8937:8939   */\n      0x20\n        /* \"#utility.yul\":8926:8935   */\n      dup6\n        /* \"#utility.yul\":8922:8940   */\n      add\n        /* \"#utility.yul\":8909:8941   */\n      calldataload\n        /* \"#utility.yul\":8968:8986   */\n      0xffffffffffffffff\n        /* \"#utility.yul\":8960:8966   */\n      dup2\n        /* \"#utility.yul\":8957:8987   */\n      gt\n        /* \"#utility.yul\":8954:9071   */\n      iszero\n      tag_290\n      jumpi\n        /* \"#utility.yul\":8990:9069   */\n      tag_291\n      tag_111\n      jump\t// in\n    tag_291:\n        /* \"#utility.yul\":8954:9071   */\n    tag_290:\n        /* \"#utility.yul\":9095:9168   */\n      tag_292\n        /* \"#utility.yul\":9160:9167   */\n      dup8\n        /* \"#utility.yul\":9151:9157   */\n      dup3\n        /* \"#utility.yul\":9140:9149   */\n      dup9\n        /* \"#utility.yul\":9136:9158   */\n      add\n        /* \"#utility.yul\":9095:9168   */\n      tag_136\n      jump\t// in\n    tag_292:\n        /* \"#utility.yul\":9085:9168   */\n      swap4\n      pop\n        /* \"#utility.yul\":8880:9178   */\n      pop\n        /* \"#utility.yul\":9245:9247   */\n      0x40\n        /* \"#utility.yul\":9234:9243   */\n      dup6\n        /* \"#utility.yul\":9230:9248   */\n      add\n        /* \"#utility.yul\":9217:9249   */\n      calldataload\n        /* \"#utility.yul\":9276:9294   */\n      0xffffffffffffffff\n        /* \"#utility.yul\":9268:9274   */\n      dup2\n        /* \"#utility.yul\":9265:9295   */\n      gt\n        /* \"#utility.yul\":9262:9379   */\n      iszero\n      tag_293\n      jumpi\n        /* \"#utility.yul\":9298:9377   */\n      tag_294\n      tag_111\n      jump\t// in\n    tag_294:\n        /* \"#utility.yul\":9262:9379   */\n    tag_293:\n        /* \"#utility.yul\":9403:9481   */\n      tag_295\n        /* \"#utility.yul\":9473:9480   */\n      dup8\n        /* \"#utility.yul\":9464:9470   */\n      dup3\n        /* \"#utility.yul\":9453:9462   */\n      dup9\n        /* \"#utility.yul\":9449:9471   */\n      add\n        /* \"#utility.yul\":9403:9481   */\n      tag_140\n      jump\t// in\n    tag_295:\n        /* \"#utility.yul\":9393:9481   */\n      swap3\n      pop\n        /* \"#utility.yul\":9188:9491   */\n      pop\n        /* \"#utility.yul\":9530:9532   */\n      0x60\n        /* \"#utility.yul\":9556:9618   */\n      tag_296\n        /* \"#utility.yul\":9610:9617   */\n      dup8\n        /* \"#utility.yul\":9601:9607   */\n      dup3\n        /* \"#utility.yul\":9590:9599   */\n      dup9\n        /* \"#utility.yul\":9586:9608   */\n      add\n        /* \"#utility.yul\":9556:9618   */\n      tag_142\n      jump\t// in\n    tag_296:\n        /* \"#utility.yul\":9546:9618   */\n      swap2\n      pop\n        /* \"#utility.yul\":9501:9628   */\n      pop\n        /* \"#utility.yul\":8406:9635   */\n      swap3\n      swap6\n      swap2\n      swap5\n      pop\n      swap3\n      pop\n      jump\t// out\n        /* \"#utility.yul\":9641:9890   */\n    tag_143:\n        /* \"#utility.yul\":9716:9720   */\n      0x00\n        /* \"#utility.yul\":9806:9824   */\n      0xffffffffffffffff\n        /* \"#utility.yul\":9798:9804   */\n      dup3\n        /* \"#utility.yul\":9795:9825   */\n      gt\n        /* \"#utility.yul\":9792:9848   */\n      iszero\n      tag_298\n      jumpi\n        /* \"#utility.yul\":9828:9846   */\n      tag_299\n      tag_53\n      jump\t// in\n    tag_299:\n        /* \"#utility.yul\":9792:9848   */\n    tag_298:\n        /* \"#utility.yul\":9878:9882   */\n      0x20\n        /* \"#utility.yul\":9870:9876   */\n      dup3\n        /* \"#utility.yul\":9866:9883   */\n      mul\n        /* \"#utility.yul\":9858:9883   */\n      swap1\n      pop\n        /* \"#utility.yul\":9641:9890   */\n      swap2\n      swap1\n      pop\n      jump\t// out\n        /* \"#utility.yul\":9914:10557   */\n    tag_144:\n        /* \"#utility.yul\":10008:10013   */\n      0x00\n        /* \"#utility.yul\":10033:10112   */\n      tag_301\n        /* \"#utility.yul\":10049:10111   */\n      tag_302\n        /* \"#utility.yul\":10104:10110   */\n      dup5\n        /* \"#utility.yul\":10049:10111   */\n      tag_143\n      jump\t// in\n    tag_302:\n        /* \"#utility.yul\":10033:10112   */\n      tag_128\n      jump\t// in\n    tag_301:\n        /* \"#utility.yul\":10024:10112   */\n      swap1\n      pop\n        /* \"#utility.yul\":10132:10137   */\n      dup1\n        /* \"#utility.yul\":10185:10189   */\n      0x20\n        /* \"#utility.yul\":10177:10183   */\n      dup5\n        /* \"#utility.yul\":10173:10190   */\n      mul\n        /* \"#utility.yul\":10165:10171   */\n      dup4\n        /* \"#utility.yul\":10161:10191   */\n      add\n        /* \"#utility.yul\":10214:10217   */\n      dup6\n        /* \"#utility.yul\":10206:10212   */\n      dup2\n        /* \"#utility.yul\":10203:10218   */\n      gt\n        /* \"#utility.yul\":10200:10322   */\n      iszero\n      tag_303\n      jumpi\n        /* \"#utility.yul\":10233:10312   */\n      tag_304\n      tag_138\n      jump\t// in\n    tag_304:\n        /* \"#utility.yul\":10200:10322   */\n    tag_303:\n        /* \"#utility.yul\":10348:10354   */\n      dup4\n        /* \"#utility.yul\":10331:10551   */\n    tag_305:\n        /* \"#utility.yul\":10365:10371   */\n      dup2\n        /* \"#utility.yul\":10360:10363   */\n      dup2\n        /* \"#utility.yul\":10357:10372   */\n      lt\n        /* \"#utility.yul\":10331:10551   */\n      iszero\n      tag_307\n      jumpi\n        /* \"#utility.yul\":10440:10443   */\n      dup1\n        /* \"#utility.yul\":10469:10506   */\n      tag_308\n        /* \"#utility.yul\":10502:10505   */\n      dup9\n        /* \"#utility.yul\":10490:10500   */\n      dup3\n        /* \"#utility.yul\":10469:10506   */\n      tag_114\n      jump\t// in\n    tag_308:\n        /* \"#utility.yul\":10464:10467   */\n      dup5\n        /* \"#utility.yul\":10457:10507   */\n      mstore\n        /* \"#utility.yul\":10536:10540   */\n      0x20\n        /* \"#utility.yul\":10531:10534   */\n      dup5\n        /* \"#utility.yul\":10527:10541   */\n      add\n        /* \"#utility.yul\":10520:10541   */\n      swap4\n      pop\n        /* \"#utility.yul\":10407:10551   */\n      pop\n        /* \"#utility.yul\":10391:10395   */\n      0x20\n        /* \"#utility.yul\":10386:10389   */\n      dup2\n        /* \"#utility.yul\":10382:10396   */\n      add\n        /* \"#utility.yul\":10375:10396   */\n      swap1\n      pop\n        /* \"#utility.yul\":10331:10551   */\n      jump(tag_305)\n    tag_307:\n        /* \"#utility.yul\":10335:10356   */\n      pop\n        /* \"#utility.yul\":10014:10557   */\n      pop\n      pop\n        /* \"#utility.yul\":9914:10557   */\n      swap4\n      swap3\n      pop\n      pop\n      pop\n      jump\t// out\n        /* \"#utility.yul\":10581:10920   */\n    tag_145:\n        /* \"#utility.yul\":10650:10655   */\n      0x00\n        /* \"#utility.yul\":10699:10702   */\n      dup3\n        /* \"#utility.yul\":10692:10696   */\n      0x1f\n        /* \"#utility.yul\":10684:10690   */\n      dup4\n        /* \"#utility.yul\":10680:10697   */\n      add\n        /* \"#utility.yul\":10676:10703   */\n      slt\n        /* \"#utility.yul\":10666:10788   */\n      tag_310\n      jumpi\n        /* \"#utility.yul\":10707:10786   */\n      tag_311\n      tag_130\n      jump\t// in\n    tag_311:\n        /* \"#utility.yul\":10666:10788   */\n    tag_310:\n        /* \"#utility.yul\":10811:10815   */\n      0x03\n        /* \"#utility.yul\":10833:10914   */\n      tag_312\n        /* \"#utility.yul\":10910:10913   */\n      dup5\n        /* \"#utility.yul\":10902:10908   */\n      dup3\n        /* \"#utility.yul\":10894:10900   */\n      dup6\n        /* \"#utility.yul\":10833:10914   */\n      tag_144\n      jump\t// in\n    tag_312:\n        /* \"#utility.yul\":10824:10914   */\n      swap2\n      pop\n        /* \"#utility.yul\":10656:10920   */\n      pop\n        /* \"#utility.yul\":10581:10920   */\n      swap3\n      swap2\n      pop\n      pop\n      jump\t// out\n        /* \"#utility.yul\":10926:11301   */\n    tag_37:\n        /* \"#utility.yul\":11008:11014   */\n      0x00\n        /* \"#utility.yul\":11057:11059   */\n      0x60\n        /* \"#utility.yul\":11045:11054   */\n      dup3\n        /* \"#utility.yul\":11036:11043   */\n      dup5\n        /* \"#utility.yul\":11032:11055   */\n      sub\n        /* \"#utility.yul\":11028:11060   */\n      slt\n        /* \"#utility.yul\":11025:11144   */\n      iszero\n      tag_314\n      jumpi\n        /* \"#utility.yul\":11063:11142   */\n      tag_315\n      tag_110\n      jump\t// in\n    tag_315:\n        /* \"#utility.yul\":11025:11144   */\n    tag_314:\n        /* \"#utility.yul\":11183:11184   */\n      0x00\n        /* \"#utility.yul\":11208:11284   */\n      tag_316\n        /* \"#utility.yul\":11276:11283   */\n      dup5\n        /* \"#utility.yul\":11267:11273   */\n      dup3\n        /* \"#utility.yul\":11256:11265   */\n      dup6\n        /* \"#utility.yul\":11252:11274   */\n      add\n        /* \"#utility.yul\":11208:11284   */\n      tag_145\n      jump\t// in\n    tag_316:\n        /* \"#utility.yul\":11198:11284   */\n      swap2\n      pop\n        /* \"#utility.yul\":11154:11294   */\n      pop\n        /* \"#utility.yul\":10926:11301   */\n      swap3\n      swap2\n      pop\n      pop\n      jump\t// out\n        /* \"#utility.yul\":11307:11615   */\n    tag_146:\n        /* \"#utility.yul\":11369:11373   */\n      0x00\n        /* \"#utility.yul\":11459:11477   */\n      0xffffffffffffffff\n        /* \"#utility.yul\":11451:11457   */\n      dup3\n        /* \"#utility.yul\":11448:11478   */\n      gt\n        /* \"#utility.yul\":11445:11501   */\n      iszero\n      tag_318\n      jumpi\n        /* \"#utility.yul\":11481:11499   */\n      tag_319\n      tag_53\n      jump\t// in\n    tag_319:\n        /* \"#utility.yul\":11445:11501   */\n    tag_318:\n        /* \"#utility.yul\":11519:11548   */\n      tag_320\n        /* \"#utility.yul\":11541:11547   */\n      dup3\n        /* \"#utility.yul\":11519:11548   */\n      tag_126\n      jump\t// in\n    tag_320:\n        /* \"#utility.yul\":11511:11548   */\n      swap1\n      pop\n        /* \"#utility.yul\":11603:11607   */\n      0x20\n        /* \"#utility.yul\":11597:11601   */\n      dup2\n        /* \"#utility.yul\":11593:11608   */\n      add\n        /* \"#utility.yul\":11585:11608   */\n      swap1\n      pop\n        /* \"#utility.yul\":11307:11615   */\n      swap2\n      swap1\n      pop\n      jump\t// out\n        /* \"#utility.yul\":11621:12046   */\n    tag_147:\n        /* \"#utility.yul\":11699:11704   */\n      0x00\n        /* \"#utility.yul\":11724:11790   */\n      tag_322\n        /* \"#utility.yul\":11740:11789   */\n      tag_323\n        /* \"#utility.yul\":11782:11788   */\n      dup5\n        /* \"#utility.yul\":11740:11789   */\n      tag_146\n      jump\t// in\n    tag_323:\n        /* \"#utility.yul\":11724:11790   */\n      tag_128\n      jump\t// in\n    tag_322:\n        /* \"#utility.yul\":11715:11790   */\n      swap1\n      pop\n        /* \"#utility.yul\":11813:11819   */\n      dup3\n        /* \"#utility.yul\":11806:11811   */\n      dup2\n        /* \"#utility.yul\":11799:11820   */\n      mstore\n        /* \"#utility.yul\":11851:11855   */\n      0x20\n        /* \"#utility.yul\":11844:11849   */\n      dup2\n        /* \"#utility.yul\":11840:11856   */\n      add\n        /* \"#utility.yul\":11889:11892   */\n      dup5\n        /* \"#utility.yul\":11880:11886   */\n      dup5\n        /* \"#utility.yul\":11875:11878   */\n      dup5\n        /* \"#utility.yul\":11871:11887   */\n      add\n        /* \"#utility.yul\":11868:11893   */\n      gt\n        /* \"#utility.yul\":11865:11977   */\n      iszero\n      tag_324\n      jumpi\n        /* \"#utility.yul\":11896:11975   */\n      tag_325\n      tag_131\n      jump\t// in\n    tag_325:\n        /* \"#utility.yul\":11865:11977   */\n    tag_324:\n        /* \"#utility.yul\":11986:12040   */\n      tag_326\n        /* \"#utility.yul\":12033:12039   */\n      dup5\n        /* \"#utility.yul\":12028:12031   */\n      dup3\n        /* \"#utility.yul\":12023:12026   */\n      dup6\n        /* \"#utility.yul\":11986:12040   */\n      tag_133\n      jump\t// in\n    tag_326:\n        /* \"#utility.yul\":11705:12046   */\n      pop\n        /* \"#utility.yul\":11621:12046   */\n      swap4\n      swap3\n      pop\n      pop\n      pop\n      jump\t// out\n        /* \"#utility.yul\":12066:12406   */\n    tag_148:\n        /* \"#utility.yul\":12122:12127   */\n      0x00\n        /* \"#utility.yul\":12171:12174   */\n      dup3\n        /* \"#utility.yul\":12164:12168   */\n      0x1f\n        /* \"#utility.yul\":12156:12162   */\n      dup4\n        /* \"#utility.yul\":12152:12169   */\n      add\n        /* \"#utility.yul\":12148:12175   */\n      slt\n        /* \"#utility.yul\":12138:12260   */\n      tag_328\n      jumpi\n        /* \"#utility.yul\":12179:12258   */\n      tag_329\n      tag_130\n      jump\t// in\n    tag_329:\n        /* \"#utility.yul\":12138:12260   */\n    tag_328:\n        /* \"#utility.yul\":12296:12302   */\n      dup2\n        /* \"#utility.yul\":12283:12303   */\n      calldataload\n        /* \"#utility.yul\":12321:12400   */\n      tag_330\n        /* \"#utility.yul\":12396:12399   */\n      dup5\n        /* \"#utility.yul\":12388:12394   */\n      dup3\n        /* \"#utility.yul\":12381:12385   */\n      0x20\n        /* \"#utility.yul\":12373:12379   */\n      dup7\n        /* \"#utility.yul\":12369:12386   */\n      add\n        /* \"#utility.yul\":12321:12400   */\n      tag_147\n      jump\t// in\n    tag_330:\n        /* \"#utility.yul\":12312:12400   */\n      swap2\n      pop\n        /* \"#utility.yul\":12128:12406   */\n      pop\n        /* \"#utility.yul\":12066:12406   */\n      swap3\n      swap2\n      pop\n      pop\n      jump\t// out\n        /* \"#utility.yul\":12412:13276   */\n    tag_42:\n        /* \"#utility.yul\":12515:12521   */\n      0x00\n        /* \"#utility.yul\":12523:12529   */\n      dup1\n        /* \"#utility.yul\":12572:12574   */\n      0x40\n        /* \"#utility.yul\":12560:12569   */\n      dup4\n        /* \"#utility.yul\":12551:12558   */\n      dup6\n        /* \"#utility.yul\":12547:12570   */\n      sub\n        /* \"#utility.yul\":12543:12575   */\n      slt\n        /* \"#utility.yul\":12540:12659   */\n      iszero\n      tag_332\n      jumpi\n        /* \"#utility.yul\":12578:12657   */\n      tag_333\n      tag_110\n      jump\t// in\n    tag_333:\n        /* \"#utility.yul\":12540:12659   */\n    tag_332:\n        /* \"#utility.yul\":12726:12727   */\n      0x00\n        /* \"#utility.yul\":12715:12724   */\n      dup4\n        /* \"#utility.yul\":12711:12728   */\n      add\n        /* \"#utility.yul\":12698:12729   */\n      calldataload\n        /* \"#utility.yul\":12756:12774   */\n      0xffffffffffffffff\n        /* \"#utility.yul\":12748:12754   */\n      dup2\n        /* \"#utility.yul\":12745:12775   */\n      gt\n        /* \"#utility.yul\":12742:12859   */\n      iszero\n      tag_334\n      jumpi\n        /* \"#utility.yul\":12778:12857   */\n      tag_335\n      tag_111\n      jump\t// in\n    tag_335:\n        /* \"#utility.yul\":12742:12859   */\n    tag_334:\n        /* \"#utility.yul\":12883:12961   */\n      tag_336\n        /* \"#utility.yul\":12953:12960   */\n      dup6\n        /* \"#utility.yul\":12944:12950   */\n      dup3\n        /* \"#utility.yul\":12933:12942   */\n      dup7\n        /* \"#utility.yul\":12929:12951   */\n      add\n        /* \"#utility.yul\":12883:12961   */\n      tag_140\n      jump\t// in\n    tag_336:\n        /* \"#utility.yul\":12873:12961   */\n      swap3\n      pop\n        /* \"#utility.yul\":12669:12971   */\n      pop\n        /* \"#utility.yul\":13038:13040   */\n      0x20\n        /* \"#utility.yul\":13027:13036   */\n      dup4\n        /* \"#utility.yul\":13023:13041   */\n      add\n        /* \"#utility.yul\":13010:13042   */\n      calldataload\n        /* \"#utility.yul\":13069:13087   */\n      0xffffffffffffffff\n        /* \"#utility.yul\":13061:13067   */\n      dup2\n        /* \"#utility.yul\":13058:13088   */\n      gt\n        /* \"#utility.yul\":13055:13172   */\n      iszero\n      tag_337\n      jumpi\n        /* \"#utility.yul\":13091:13170   */\n      tag_338\n      tag_111\n      jump\t// in\n    tag_338:\n        /* \"#utility.yul\":13055:13172   */\n    tag_337:\n        /* \"#utility.yul\":13196:13259   */\n      tag_339\n        /* \"#utility.yul\":13251:13258   */\n      dup6\n        /* \"#utility.yul\":13242:13248   */\n      dup3\n        /* \"#utility.yul\":13231:13240   */\n      dup7\n        /* \"#utility.yul\":13227:13249   */\n      add\n        /* \"#utility.yul\":13196:13259   */\n      tag_148\n      jump\t// in\n    tag_339:\n        /* \"#utility.yul\":13186:13259   */\n      swap2\n      pop\n        /* \"#utility.yul\":12981:13269   */\n      pop\n        /* \"#utility.yul\":12412:13276   */\n      swap3\n      pop\n      swap3\n      swap1\n      pop\n      jump\t// out\n        /* \"#utility.yul\":13282:13462   */\n    tag_57:\n        /* \"#utility.yul\":13330:13407   */\n      0x4e487b7100000000000000000000000000000000000000000000000000000000\n        /* \"#utility.yul\":13327:13328   */\n      0x00\n        /* \"#utility.yul\":13320:13408   */\n      mstore\n        /* \"#utility.yul\":13427:13431   */\n      0x32\n        /* \"#utility.yul\":13424:13425   */\n      0x04\n        /* \"#utility.yul\":13417:13432   */\n      mstore\n        /* \"#utility.yul\":13451:13455   */\n      0x24\n        /* \"#utility.yul\":13448:13449   */\n      0x00\n        /* \"#utility.yul\":13441:13456   */\n      revert\n        /* \"#utility.yul\":13468:13566   */\n    tag_149:\n        /* \"#utility.yul\":13519:13525   */\n      0x00\n        /* \"#utility.yul\":13553:13558   */\n      dup2\n        /* \"#utility.yul\":13547:13559   */\n      mload\n        /* \"#utility.yul\":13537:13559   */\n      swap1\n      pop\n        /* \"#utility.yul\":13468:13566   */\n      swap2\n      swap1\n      pop\n      jump\t// out\n        /* \"#utility.yul\":13572:13719   */\n    tag_150:\n        /* \"#utility.yul\":13673:13684   */\n      0x00\n        /* \"#utility.yul\":13710:13713   */\n      dup2\n        /* \"#utility.yul\":13695:13713   */\n      swap1\n      pop\n        /* \"#utility.yul\":13572:13719   */\n      swap3\n      swap2\n      pop\n      pop\n      jump\t// out\n        /* \"#utility.yul\":13725:13864   */\n    tag_151:\n        /* \"#utility.yul\":13814:13820   */\n      dup3\n        /* \"#utility.yul\":13809:13812   */\n      dup2\n        /* \"#utility.yul\":13804:13807   */\n      dup4\n        /* \"#utility.yul\":13798:13821   */\n      mcopy\n        /* \"#utility.yul\":13855:13856   */\n      0x00\n        /* \"#utility.yul\":13846:13852   */\n      dup4\n        /* \"#utility.yul\":13841:13844   */\n      dup4\n        /* \"#utility.yul\":13837:13853   */\n      add\n        /* \"#utility.yul\":13830:13857   */\n      mstore\n        /* \"#utility.yul\":13725:13864   */\n      pop\n      pop\n      pop\n      jump\t// out\n        /* \"#utility.yul\":13870:14256   */\n    tag_152:\n        /* \"#utility.yul\":13974:13977   */\n      0x00\n        /* \"#utility.yul\":14002:14040   */\n      tag_345\n        /* \"#utility.yul\":14034:14039   */\n      dup3\n        /* \"#utility.yul\":14002:14040   */\n      tag_149\n      jump\t// in\n    tag_345:\n        /* \"#utility.yul\":14056:14144   */\n      tag_346\n        /* \"#utility.yul\":14137:14143   */\n      dup2\n        /* \"#utility.yul\":14132:14135   */\n      dup6\n        /* \"#utility.yul\":14056:14144   */\n      tag_150\n      jump\t// in\n    tag_346:\n        /* \"#utility.yul\":14049:14144   */\n      swap4\n      pop\n        /* \"#utility.yul\":14153:14218   */\n      tag_347\n        /* \"#utility.yul\":14211:14217   */\n      dup2\n        /* \"#utility.yul\":14206:14209   */\n      dup6\n        /* \"#utility.yul\":14199:14203   */\n      0x20\n        /* \"#utility.yul\":14192:14197   */\n      dup7\n        /* \"#utility.yul\":14188:14204   */\n      add\n        /* \"#utility.yul\":14153:14218   */\n      tag_151\n      jump\t// in\n    tag_347:\n        /* \"#utility.yul\":14243:14249   */\n      dup1\n        /* \"#utility.yul\":14238:14241   */\n      dup5\n        /* \"#utility.yul\":14234:14250   */\n      add\n        /* \"#utility.yul\":14227:14250   */\n      swap2\n      pop\n        /* \"#utility.yul\":13978:14256   */\n      pop\n        /* \"#utility.yul\":13870:14256   */\n      swap3\n      swap2\n      pop\n      pop\n      jump\t// out\n        /* \"#utility.yul\":14262:14533   */\n    tag_65:\n        /* \"#utility.yul\":14392:14395   */\n      0x00\n        /* \"#utility.yul\":14414:14507   */\n      tag_349\n        /* \"#utility.yul\":14503:14506   */\n      dup3\n        /* \"#utility.yul\":14494:14500   */\n      dup5\n        /* \"#utility.yul\":14414:14507   */\n      tag_152\n      jump\t// in\n    tag_349:\n        /* \"#utility.yul\":14407:14507   */\n      swap2\n      pop\n        /* \"#utility.yul\":14524:14527   */\n      dup2\n        /* \"#utility.yul\":14517:14527   */\n      swap1\n      pop\n        /* \"#utility.yul\":14262:14533   */\n      swap3\n      swap2\n      pop\n      pop\n      jump\t// out\n        /* \"#utility.yul\":14539:14624   */\n    tag_153:\n        /* \"#utility.yul\":14584:14591   */\n      0x00\n        /* \"#utility.yul\":14613:14618   */\n      dup2\n        /* \"#utility.yul\":14602:14618   */\n      swap1\n      pop\n        /* \"#utility.yul\":14539:14624   */\n      swap2\n      swap1\n      pop\n      jump\t// out\n        /* \"#utility.yul\":14630:14716   */\n    tag_154:\n        /* \"#utility.yul\":14665:14672   */\n      0x00\n        /* \"#utility.yul\":14705:14709   */\n      0xff\n        /* \"#utility.yul\":14698:14703   */\n      dup3\n        /* \"#utility.yul\":14694:14710   */\n      and\n        /* \"#utility.yul\":14683:14710   */\n      swap1\n      pop\n        /* \"#utility.yul\":14630:14716   */\n      swap2\n      swap1\n      pop\n      jump\t// out\n        /* \"#utility.yul\":14722:14782   */\n    tag_155:\n        /* \"#utility.yul\":14750:14753   */\n      0x00\n        /* \"#utility.yul\":14771:14776   */\n      dup2\n        /* \"#utility.yul\":14764:14776   */\n      swap1\n      pop\n        /* \"#utility.yul\":14722:14782   */\n      swap2\n      swap1\n      pop\n      jump\t// out\n        /* \"#utility.yul\":14788:14942   */\n    tag_156:\n        /* \"#utility.yul\":14844:14853   */\n      0x00\n        /* \"#utility.yul\":14877:14936   */\n      tag_354\n        /* \"#utility.yul\":14893:14935   */\n      tag_355\n        /* \"#utility.yul\":14902:14934   */\n      tag_356\n        /* \"#utility.yul\":14928:14933   */\n      dup5\n        /* \"#utility.yul\":14902:14934   */\n      tag_153\n      jump\t// in\n    tag_356:\n        /* \"#utility.yul\":14893:14935   */\n      tag_155\n      jump\t// in\n    tag_355:\n        /* \"#utility.yul\":14877:14936   */\n      tag_154\n      jump\t// in\n    tag_354:\n        /* \"#utility.yul\":14864:14936   */\n      swap1\n      pop\n        /* \"#utility.yul\":14788:14942   */\n      swap2\n      swap1\n      pop\n      jump\t// out\n        /* \"#utility.yul\":14948:15091   */\n    tag_157:\n        /* \"#utility.yul\":15041:15084   */\n      tag_358\n        /* \"#utility.yul\":15078:15083   */\n      dup2\n        /* \"#utility.yul\":15041:15084   */\n      tag_156\n      jump\t// in\n    tag_358:\n        /* \"#utility.yul\":15036:15039   */\n      dup3\n        /* \"#utility.yul\":15029:15085   */\n      mstore\n        /* \"#utility.yul\":14948:15091   */\n      pop\n      pop\n      jump\t// out\n        /* \"#utility.yul\":15097:15182   */\n    tag_158:\n        /* \"#utility.yul\":15142:15149   */\n      0x00\n        /* \"#utility.yul\":15171:15176   */\n      dup2\n        /* \"#utility.yul\":15160:15176   */\n      swap1\n      pop\n        /* \"#utility.yul\":15097:15182   */\n      swap2\n      swap1\n      pop\n      jump\t// out\n        /* \"#utility.yul\":15188:15342   */\n    tag_159:\n        /* \"#utility.yul\":15244:15253   */\n      0x00\n        /* \"#utility.yul\":15277:15336   */\n      tag_361\n        /* \"#utility.yul\":15293:15335   */\n      tag_362\n        /* \"#utility.yul\":15302:15334   */\n      tag_363\n        /* \"#utility.yul\":15328:15333   */\n      dup5\n        /* \"#utility.yul\":15302:15334   */\n      tag_158\n      jump\t// in\n    tag_363:\n        /* \"#utility.yul\":15293:15335   */\n      tag_155\n      jump\t// in\n    tag_362:\n        /* \"#utility.yul\":15277:15336   */\n      tag_154\n      jump\t// in\n    tag_361:\n        /* \"#utility.yul\":15264:15336   */\n      swap1\n      pop\n        /* \"#utility.yul\":15188:15342   */\n      swap2\n      swap1\n      pop\n      jump\t// out\n        /* \"#utility.yul\":15348:15491   */\n    tag_160:\n        /* \"#utility.yul\":15441:15484   */\n      tag_365\n        /* \"#utility.yul\":15478:15483   */\n      dup2\n        /* \"#utility.yul\":15441:15484   */\n      tag_159\n      jump\t// in\n    tag_365:\n        /* \"#utility.yul\":15436:15439   */\n      dup3\n        /* \"#utility.yul\":15429:15485   */\n      mstore\n        /* \"#utility.yul\":15348:15491   */\n      pop\n      pop\n      jump\t// out\n        /* \"#utility.yul\":15497:15853   */\n    tag_70:\n        /* \"#utility.yul\":15630:15634   */\n      0x00\n        /* \"#utility.yul\":15668:15670   */\n      0x40\n        /* \"#utility.yul\":15657:15666   */\n      dup3\n        /* \"#utility.yul\":15653:15671   */\n      add\n        /* \"#utility.yul\":15645:15671   */\n      swap1\n      pop\n        /* \"#utility.yul\":15681:15758   */\n      tag_367\n        /* \"#utility.yul\":15755:15756   */\n      0x00\n        /* \"#utility.yul\":15744:15753   */\n      dup4\n        /* \"#utility.yul\":15740:15757   */\n      add\n        /* \"#utility.yul\":15731:15737   */\n      dup6\n        /* \"#utility.yul\":15681:15758   */\n      tag_157\n      jump\t// in\n    tag_367:\n        /* \"#utility.yul\":15768:15846   */\n      tag_368\n        /* \"#utility.yul\":15842:15844   */\n      0x20\n        /* \"#utility.yul\":15831:15840   */\n      dup4\n        /* \"#utility.yul\":15827:15845   */\n      add\n        /* \"#utility.yul\":15818:15824   */\n      dup5\n        /* \"#utility.yul\":15768:15846   */\n      tag_160\n      jump\t// in\n    tag_368:\n        /* \"#utility.yul\":15497:15853   */\n      swap4\n      swap3\n      pop\n      pop\n      pop\n      jump\t// out\n        /* \"#utility.yul\":15859:15961   */\n    tag_161:\n        /* \"#utility.yul\":15922:15928   */\n      0x00\n        /* \"#utility.yul\":15950:15954   */\n      0x03\n        /* \"#utility.yul\":15940:15954   */\n      swap1\n      pop\n        /* \"#utility.yul\":15859:15961   */\n      swap2\n      swap1\n      pop\n      jump\t// out\n        /* \"#utility.yul\":15967:16108   */\n    tag_162:\n        /* \"#utility.yul\":16062:16073   */\n      0x00\n        /* \"#utility.yul\":16099:16102   */\n      dup2\n        /* \"#utility.yul\":16084:16102   */\n      swap1\n      pop\n        /* \"#utility.yul\":15967:16108   */\n      swap3\n      swap2\n      pop\n      pop\n      jump\t// out\n        /* \"#utility.yul\":16114:16210   */\n    tag_163:\n        /* \"#utility.yul\":16177:16181   */\n      0x00\n        /* \"#utility.yul\":16200:16203   */\n      dup2\n        /* \"#utility.yul\":16192:16203   */\n      swap1\n      pop\n        /* \"#utility.yul\":16114:16210   */\n      swap2\n      swap1\n      pop\n      jump\t// out\n        /* \"#utility.yul\":16216:16318   */\n    tag_164:\n        /* \"#utility.yul\":16289:16311   */\n      tag_373\n        /* \"#utility.yul\":16305:16310   */\n      dup2\n        /* \"#utility.yul\":16289:16311   */\n      tag_154\n      jump\t// in\n    tag_373:\n        /* \"#utility.yul\":16284:16287   */\n      dup3\n        /* \"#utility.yul\":16277:16312   */\n      mstore\n        /* \"#utility.yul\":16216:16318   */\n      pop\n      pop\n      jump\t// out\n        /* \"#utility.yul\":16324:16495   */\n    tag_165:\n        /* \"#utility.yul\":16389:16399   */\n      0x00\n        /* \"#utility.yul\":16410:16452   */\n      tag_375\n        /* \"#utility.yul\":16448:16451   */\n      dup4\n        /* \"#utility.yul\":16440:16446   */\n      dup4\n        /* \"#utility.yul\":16410:16452   */\n      tag_164\n      jump\t// in\n    tag_375:\n        /* \"#utility.yul\":16484:16488   */\n      0x20\n        /* \"#utility.yul\":16479:16482   */\n      dup4\n        /* \"#utility.yul\":16475:16489   */\n      add\n        /* \"#utility.yul\":16461:16489   */\n      swap1\n      pop\n        /* \"#utility.yul\":16324:16495   */\n      swap3\n      swap2\n      pop\n      pop\n      jump\t// out\n        /* \"#utility.yul\":16501:16610   */\n    tag_166:\n        /* \"#utility.yul\":16567:16571   */\n      0x00\n        /* \"#utility.yul\":16599:16603   */\n      0x20\n        /* \"#utility.yul\":16594:16597   */\n      dup3\n        /* \"#utility.yul\":16590:16604   */\n      add\n        /* \"#utility.yul\":16582:16604   */\n      swap1\n      pop\n        /* \"#utility.yul\":16501:16610   */\n      swap2\n      swap1\n      pop\n      jump\t// out\n        /* \"#utility.yul\":16644:17322   */\n    tag_167:\n        /* \"#utility.yul\":16776:16826   */\n      tag_378\n        /* \"#utility.yul\":16820:16825   */\n      dup2\n        /* \"#utility.yul\":16776:16826   */\n      tag_161\n      jump\t// in\n    tag_378:\n        /* \"#utility.yul\":16842:16924   */\n      tag_379\n        /* \"#utility.yul\":16917:16923   */\n      dup2\n        /* \"#utility.yul\":16912:16915   */\n      dup5\n        /* \"#utility.yul\":16842:16924   */\n      tag_162\n      jump\t// in\n    tag_379:\n        /* \"#utility.yul\":16835:16924   */\n      swap3\n      pop\n        /* \"#utility.yul\":16948:17000   */\n      tag_380\n        /* \"#utility.yul\":16994:16999   */\n      dup3\n        /* \"#utility.yul\":16948:17000   */\n      tag_163\n      jump\t// in\n    tag_380:\n        /* \"#utility.yul\":17023:17030   */\n      dup1\n        /* \"#utility.yul\":17054:17055   */\n      0x00\n        /* \"#utility.yul\":17039:17315   */\n    tag_381:\n        /* \"#utility.yul\":17064:17070   */\n      dup4\n        /* \"#utility.yul\":17061:17062   */\n      dup2\n        /* \"#utility.yul\":17058:17071   */\n      lt\n        /* \"#utility.yul\":17039:17315   */\n      iszero\n      tag_383\n      jumpi\n        /* \"#utility.yul\":17140:17146   */\n      dup2\n        /* \"#utility.yul\":17134:17147   */\n      mload\n        /* \"#utility.yul\":17167:17226   */\n      tag_384\n        /* \"#utility.yul\":17222:17225   */\n      dup8\n        /* \"#utility.yul\":17207:17220   */\n      dup3\n        /* \"#utility.yul\":17167:17226   */\n      tag_165\n      jump\t// in\n    tag_384:\n        /* \"#utility.yul\":17160:17226   */\n      swap7\n      pop\n        /* \"#utility.yul\":17249:17305   */\n      tag_385\n        /* \"#utility.yul\":17298:17304   */\n      dup4\n        /* \"#utility.yul\":17249:17305   */\n      tag_166\n      jump\t// in\n    tag_385:\n        /* \"#utility.yul\":17239:17305   */\n      swap3\n      pop\n        /* \"#utility.yul\":17099:17315   */\n      pop\n        /* \"#utility.yul\":17086:17087   */\n      0x01\n        /* \"#utility.yul\":17083:17084   */\n      dup2\n        /* \"#utility.yul\":17079:17088   */\n      add\n        /* \"#utility.yul\":17074:17088   */\n      swap1\n      pop\n        /* \"#utility.yul\":17039:17315   */\n      jump(tag_381)\n    tag_383:\n        /* \"#utility.yul\":17043:17057   */\n      pop\n        /* \"#utility.yul\":16752:17322   */\n      pop\n      pop\n      pop\n        /* \"#utility.yul\":16644:17322   */\n      pop\n      pop\n      jump\t// out\n        /* \"#utility.yul\":17328:17634   */\n    tag_76:\n        /* \"#utility.yul\":17463:17467   */\n      0x00\n        /* \"#utility.yul\":17501:17503   */\n      0x60\n        /* \"#utility.yul\":17490:17499   */\n      dup3\n        /* \"#utility.yul\":17486:17504   */\n      add\n        /* \"#utility.yul\":17478:17504   */\n      swap1\n      pop\n        /* \"#utility.yul\":17514:17627   */\n      tag_387\n        /* \"#utility.yul\":17624:17625   */\n      0x00\n        /* \"#utility.yul\":17613:17622   */\n      dup4\n        /* \"#utility.yul\":17609:17626   */\n      add\n        /* \"#utility.yul\":17600:17606   */\n      dup5\n        /* \"#utility.yul\":17514:17627   */\n      tag_167\n      jump\t// in\n    tag_387:\n        /* \"#utility.yul\":17328:17634   */\n      swap3\n      swap2\n      pop\n      pop\n      jump\t// out\n        /* \"#utility.yul\":17640:17754   */\n    tag_168:\n        /* \"#utility.yul\":17707:17713   */\n      0x00\n        /* \"#utility.yul\":17741:17746   */\n      dup2\n        /* \"#utility.yul\":17735:17747   */\n      mload\n        /* \"#utility.yul\":17725:17747   */\n      swap1\n      pop\n        /* \"#utility.yul\":17640:17754   */\n      swap2\n      swap1\n      pop\n      jump\t// out\n        /* \"#utility.yul\":17760:17944   */\n    tag_169:\n        /* \"#utility.yul\":17859:17870   */\n      0x00\n        /* \"#utility.yul\":17893:17899   */\n      dup3\n        /* \"#utility.yul\":17888:17891   */\n      dup3\n        /* \"#utility.yul\":17881:17900   */\n      mstore\n        /* \"#utility.yul\":17933:17937   */\n      0x20\n        /* \"#utility.yul\":17928:17931   */\n      dup3\n        /* \"#utility.yul\":17924:17938   */\n      add\n        /* \"#utility.yul\":17909:17938   */\n      swap1\n      pop\n        /* \"#utility.yul\":17760:17944   */\n      swap3\n      swap2\n      pop\n      pop\n      jump\t// out\n        /* \"#utility.yul\":17950:18082   */\n    tag_170:\n        /* \"#utility.yul\":18017:18021   */\n      0x00\n        /* \"#utility.yul\":18040:18043   */\n      dup2\n        /* \"#utility.yul\":18032:18043   */\n      swap1\n      pop\n        /* \"#utility.yul\":18070:18074   */\n      0x20\n        /* \"#utility.yul\":18065:18068   */\n      dup3\n        /* \"#utility.yul\":18061:18075   */\n      add\n        /* \"#utility.yul\":18053:18075   */\n      swap1\n      pop\n        /* \"#utility.yul\":17950:18082   */\n      swap2\n      swap1\n      pop\n      jump\t// out\n        /* \"#utility.yul\":18088:18196   */\n    tag_171:\n        /* \"#utility.yul\":18165:18189   */\n      tag_392\n        /* \"#utility.yul\":18183:18188   */\n      dup2\n        /* \"#utility.yul\":18165:18189   */\n      tag_112\n      jump\t// in\n    tag_392:\n        /* \"#utility.yul\":18160:18163   */\n      dup3\n        /* \"#utility.yul\":18153:18190   */\n      mstore\n        /* \"#utility.yul\":18088:18196   */\n      pop\n      pop\n      jump\t// out\n        /* \"#utility.yul\":18202:18381   */\n    tag_172:\n        /* \"#utility.yul\":18271:18281   */\n      0x00\n        /* \"#utility.yul\":18292:18338   */\n      tag_394\n        /* \"#utility.yul\":18334:18337   */\n      dup4\n        /* \"#utility.yul\":18326:18332   */\n      dup4\n        /* \"#utility.yul\":18292:18338   */\n      tag_171\n      jump\t// in\n    tag_394:\n        /* \"#utility.yul\":18370:18374   */\n      0x20\n        /* \"#utility.yul\":18365:18368   */\n      dup4\n        /* \"#utility.yul\":18361:18375   */\n      add\n        /* \"#utility.yul\":18347:18375   */\n      swap1\n      pop\n        /* \"#utility.yul\":18202:18381   */\n      swap3\n      swap2\n      pop\n      pop\n      jump\t// out\n        /* \"#utility.yul\":18387:18500   */\n    tag_173:\n        /* \"#utility.yul\":18457:18461   */\n      0x00\n        /* \"#utility.yul\":18489:18493   */\n      0x20\n        /* \"#utility.yul\":18484:18487   */\n      dup3\n        /* \"#utility.yul\":18480:18494   */\n      add\n        /* \"#utility.yul\":18472:18494   */\n      swap1\n      pop\n        /* \"#utility.yul\":18387:18500   */\n      swap2\n      swap1\n      pop\n      jump\t// out\n        /* \"#utility.yul\":18536:19268   */\n    tag_174:\n        /* \"#utility.yul\":18655:18658   */\n      0x00\n        /* \"#utility.yul\":18684:18738   */\n      tag_397\n        /* \"#utility.yul\":18732:18737   */\n      dup3\n        /* \"#utility.yul\":18684:18738   */\n      tag_168\n      jump\t// in\n    tag_397:\n        /* \"#utility.yul\":18754:18840   */\n      tag_398\n        /* \"#utility.yul\":18833:18839   */\n      dup2\n        /* \"#utility.yul\":18828:18831   */\n      dup6\n        /* \"#utility.yul\":18754:18840   */\n      tag_169\n      jump\t// in\n    tag_398:\n        /* \"#utility.yul\":18747:18840   */\n      swap4\n      pop\n        /* \"#utility.yul\":18864:18920   */\n      tag_399\n        /* \"#utility.yul\":18914:18919   */\n      dup4\n        /* \"#utility.yul\":18864:18920   */\n      tag_170\n      jump\t// in\n    tag_399:\n        /* \"#utility.yul\":18943:18950   */\n      dup1\n        /* \"#utility.yul\":18974:18975   */\n      0x00\n        /* \"#utility.yul\":18959:19243   */\n    tag_400:\n        /* \"#utility.yul\":18984:18990   */\n      dup4\n        /* \"#utility.yul\":18981:18982   */\n      dup2\n        /* \"#utility.yul\":18978:18991   */\n      lt\n        /* \"#utility.yul\":18959:19243   */\n      iszero\n      tag_402\n      jumpi\n        /* \"#utility.yul\":19060:19066   */\n      dup2\n        /* \"#utility.yul\":19054:19067   */\n      mload\n        /* \"#utility.yul\":19087:19150   */\n      tag_403\n        /* \"#utility.yul\":19146:19149   */\n      dup9\n        /* \"#utility.yul\":19131:19144   */\n      dup3\n        /* \"#utility.yul\":19087:19150   */\n      tag_172\n      jump\t// in\n    tag_403:\n        /* \"#utility.yul\":19080:19150   */\n      swap8\n      pop\n        /* \"#utility.yul\":19173:19233   */\n      tag_404\n        /* \"#utility.yul\":19226:19232   */\n      dup4\n        /* \"#utility.yul\":19173:19233   */\n      tag_173\n      jump\t// in\n    tag_404:\n        /* \"#utility.yul\":19163:19233   */\n      swap3\n      pop\n        /* \"#utility.yul\":19019:19243   */\n      pop\n        /* \"#utility.yul\":19006:19007   */\n      0x01\n        /* \"#utility.yul\":19003:19004   */\n      dup2\n        /* \"#utility.yul\":18999:19008   */\n      add\n        /* \"#utility.yul\":18994:19008   */\n      swap1\n      pop\n        /* \"#utility.yul\":18959:19243   */\n      jump(tag_400)\n    tag_402:\n        /* \"#utility.yul\":18963:18977   */\n      pop\n        /* \"#utility.yul\":19259:19262   */\n      dup6\n        /* \"#utility.yul\":19252:19262   */\n      swap4\n      pop\n        /* \"#utility.yul\":18660:19268   */\n      pop\n      pop\n      pop\n        /* \"#utility.yul\":18536:19268   */\n      swap3\n      swap2\n      pop\n      pop\n      jump\t// out\n        /* \"#utility.yul\":19274:19443   */\n    tag_175:\n        /* \"#utility.yul\":19358:19369   */\n      0x00\n        /* \"#utility.yul\":19392:19398   */\n      dup3\n        /* \"#utility.yul\":19387:19390   */\n      dup3\n        /* \"#utility.yul\":19380:19399   */\n      mstore\n        /* \"#utility.yul\":19432:19436   */\n      0x20\n        /* \"#utility.yul\":19427:19430   */\n      dup3\n        /* \"#utility.yul\":19423:19437   */\n      add\n        /* \"#utility.yul\":19408:19437   */\n      swap1\n      pop\n        /* \"#utility.yul\":19274:19443   */\n      swap3\n      swap2\n      pop\n      pop\n      jump\t// out\n        /* \"#utility.yul\":19449:19602   */\n    tag_176:\n        /* \"#utility.yul\":19589:19594   */\n      0x6162630000000000000000000000000000000000000000000000000000000000\n        /* \"#utility.yul\":19585:19586   */\n      0x00\n        /* \"#utility.yul\":19577:19583   */\n      dup3\n        /* \"#utility.yul\":19573:19587   */\n      add\n        /* \"#utility.yul\":19566:19595   */\n      mstore\n        /* \"#utility.yul\":19449:19602   */\n      pop\n      jump\t// out\n        /* \"#utility.yul\":19608:19973   */\n    tag_177:\n        /* \"#utility.yul\":19750:19753   */\n      0x00\n        /* \"#utility.yul\":19771:19837   */\n      tag_408\n        /* \"#utility.yul\":19835:19836   */\n      0x03\n        /* \"#utility.yul\":19830:19833   */\n      dup4\n        /* \"#utility.yul\":19771:19837   */\n      tag_175\n      jump\t// in\n    tag_408:\n        /* \"#utility.yul\":19764:19837   */\n      swap2\n      pop\n        /* \"#utility.yul\":19846:19939   */\n      tag_409\n        /* \"#utility.yul\":19935:19938   */\n      dup3\n        /* \"#utility.yul\":19846:19939   */\n      tag_176\n      jump\t// in\n    tag_409:\n        /* \"#utility.yul\":19964:19966   */\n      0x20\n        /* \"#utility.yul\":19959:19962   */\n      dup3\n        /* \"#utility.yul\":19955:19967   */\n      add\n        /* \"#utility.yul\":19948:19967   */\n      swap1\n      pop\n        /* \"#utility.yul\":19608:19973   */\n      swap2\n      swap1\n      pop\n      jump\t// out\n        /* \"#utility.yul\":19979:20659   */\n    tag_82:\n        /* \"#utility.yul\":20223:20227   */\n      0x00\n        /* \"#utility.yul\":20261:20263   */\n      0x40\n        /* \"#utility.yul\":20250:20259   */\n      dup3\n        /* \"#utility.yul\":20246:20264   */\n      add\n        /* \"#utility.yul\":20238:20264   */\n      swap1\n      pop\n        /* \"#utility.yul\":20310:20319   */\n      dup2\n        /* \"#utility.yul\":20304:20308   */\n      dup2\n        /* \"#utility.yul\":20300:20320   */\n      sub\n        /* \"#utility.yul\":20296:20297   */\n      0x00\n        /* \"#utility.yul\":20285:20294   */\n      dup4\n        /* \"#utility.yul\":20281:20298   */\n      add\n        /* \"#utility.yul\":20274:20321   */\n      mstore\n        /* \"#utility.yul\":20338:20446   */\n      tag_411\n        /* \"#utility.yul\":20441:20445   */\n      dup2\n        /* \"#utility.yul\":20432:20438   */\n      dup5\n        /* \"#utility.yul\":20338:20446   */\n      tag_174\n      jump\t// in\n    tag_411:\n        /* \"#utility.yul\":20330:20446   */\n      swap1\n      pop\n        /* \"#utility.yul\":20493:20502   */\n      dup2\n        /* \"#utility.yul\":20487:20491   */\n      dup2\n        /* \"#utility.yul\":20483:20503   */\n      sub\n        /* \"#utility.yul\":20478:20480   */\n      0x20\n        /* \"#utility.yul\":20467:20476   */\n      dup4\n        /* \"#utility.yul\":20463:20481   */\n      add\n        /* \"#utility.yul\":20456:20504   */\n      mstore\n        /* \"#utility.yul\":20521:20652   */\n      tag_412\n        /* \"#utility.yul\":20647:20651   */\n      dup2\n        /* \"#utility.yul\":20521:20652   */\n      tag_177\n      jump\t// in\n    tag_412:\n        /* \"#utility.yul\":20513:20652   */\n      swap1\n      pop\n        /* \"#utility.yul\":19979:20659   */\n      swap3\n      swap2\n      pop\n      pop\n      jump\t// out\n        /* \"#utility.yul\":20665:20783   */\n    tag_178:\n        /* \"#utility.yul\":20752:20776   */\n      tag_414\n        /* \"#utility.yul\":20770:20775   */\n      dup2\n        /* \"#utility.yul\":20752:20776   */\n      tag_119\n      jump\t// in\n    tag_414:\n        /* \"#utility.yul\":20747:20750   */\n      dup3\n        /* \"#utility.yul\":20740:20777   */\n      mstore\n        /* \"#utility.yul\":20665:20783   */\n      pop\n      pop\n      jump\t// out\n        /* \"#utility.yul\":20789:20947   */\n    tag_179:\n        /* \"#utility.yul\":20862:20873   */\n      0x00\n        /* \"#utility.yul\":20896:20902   */\n      dup3\n        /* \"#utility.yul\":20891:20894   */\n      dup3\n        /* \"#utility.yul\":20884:20903   */\n      mstore\n        /* \"#utility.yul\":20936:20940   */\n      0x20\n        /* \"#utility.yul\":20931:20934   */\n      dup3\n        /* \"#utility.yul\":20927:20941   */\n      add\n        /* \"#utility.yul\":20912:20941   */\n      swap1\n      pop\n        /* \"#utility.yul\":20789:20947   */\n      swap3\n      swap2\n      pop\n      pop\n      jump\t// out\n        /* \"#utility.yul\":20953:21306   */\n    tag_180:\n        /* \"#utility.yul\":21029:21032   */\n      0x00\n        /* \"#utility.yul\":21057:21095   */\n      tag_417\n        /* \"#utility.yul\":21089:21094   */\n      dup3\n        /* \"#utility.yul\":21057:21095   */\n      tag_149\n      jump\t// in\n    tag_417:\n        /* \"#utility.yul\":21111:21171   */\n      tag_418\n        /* \"#utility.yul\":21164:21170   */\n      dup2\n        /* \"#utility.yul\":21159:21162   */\n      dup6\n        /* \"#utility.yul\":21111:21171   */\n      tag_179\n      jump\t// in\n    tag_418:\n        /* \"#utility.yul\":21104:21171   */\n      swap4\n      pop\n        /* \"#utility.yul\":21180:21245   */\n      tag_419\n        /* \"#utility.yul\":21238:21244   */\n      dup2\n        /* \"#utility.yul\":21233:21236   */\n      dup6\n        /* \"#utility.yul\":21226:21230   */\n      0x20\n        /* \"#utility.yul\":21219:21224   */\n      dup7\n        /* \"#utility.yul\":21215:21231   */\n      add\n        /* \"#utility.yul\":21180:21245   */\n      tag_151\n      jump\t// in\n    tag_419:\n        /* \"#utility.yul\":21270:21299   */\n      tag_420\n        /* \"#utility.yul\":21292:21298   */\n      dup2\n        /* \"#utility.yul\":21270:21299   */\n      tag_126\n      jump\t// in\n    tag_420:\n        /* \"#utility.yul\":21265:21268   */\n      dup5\n        /* \"#utility.yul\":21261:21300   */\n      add\n        /* \"#utility.yul\":21254:21300   */\n      swap2\n      pop\n        /* \"#utility.yul\":21033:21306   */\n      pop\n        /* \"#utility.yul\":20953:21306   */\n      swap3\n      swap2\n      pop\n      pop\n      jump\t// out\n        /* \"#utility.yul\":21370:21963   */\n    tag_181:\n        /* \"#utility.yul\":21479:21482   */\n      0x00\n        /* \"#utility.yul\":21515:21519   */\n      0x40\n        /* \"#utility.yul\":21510:21513   */\n      dup4\n        /* \"#utility.yul\":21506:21520   */\n      add\n        /* \"#utility.yul\":21601:21605   */\n      0x00\n        /* \"#utility.yul\":21594:21599   */\n      dup4\n        /* \"#utility.yul\":21590:21606   */\n      add\n        /* \"#utility.yul\":21584:21607   */\n      mload\n        /* \"#utility.yul\":21620:21683   */\n      tag_422\n        /* \"#utility.yul\":21677:21681   */\n      0x00\n        /* \"#utility.yul\":21672:21675   */\n      dup7\n        /* \"#utility.yul\":21668:21682   */\n      add\n        /* \"#utility.yul\":21654:21666   */\n      dup3\n        /* \"#utility.yul\":21620:21683   */\n      tag_171\n      jump\t// in\n    tag_422:\n        /* \"#utility.yul\":21530:21693   */\n      pop\n        /* \"#utility.yul\":21775:21779   */\n      0x20\n        /* \"#utility.yul\":21768:21773   */\n      dup4\n        /* \"#utility.yul\":21764:21780   */\n      add\n        /* \"#utility.yul\":21758:21781   */\n      mload\n        /* \"#utility.yul\":21828:21831   */\n      dup5\n        /* \"#utility.yul\":21822:21826   */\n      dup3\n        /* \"#utility.yul\":21818:21832   */\n      sub\n        /* \"#utility.yul\":21811:21815   */\n      0x20\n        /* \"#utility.yul\":21806:21809   */\n      dup7\n        /* \"#utility.yul\":21802:21816   */\n      add\n        /* \"#utility.yul\":21795:21833   */\n      mstore\n        /* \"#utility.yul\":21854:21925   */\n      tag_423\n        /* \"#utility.yul\":21920:21924   */\n      dup3\n        /* \"#utility.yul\":21906:21918   */\n      dup3\n        /* \"#utility.yul\":21854:21925   */\n      tag_180\n      jump\t// in\n    tag_423:\n        /* \"#utility.yul\":21846:21925   */\n      swap2\n      pop\n        /* \"#utility.yul\":21703:21936   */\n      pop\n        /* \"#utility.yul\":21953:21957   */\n      dup1\n        /* \"#utility.yul\":21946:21957   */\n      swap2\n      pop\n        /* \"#utility.yul\":21484:21963   */\n      pop\n        /* \"#utility.yul\":21370:21963   */\n      swap3\n      swap2\n      pop\n      pop\n      jump\t// out\n        /* \"#utility.yul\":21969:22816   */\n    tag_88:\n        /* \"#utility.yul\":22242:22246   */\n      0x00\n        /* \"#utility.yul\":22280:22283   */\n      0x80\n        /* \"#utility.yul\":22269:22278   */\n      dup3\n        /* \"#utility.yul\":22265:22284   */\n      add\n        /* \"#utility.yul\":22257:22284   */\n      swap1\n      pop\n        /* \"#utility.yul\":22294:22365   */\n      tag_425\n        /* \"#utility.yul\":22362:22363   */\n      0x00\n        /* \"#utility.yul\":22351:22360   */\n      dup4\n        /* \"#utility.yul\":22347:22364   */\n      add\n        /* \"#utility.yul\":22338:22344   */\n      dup8\n        /* \"#utility.yul\":22294:22365   */\n      tag_178\n      jump\t// in\n    tag_425:\n        /* \"#utility.yul\":22412:22421   */\n      dup2\n        /* \"#utility.yul\":22406:22410   */\n      dup2\n        /* \"#utility.yul\":22402:22422   */\n      sub\n        /* \"#utility.yul\":22397:22399   */\n      0x20\n        /* \"#utility.yul\":22386:22395   */\n      dup4\n        /* \"#utility.yul\":22382:22400   */\n      add\n        /* \"#utility.yul\":22375:22423   */\n      mstore\n        /* \"#utility.yul\":22440:22538   */\n      tag_426\n        /* \"#utility.yul\":22533:22537   */\n      dup2\n        /* \"#utility.yul\":22524:22530   */\n      dup7\n        /* \"#utility.yul\":22440:22538   */\n      tag_181\n      jump\t// in\n    tag_426:\n        /* \"#utility.yul\":22432:22538   */\n      swap1\n      pop\n        /* \"#utility.yul\":22585:22594   */\n      dup2\n        /* \"#utility.yul\":22579:22583   */\n      dup2\n        /* \"#utility.yul\":22575:22595   */\n      sub\n        /* \"#utility.yul\":22570:22572   */\n      0x40\n        /* \"#utility.yul\":22559:22568   */\n      dup4\n        /* \"#utility.yul\":22555:22573   */\n      add\n        /* \"#utility.yul\":22548:22596   */\n      mstore\n        /* \"#utility.yul\":22613:22721   */\n      tag_427\n        /* \"#utility.yul\":22716:22720   */\n      dup2\n        /* \"#utility.yul\":22707:22713   */\n      dup6\n        /* \"#utility.yul\":22613:22721   */\n      tag_174\n      jump\t// in\n    tag_427:\n        /* \"#utility.yul\":22605:22721   */\n      swap1\n      pop\n        /* \"#utility.yul\":22731:22809   */\n      tag_428\n        /* \"#utility.yul\":22805:22807   */\n      0x60\n        /* \"#utility.yul\":22794:22803   */\n      dup4\n        /* \"#utility.yul\":22790:22808   */\n      add\n        /* \"#utility.yul\":22781:22787   */\n      dup5\n        /* \"#utility.yul\":22731:22809   */\n      tag_157\n      jump\t// in\n    tag_428:\n        /* \"#utility.yul\":21969:22816   */\n      swap6\n      swap5\n      pop\n      pop\n      pop\n      pop\n      pop\n      jump\t// out\n        /* \"#utility.yul\":22822:22990   */\n    tag_182:\n        /* \"#utility.yul\":22905:22916   */\n      0x00\n        /* \"#utility.yul\":22939:22945   */\n      dup3\n        /* \"#utility.yul\":22934:22937   */\n      dup3\n        /* \"#utility.yul\":22927:22946   */\n      mstore\n        /* \"#utility.yul\":22979:22983   */\n      0x20\n        /* \"#utility.yul\":22974:22977   */\n      dup3\n        /* \"#utility.yul\":22970:22984   */\n      add\n        /* \"#utility.yul\":22955:22984   */\n      swap1\n      pop\n        /* \"#utility.yul\":22822:22990   */\n      swap3\n      swap2\n      pop\n      pop\n      jump\t// out\n        /* \"#utility.yul\":23018:23332   */\n    tag_183:\n        /* \"#utility.yul\":23114:23117   */\n      0x00\n        /* \"#utility.yul\":23135:23205   */\n      tag_431\n        /* \"#utility.yul\":23198:23204   */\n      dup4\n        /* \"#utility.yul\":23193:23196   */\n      dup6\n        /* \"#utility.yul\":23135:23205   */\n      tag_182\n      jump\t// in\n    tag_431:\n        /* \"#utility.yul\":23128:23205   */\n      swap4\n      pop\n        /* \"#utility.yul\":23215:23271   */\n      tag_432\n        /* \"#utility.yul\":23264:23270   */\n      dup4\n        /* \"#utility.yul\":23259:23262   */\n      dup6\n        /* \"#utility.yul\":23252:23257   */\n      dup5\n        /* \"#utility.yul\":23215:23271   */\n      tag_133\n      jump\t// in\n    tag_432:\n        /* \"#utility.yul\":23296:23325   */\n      tag_433\n        /* \"#utility.yul\":23318:23324   */\n      dup4\n        /* \"#utility.yul\":23296:23325   */\n      tag_126\n      jump\t// in\n    tag_433:\n        /* \"#utility.yul\":23291:23294   */\n      dup5\n        /* \"#utility.yul\":23287:23326   */\n      add\n        /* \"#utility.yul\":23280:23326   */\n      swap1\n      pop\n        /* \"#utility.yul\":23018:23332   */\n      swap4\n      swap3\n      pop\n      pop\n      pop\n      jump\t// out\n        /* \"#utility.yul\":23338:23667   */\n    tag_100:\n        /* \"#utility.yul\":23459:23463   */\n      0x00\n        /* \"#utility.yul\":23497:23499   */\n      0x20\n        /* \"#utility.yul\":23486:23495   */\n      dup3\n        /* \"#utility.yul\":23482:23500   */\n      add\n        /* \"#utility.yul\":23474:23500   */\n      swap1\n      pop\n        /* \"#utility.yul\":23546:23555   */\n      dup2\n        /* \"#utility.yul\":23540:23544   */\n      dup2\n        /* \"#utility.yul\":23536:23556   */\n      sub\n        /* \"#utility.yul\":23532:23533   */\n      0x00\n        /* \"#utility.yul\":23521:23530   */\n      dup4\n        /* \"#utility.yul\":23517:23534   */\n      add\n        /* \"#utility.yul\":23510:23557   */\n      mstore\n        /* \"#utility.yul\":23574:23660   */\n      tag_435\n        /* \"#utility.yul\":23655:23659   */\n      dup2\n        /* \"#utility.yul\":23646:23652   */\n      dup5\n        /* \"#utility.yul\":23638:23644   */\n      dup7\n        /* \"#utility.yul\":23574:23660   */\n      tag_183\n      jump\t// in\n    tag_435:\n        /* \"#utility.yul\":23566:23660   */\n      swap1\n      pop\n        /* \"#utility.yul\":23338:23667   */\n      swap4\n      swap3\n      pop\n      pop\n      pop\n      jump\t// out\n\n    auxdata: 0xa26469706673582212205b33e5825e1630b2950f3f9bfba87d676054aa5924aab0a1be56fb8001171fc764736f6c63430008190033\n}\n",
				"bytecode": {
					"linkReferences": {},
					"object": "6080604052348015600e575f80fd5b506115068061001c5f395ff3fe608060405234801561000f575f80fd5b5060043610610086575f3560e01c80636a627842116100595780636a62784214610100578063e355b0ce1461011c578063ead6b8bd1461014c578063f0ca01de1461017c57610086565b8063038179361461008a578063046dab16146100a85780633ec37834146100c657806359ebea23146100f6575b5f80fd5b6100926101ac565b60405161009f919061099e565b60405180910390f35b6100b0610211565b6040516100bd919061099e565b60405180910390f35b6100e060048036038101906100db9190610a30565b610238565b6040516100ed919061099e565b60405180910390f35b6100fe6102a0565b005b61011a60048036038101906101159190610ac8565b6107d6565b005b61013660048036038101906101319190610dc2565b610812565b604051610143919061099e565b60405180910390f35b61016660048036038101906101619190610f0c565b61087c565b604051610173919061099e565b60405180910390f35b61019660048036038101906101919190610fd5565b6108e3565b6040516101a3919061099e565b60405180910390f35b5f7f87c76683e354abe8640b03c72d02c9175d9a00a6c0101d5bc4be081b9b8199eb630381793660e01b6040516101e3919061099e565b60405180910390a17f038179367d802aca924f17568b786520678fa7955b6cd468a00dd90b7cfbab40905090565b5f7f6a627842f752de95745ef8f3ca67858982b5f585d752f8163e5855050041cb3c905090565b5f7f87c76683e354abe8640b03c72d02c9175d9a00a6c0101d5bc4be081b9b8199eb633ec3783460e01b60405161026f919061099e565b60405180910390a17f3ec3783488bfc90ed98dc398cd67f30f42b252c8ce7d59a4dce63a149c452548905092915050565b5f600367ffffffffffffffff8111156102bc576102bb610b42565b5b6040519080825280602002602001820160405280156102ea5781602001602082028036833780820191505090505b5090506001815f815181106103025761030161104b565b5b6020026020010181815250506002816001815181106103245761032361104b565b5b6020026020010181815250506003816002815181106103465761034561104b565b5b60200260200101818152505061035a61094b565b6001815f0181815250506040518060400160405280600681526020017f307861306231000000000000000000000000000000000000000000000000000081525081602001819052505f803073ffffffffffffffffffffffffffffffffffffffff1663038179366040516024016040516020818303038152906040529060e01b6020820180517bffffffffffffffffffffffffffffffffffffffffffffffffffffffff838183161783525050505060405161041491906110ca565b5f604051808303815f865af19150503d805f811461044d576040519150601f19603f3d011682016040523d82523d5f602084013e610452565b606091505b50915091505f803073ffffffffffffffffffffffffffffffffffffffff16633ec3783460015f604051602401610489929190611167565b6040516020818303038152906040529060e01b6020820180517bffffffffffffffffffffffffffffffffffffffffffffffffffffffff83818316178352505050506040516104d791906110ca565b5f604051808303815f865af19150503d805f8114610510576040519150601f19603f3d011682016040523d82523d5f602084013e610515565b606091505b50915091505f803073ffffffffffffffffffffffffffffffffffffffff1663ead6b8bd6040518060600160405280600160ff168152602001600260ff168152602001600360ff1681525060405160240161056f9190611233565b6040516020818303038152906040529060e01b6020820180517bffffffffffffffffffffffffffffffffffffffffffffffffffffffff83818316178352505050506040516105bd91906110ca565b5f604051808303815f865af19150503d805f81146105f6576040519150601f19603f3d011682016040523d82523d5f602084013e6105fb565b606091505b50915091505f803073ffffffffffffffffffffffffffffffffffffffff1663f0ca01de8b60405160240161062f919061135d565b6040516020818303038152906040529060e01b6020820180517bffffffffffffffffffffffffffffffffffffffffffffffffffffffff838183161783525050505060405161067d91906110ca565b5f604051808303815f865af19150503d805f81146106b6576040519150601f19603f3d011682016040523d82523d5f602084013e6106bb565b606091505b50915091505f803073ffffffffffffffffffffffffffffffffffffffff1663e355b0ce739d7f74d0c41e726ec95884e0e97fa6129e3b5e998d8f600160405160240161070a9493929190611421565b6040516020818303038152906040529060e01b6020820180517bffffffffffffffffffffffffffffffffffffffffffffffffffffffff838183161783525050505060405161075891906110ca565b5f604051808303815f865af19150503d805f8114610791576040519150601f19603f3d011682016040523d82523d5f602084013e610796565b606091505b50915091508980156107a55750875b80156107ae5750855b80156107b75750835b80156107c05750815b6107c8575f80fd5b505050505050505050505050565b7fafabcf2dd47e06a477a89e49c03f8ebe8e0a7e94f775b25bbb24227c9d0110b25f366040516108079291906114ae565b60405180910390a150565b5f7f87c76683e354abe8640b03c72d02c9175d9a00a6c0101d5bc4be081b9b8199eb63e355b0ce60e01b604051610849919061099e565b60405180910390a17fe355b0ceecdc5a85bc460808aed3b4d8eaa7935dbf79d2db6ffcf71e5c3525769050949350505050565b5f7f87c76683e354abe8640b03c72d02c9175d9a00a6c0101d5bc4be081b9b8199eb63ead6b8bd60e01b6040516108b3919061099e565b60405180910390a17fead6b8bdece33532847146a6fe63967e794ef7c18f3b888ae6fb3aebb4ef1b959050919050565b5f7f87c76683e354abe8640b03c72d02c9175d9a00a6c0101d5bc4be081b9b8199eb63f0ca01de60e01b60405161091a919061099e565b60405180910390a17ff0ca01de95639524000d6ff4e9309b96c7f67f7961bf24b33f8b20e85f6ad977905092915050565b60405180604001604052805f8152602001606081525090565b5f7fffffffff0000000000000000000000000000000000000000000000000000000082169050919050565b61099881610964565b82525050565b5f6020820190506109b15f83018461098f565b92915050565b5f604051905090565b5f80fd5b5f80fd5b5f819050919050565b6109da816109c8565b81146109e4575f80fd5b50565b5f813590506109f5816109d1565b92915050565b5f8115159050919050565b610a0f816109fb565b8114610a19575f80fd5b50565b5f81359050610a2a81610a06565b92915050565b5f8060408385031215610a4657610a456109c0565b5b5f610a53858286016109e7565b9250506020610a6485828601610a1c565b9150509250929050565b5f73ffffffffffffffffffffffffffffffffffffffff82169050919050565b5f610a9782610a6e565b9050919050565b610aa781610a8d565b8114610ab1575f80fd5b50565b5f81359050610ac281610a9e565b92915050565b5f60208284031215610add57610adc6109c0565b5b5f610aea84828501610ab4565b91505092915050565b5f610afd82610a8d565b9050919050565b610b0d81610af3565b8114610b17575f80fd5b50565b5f81359050610b2881610b04565b92915050565b5f80fd5b5f601f19601f8301169050919050565b7f4e487b71000000000000000000000000000000000000000000000000000000005f52604160045260245ffd5b610b7882610b32565b810181811067ffffffffffffffff82111715610b9757610b96610b42565b5b80604052505050565b5f610ba96109b7565b9050610bb58282610b6f565b919050565b5f80fd5b5f80fd5b5f80fd5b5f67ffffffffffffffff821115610be057610bdf610b42565b5b610be982610b32565b9050602081019050919050565b828183375f83830152505050565b5f610c16610c1184610bc6565b610ba0565b905082815260208101848484011115610c3257610c31610bc2565b5b610c3d848285610bf6565b509392505050565b5f82601f830112610c5957610c58610bbe565b5b8135610c69848260208601610c04565b91505092915050565b5f60408284031215610c8757610c86610b2e565b5b610c916040610ba0565b90505f610ca0848285016109e7565b5f83015250602082013567ffffffffffffffff811115610cc357610cc2610bba565b5b610ccf84828501610c45565b60208301525092915050565b5f67ffffffffffffffff821115610cf557610cf4610b42565b5b602082029050602081019050919050565b5f80fd5b5f610d1c610d1784610cdb565b610ba0565b90508083825260208201905060208402830185811115610d3f57610d3e610d06565b5b835b81811015610d685780610d5488826109e7565b845260208401935050602081019050610d41565b5050509392505050565b5f82601f830112610d8657610d85610bbe565b5b8135610d96848260208601610d0a565b91505092915050565b60038110610dab575f80fd5b50565b5f81359050610dbc81610d9f565b92915050565b5f805f8060808587031215610dda57610dd96109c0565b5b5f610de787828801610b1a565b945050602085013567ffffffffffffffff811115610e0857610e076109c4565b5b610e1487828801610c72565b935050604085013567ffffffffffffffff811115610e3557610e346109c4565b5b610e4187828801610d72565b9250506060610e5287828801610dae565b91505092959194509250565b5f67ffffffffffffffff821115610e7857610e77610b42565b5b602082029050919050565b5f610e95610e9084610e5e565b610ba0565b90508060208402830185811115610eaf57610eae610d06565b5b835b81811015610ed85780610ec488826109e7565b845260208401935050602081019050610eb1565b5050509392505050565b5f82601f830112610ef657610ef5610bbe565b5b6003610f03848285610e83565b91505092915050565b5f60608284031215610f2157610f206109c0565b5b5f610f2e84828501610ee2565b91505092915050565b5f67ffffffffffffffff821115610f5157610f50610b42565b5b610f5a82610b32565b9050602081019050919050565b5f610f79610f7484610f37565b610ba0565b905082815260208101848484011115610f9557610f94610bc2565b5b610fa0848285610bf6565b509392505050565b5f82601f830112610fbc57610fbb610bbe565b5b8135610fcc848260208601610f67565b91505092915050565b5f8060408385031215610feb57610fea6109c0565b5b5f83013567ffffffffffffffff811115611008576110076109c4565b5b61101485828601610d72565b925050602083013567ffffffffffffffff811115611035576110346109c4565b5b61104185828601610fa8565b9150509250929050565b7f4e487b71000000000000000000000000000000000000000000000000000000005f52603260045260245ffd5b5f81519050919050565b5f81905092915050565b8281835e5f83830152505050565b5f6110a482611078565b6110ae8185611082565b93506110be81856020860161108c565b80840191505092915050565b5f6110d5828461109a565b915081905092915050565b5f819050919050565b5f60ff82169050919050565b5f819050919050565b5f61111861111361110e846110e0565b6110f5565b6110e9565b9050919050565b611128816110fe565b82525050565b5f819050919050565b5f61115161114c6111478461112e565b6110f5565b6110e9565b9050919050565b61116181611137565b82525050565b5f60408201905061117a5f83018561111f565b6111876020830184611158565b9392505050565b5f60039050919050565b5f81905092915050565b5f819050919050565b6111b4816110e9565b82525050565b5f6111c583836111ab565b60208301905092915050565b5f602082019050919050565b6111e68161118e565b6111f08184611198565b92506111fb826111a2565b805f5b8381101561122b57815161121287826111ba565b965061121d836111d1565b9250506001810190506111fe565b505050505050565b5f6060820190506112465f8301846111dd565b92915050565b5f81519050919050565b5f82825260208201905092915050565b5f819050602082019050919050565b61127e816109c8565b82525050565b5f61128f8383611275565b60208301905092915050565b5f602082019050919050565b5f6112b18261124c565b6112bb8185611256565b93506112c683611266565b805f5b838110156112f65781516112dd8882611284565b97506112e88361129b565b9250506001810190506112c9565b5085935050505092915050565b5f82825260208201905092915050565b7f61626300000000000000000000000000000000000000000000000000000000005f82015250565b5f611347600383611303565b915061135282611313565b602082019050919050565b5f6040820190508181035f83015261137581846112a7565b905081810360208301526113888161133b565b905092915050565b61139981610a8d565b82525050565b5f82825260208201905092915050565b5f6113b982611078565b6113c3818561139f565b93506113d381856020860161108c565b6113dc81610b32565b840191505092915050565b5f604083015f8301516113fc5f860182611275565b506020830151848203602086015261141482826113af565b9150508091505092915050565b5f6080820190506114345f830187611390565b818103602083015261144681866113e7565b9050818103604083015261145a81856112a7565b9050611469606083018461111f565b95945050505050565b5f82825260208201905092915050565b5f61148d8385611472565b935061149a838584610bf6565b6114a383610b32565b840190509392505050565b5f6020820190508181035f8301526114c7818486611482565b9050939250505056fea26469706673582212205b33e5825e1630b2950f3f9bfba87d676054aa5924aab0a1be56fb8001171fc764736f6c63430008190033",
					"opcodes": "PUSH1 0x80 PUSH1 0x40 MSTORE CALLVALUE DUP1 ISZERO PUSH1 0xE JUMPI PUSH0 DUP1 REVERT JUMPDEST POP PUSH2 0x1506 DUP1 PUSH2 0x1C PUSH0 CODECOPY PUSH0 RETURN INVALID PUSH1 0x80 PUSH1 0x40 MSTORE CALLVALUE DUP1 ISZERO PUSH2 0xF JUMPI PUSH0 DUP1 REVERT JUMPDEST POP PUSH1 0x4 CALLDATASIZE LT PUSH2 0x86 JUMPI PUSH0 CALLDATALOAD PUSH1 0xE0 SHR DUP1 PUSH4 0x6A627842 GT PUSH2 0x59 JUMPI DUP1 PUSH4 0x6A627842 EQ PUSH2 0x100 JUMPI DUP1 PUSH4 0xE355B0CE EQ PUSH2 0x11C JUMPI DUP1 PUSH4 0xEAD6B8BD EQ PUSH2 0x14C JUMPI DUP1 PUSH4 0xF0CA01DE EQ PUSH2 0x17C JUMPI PUSH2 0x86 JUMP JUMPDEST DUP1 PUSH4 0x3817936 EQ PUSH2 0x8A JUMPI DUP1 PUSH4 0x46DAB16 EQ PUSH2 0xA8 JUMPI DUP1 PUSH4 0x3EC37834 EQ PUSH2 0xC6 JUMPI DUP1 PUSH4 0x59EBEA23 EQ PUSH2 0xF6 JUMPI JUMPDEST PUSH0 DUP1 REVERT JUMPDEST PUSH2 0x92 PUSH2 0x1AC JUMP JUMPDEST PUSH1 0x40 MLOAD PUSH2 0x9F SWAP2 SWAP1 PUSH2 0x99E JUMP JUMPDEST PUSH1 0x40 MLOAD DUP1 SWAP2 SUB SWAP1 RETURN JUMPDEST PUSH2 0xB0 PUSH2 0x211 JUMP JUMPDEST PUSH1 0x40 MLOAD PUSH2 0xBD SWAP2 SWAP1 PUSH2 0x99E JUMP JUMPDEST PUSH1 0x40 MLOAD DUP1 SWAP2 SUB SWAP1 RETURN JUMPDEST PUSH2 0xE0 PUSH1 0x4 DUP1 CALLDATASIZE SUB DUP2 ADD SWAP1 PUSH2 0xDB SWAP2 SWAP1 PUSH2 0xA30 JUMP JUMPDEST PUSH2 0x238 JUMP JUMPDEST PUSH1 0x40 MLOAD PUSH2 0xED SWAP2 SWAP1 PUSH2 0x99E JUMP JUMPDEST PUSH1 0x40 MLOAD DUP1 SWAP2 SUB SWAP1 RETURN JUMPDEST PUSH2 0xFE PUSH2 0x2A0 JUMP JUMPDEST STOP JUMPDEST PUSH2 0x11A PUSH1 0x4 DUP1 CALLDATASIZE SUB DUP2 ADD SWAP1 PUSH2 0x115 SWAP2 SWAP1 PUSH2 0xAC8 JUMP JUMPDEST PUSH2 0x7D6 JUMP JUMPDEST STOP JUMPDEST PUSH2 0x136 PUSH1 0x4 DUP1 CALLDATASIZE SUB DUP2 ADD SWAP1 PUSH2 0x131 SWAP2 SWAP1 PUSH2 0xDC2 JUMP JUMPDEST PUSH2 0x812 JUMP JUMPDEST PUSH1 0x40 MLOAD PUSH2 0x143 SWAP2 SWAP1 PUSH2 0x99E JUMP JUMPDEST PUSH1 0x40 MLOAD DUP1 SWAP2 SUB SWAP1 RETURN JUMPDEST PUSH2 0x166 PUSH1 0x4 DUP1 CALLDATASIZE SUB DUP2 ADD SWAP1 PUSH2 0x161 SWAP2 SWAP1 PUSH2 0xF0C JUMP JUMPDEST PUSH2 0x87C JUMP JUMPDEST PUSH1 0x40 MLOAD PUSH2 0x173 SWAP2 SWAP1 PUSH2 0x99E JUMP JUMPDEST PUSH1 0x40 MLOAD DUP1 SWAP2 SUB SWAP1 RETURN JUMPDEST PUSH2 0x196 PUSH1 0x4 DUP1 CALLDATASIZE SUB DUP2 ADD SWAP1 PUSH2 0x191 SWAP2 SWAP1 PUSH2 0xFD5 JUMP JUMPDEST PUSH2 0x8E3 JUMP JUMPDEST PUSH1 0x40 MLOAD PUSH2 0x1A3 SWAP2 SWAP1 PUSH2 0x99E JUMP JUMPDEST PUSH1 0x40 MLOAD DUP1 SWAP2 SUB SWAP1 RETURN JUMPDEST PUSH0 PUSH32 0x87C76683E354ABE8640B03C72D02C9175D9A00A6C0101D5BC4BE081B9B8199EB PUSH4 0x3817936 PUSH1 0xE0 SHL PUSH1 0x40 MLOAD PUSH2 0x1E3 SWAP2 SWAP1 PUSH2 0x99E JUMP JUMPDEST PUSH1 0x40 MLOAD DUP1 SWAP2 SUB SWAP1 LOG1 PUSH32 0x38179367D802ACA924F17568B786520678FA7955B6CD468A00DD90B7CFBAB40 SWAP1 POP SWAP1 JUMP JUMPDEST PUSH0 PUSH32 0x6A627842F752DE95745EF8F3CA67858982B5F585D752F8163E5855050041CB3C SWAP1 POP SWAP1 JUMP JUMPDEST PUSH0 PUSH32 0x87C76683E354ABE8640B03C72D02C9175D9A00A6C0101D5BC4BE081B9B8199EB PUSH4 0x3EC37834 PUSH1 0xE0 SHL PUSH1 0x40 MLOAD PUSH2 0x26F SWAP2 SWAP1 PUSH2 0x99E JUMP JUMPDEST PUSH1 0x40 MLOAD DUP1 SWAP2 SUB SWAP1 LOG1 PUSH32 0x3EC3783488BFC90ED98DC398CD67F30F42B252C8CE7D59A4DCE63A149C452548 SWAP1 POP SWAP3 SWAP2 POP POP JUMP JUMPDEST PUSH0 PUSH1 0x3 PUSH8 0xFFFFFFFFFFFFFFFF DUP2 GT ISZERO PUSH2 0x2BC JUMPI PUSH2 0x2BB PUSH2 0xB42 JUMP JUMPDEST JUMPDEST PUSH1 0x40 MLOAD SWAP1 DUP1 DUP3 MSTORE DUP1 PUSH1 0x20 MUL PUSH1 0x20 ADD DUP3 ADD PUSH1 0x40 MSTORE DUP1 ISZERO PUSH2 0x2EA JUMPI DUP2 PUSH1 0x20 ADD PUSH1 0x20 DUP3 MUL DUP1 CALLDATASIZE DUP4 CALLDATACOPY DUP1 DUP3 ADD SWAP2 POP POP SWAP1 POP JUMPDEST POP SWAP1 POP PUSH1 0x1 DUP2 PUSH0 DUP2 MLOAD DUP2 LT PUSH2 0x302 JUMPI PUSH2 0x301 PUSH2 0x104B JUMP JUMPDEST JUMPDEST PUSH1 0x20 MUL PUSH1 0x20 ADD ADD DUP2 DUP2 MSTORE POP POP PUSH1 0x2 DUP2 PUSH1 0x1 DUP2 MLOAD DUP2 LT PUSH2 0x324 JUMPI PUSH2 0x323 PUSH2 0x104B JUMP JUMPDEST JUMPDEST PUSH1 0x20 MUL PUSH1 0x20 ADD ADD DUP2 DUP2 MSTORE POP POP PUSH1 0x3 DUP2 PUSH1 0x2 DUP2 MLOAD DUP2 LT PUSH2 0x346 JUMPI PUSH2 0x345 PUSH2 0x104B JUMP JUMPDEST JUMPDEST PUSH1 0x20 MUL PUSH1 0x20 ADD ADD DUP2 DUP2 MSTORE POP POP PUSH2 0x35A PUSH2 0x94B JUMP JUMPDEST PUSH1 0x1 DUP2 PUSH0 ADD DUP2 DUP2 MSTORE POP POP PUSH1 0x40 MLOAD DUP1 PUSH1 0x40 ADD PUSH1 0x40 MSTORE DUP1 PUSH1 0x6 DUP2 MSTORE PUSH1 0x20 ADD PUSH32 0x3078613062310000000000000000000000000000000000000000000000000000 DUP2 MSTORE POP DUP2 PUSH1 0x20 ADD DUP2 SWAP1 MSTORE POP PUSH0 DUP1 ADDRESS PUSH20 0xFFFFFFFFFFFFFFFFFFFFFFFFFFFFFFFFFFFFFFFF AND PUSH4 0x3817936 PUSH1 0x40 MLOAD PUSH1 0x24 ADD PUSH1 0x40 MLOAD PUSH1 0x20 DUP2 DUP4 SUB SUB DUP2 MSTORE SWAP1 PUSH1 0x40 MSTORE SWAP1 PUSH1 0xE0 SHL PUSH1 0x20 DUP3 ADD DUP1 MLOAD PUSH28 0xFFFFFFFFFFFFFFFFFFFFFFFFFFFFFFFFFFFFFFFFFFFFFFFFFFFFFFFF DUP4 DUP2 DUP4 AND OR DUP4 MSTORE POP POP POP POP PUSH1 0x40 MLOAD PUSH2 0x414 SWAP2 SWAP1 PUSH2 0x10CA JUMP JUMPDEST PUSH0 PUSH1 0x40 MLOAD DUP1 DUP4 SUB DUP2 PUSH0 DUP7 GAS CALL SWAP2 POP POP RETURNDATASIZE DUP1 PUSH0 DUP2 EQ PUSH2 0x44D JUMPI PUSH1 0x40 MLOAD SWAP2 POP PUSH1 0x1F NOT PUSH1 0x3F RETURNDATASIZE ADD AND DUP3 ADD PUSH1 0x40 MSTORE RETURNDATASIZE DUP3 MSTORE RETURNDATASIZE PUSH0 PUSH1 0x20 DUP5 ADD RETURNDATACOPY PUSH2 0x452 JUMP JUMPDEST PUSH1 0x60 SWAP2 POP JUMPDEST POP SWAP2 POP SWAP2 POP PUSH0 DUP1 ADDRESS PUSH20 0xFFFFFFFFFFFFFFFFFFFFFFFFFFFFFFFFFFFFFFFF AND PUSH4 0x3EC37834 PUSH1 0x1 PUSH0 PUSH1 0x40 MLOAD PUSH1 0x24 ADD PUSH2 0x489 SWAP3 SWAP2 SWAP1 PUSH2 0x1167 JUMP JUMPDEST PUSH1 0x40 MLOAD PUSH1 0x20 DUP2 DUP4 SUB SUB DUP2 MSTORE SWAP1 PUSH1 0x40 MSTORE SWAP1 PUSH1 0xE0 SHL PUSH1 0x20 DUP3 ADD DUP1 MLOAD PUSH28 0xFFFFFFFFFFFFFFFFFFFFFFFFFFFFFFFFFFFFFFFFFFFFFFFFFFFFFFFF DUP4 DUP2 DUP4 AND OR DUP4 MSTORE POP POP POP POP PUSH1 0x40 MLOAD PUSH2 0x4D7 SWAP2 SWAP1 PUSH2 0x10CA JUMP JUMPDEST PUSH0 PUSH1 0x40 MLOAD DUP1 DUP4 SUB DUP2 PUSH0 DUP7 GAS CALL SWAP2 POP POP RETURNDATASIZE DUP1 PUSH0 DUP2 EQ PUSH2 0x510 JUMPI PUSH1 0x40 MLOAD SWAP2 POP PUSH1 0x1F NOT PUSH1 0x3F RETURNDATASIZE ADD AND DUP3 ADD PUSH1 0x40 MSTORE RETURNDATASIZE DUP3 MSTORE RETURNDATASIZE PUSH0 PUSH1 0x20 DUP5 ADD RETURNDATACOPY PUSH2 0x515 JUMP JUMPDEST PUSH1 0x60 SWAP2 POP JUMPDEST POP SWAP2 POP SWAP2 POP PUSH0 DUP1 ADDRESS PUSH20 0xFFFFFFFFFFFFFFFFFFFFFFFFFFFFFFFFFFFFFFFF AND PUSH4 0xEAD6B8BD PUSH1 0x40 MLOAD DUP1 PUSH1 0x60 ADD PUSH1 0x40 MSTORE DUP1 PUSH1 0x1 PUSH1 0xFF AND DUP2 MSTORE PUSH1 0x20 ADD PUSH1 0x2 PUSH1 0xFF AND DUP2 MSTORE PUSH1 0x20 ADD PUSH1 0x3 PUSH1 0xFF AND DUP2 MSTORE POP PUSH1 0x40 MLOAD PUSH1 0x24 ADD PUSH2 0x56F SWAP2 SWAP1 PUSH2 0x1233 JUMP JUMPDEST PUSH1 0x40 MLOAD PUSH1 0x20 DUP2 DUP4 SUB SUB DUP2 MSTORE SWAP1 PUSH1 0x40 MSTORE SWAP1 PUSH1 0xE0 SHL PUSH1 0x20 DUP3 ADD DUP1 MLOAD PUSH28 0xFFFFFFFFFFFFFFFFFFFFFFFFFFFFFFFFFFFFFFFFFFFFFFFFFFFFFFFF DUP4 DUP2 DUP4 AND OR DUP4 MSTORE POP POP POP POP PUSH1 0x40 MLOAD PUSH2 0x5BD SWAP2 SWAP1 PUSH2 0x10CA JUMP JUMPDEST PUSH0 PUSH1 0x40 MLOAD DUP1 DUP4 SUB DUP2 PUSH0 DUP7 GAS CALL SWAP2 POP POP RETURNDATASIZE DUP1 PUSH0 DUP2 EQ PUSH2 0x5F6 JUMPI PUSH1 0x40 MLOAD SWAP2 POP PUSH1 0x1F NOT PUSH1 0x3F RETURNDATASIZE ADD AND DUP3 ADD PUSH1 0x40 MSTORE RETURNDATASIZE DUP3 MSTORE RETURNDATASIZE PUSH0 PUSH1 0x20 DUP5 ADD RETURNDATACOPY PUSH2 0x5FB JUMP JUMPDEST PUSH1 0x60 SWAP2 POP JUMPDEST POP SWAP2 POP SWAP2 POP PUSH0 DUP1 ADDRESS PUSH20 0xFFFFFFFFFFFFFFFFFFFFFFFFFFFFFFFFFFFFFFFF AND PUSH4 0xF0CA01DE DUP12 PUSH1 0x40 MLOAD PUSH1 0x24 ADD PUSH2 0x62F SWAP2 SWAP1 PUSH2 0x135D JUMP JUMPDEST PUSH1 0x40 MLOAD PUSH1 0x20 DUP2 DUP4 SUB SUB DUP2 MSTORE SWAP1 PUSH1 0x40 MSTORE SWAP1 PUSH1 0xE0 SHL PUSH1 0x20 DUP3 ADD DUP1 MLOAD PUSH28 0xFFFFFFFFFFFFFFFFFFFFFFFFFFFFFFFFFFFFFFFFFFFFFFFFFFFFFFFF DUP4 DUP2 DUP4 AND OR DUP4 MSTORE POP POP POP POP PUSH1 0x40 MLOAD PUSH2 0x67D SWAP2 SWAP1 PUSH2 0x10CA JUMP JUMPDEST PUSH0 PUSH1 0x40 MLOAD DUP1 DUP4 SUB DUP2 PUSH0 DUP7 GAS CALL SWAP2 POP POP RETURNDATASIZE DUP1 PUSH0 DUP2 EQ PUSH2 0x6B6 JUMPI PUSH1 0x40 MLOAD SWAP2 POP PUSH1 0x1F NOT PUSH1 0x3F RETURNDATASIZE ADD AND DUP3 ADD PUSH1 0x40 MSTORE RETURNDATASIZE DUP3 MSTORE RETURNDATASIZE PUSH0 PUSH1 0x20 DUP5 ADD RETURNDATACOPY PUSH2 0x6BB JUMP JUMPDEST PUSH1 0x60 SWAP2 POP JUMPDEST POP SWAP2 POP SWAP2 POP PUSH0 DUP1 ADDRESS PUSH20 0xFFFFFFFFFFFFFFFFFFFFFFFFFFFFFFFFFFFFFFFF AND PUSH4 0xE355B0CE PUSH20 0x9D7F74D0C41E726EC95884E0E97FA6129E3B5E99 DUP14 DUP16 PUSH1 0x1 PUSH1 0x40 MLOAD PUSH1 0x24 ADD PUSH2 0x70A SWAP5 SWAP4 SWAP3 SWAP2 SWAP1 PUSH2 0x1421 JUMP JUMPDEST PUSH1 0x40 MLOAD PUSH1 0x20 DUP2 DUP4 SUB SUB DUP2 MSTORE SWAP1 PUSH1 0x40 MSTORE SWAP1 PUSH1 0xE0 SHL PUSH1 0x20 DUP3 ADD DUP1 MLOAD PUSH28 0xFFFFFFFFFFFFFFFFFFFFFFFFFFFFFFFFFFFFFFFFFFFFFFFFFFFFFFFF DUP4 DUP2 DUP4 AND OR DUP4 MSTORE POP POP POP POP PUSH1 0x40 MLOAD PUSH2 0x758 SWAP2 SWAP1 PUSH2 0x10CA JUMP JUMPDEST PUSH0 PUSH1 0x40 MLOAD DUP1 DUP4 SUB DUP2 PUSH0 DUP7 GAS CALL SWAP2 POP POP RETURNDATASIZE DUP1 PUSH0 DUP2 EQ PUSH2 0x791 JUMPI PUSH1 0x40 MLOAD SWAP2 POP PUSH1 0x1F NOT PUSH1 0x3F RETURNDATASIZE ADD AND DUP3 ADD PUSH1 0x40 MSTORE RETURNDATASIZE DUP3 MSTORE RETURNDATASIZE PUSH0 PUSH1 0x20 DUP5 ADD RETURNDATACOPY PUSH2 0x796 JUMP JUMPDEST PUSH1 0x60 SWAP2 POP JUMPDEST POP SWAP2 POP SWAP2 POP DUP10 DUP1 ISZERO PUSH2 0x7A5 JUMPI POP DUP8 JUMPDEST DUP1 ISZERO PUSH2 0x7AE JUMPI POP DUP6 JUMPDEST DUP1 ISZERO PUSH2 0x7B7 JUMPI POP DUP4 JUMPDEST DUP1 ISZERO PUSH2 0x7C0 JUMPI POP DUP2 JUMPDEST PUSH2 0x7C8 JUMPI PUSH0 DUP1 REVERT JUMPDEST POP POP POP POP POP POP POP POP POP POP POP POP JUMP JUMPDEST PUSH32 0xAFABCF2DD47E06A477A89E49C03F8EBE8E0A7E94F775B25BBB24227C9D0110B2 PUSH0 CALLDATASIZE PUSH1 0x40 MLOAD PUSH2 0x807 SWAP3 SWAP2 SWAP1 PUSH2 0x14AE JUMP JUMPDEST PUSH1 0x40 MLOAD DUP1 SWAP2 SUB SWAP1 LOG1 POP JUMP JUMPDEST PUSH0 PUSH32 0x87C76683E354ABE8640B03C72D02C9175D9A00A6C0101D5BC4BE081B9B8199EB PUSH4 0xE355B0CE PUSH1 0xE0 SHL PUSH1 0x40 MLOAD PUSH2 0x849 SWAP2 SWAP1 PUSH2 0x99E JUMP JUMPDEST PUSH1 0x40 MLOAD DUP1 SWAP2 SUB SWAP1 LOG1 PUSH32 0xE355B0CEECDC5A85BC460808AED3B4D8EAA7935DBF79D2DB6FFCF71E5C352576 SWAP1 POP SWAP5 SWAP4 POP POP POP POP JUMP JUMPDEST PUSH0 PUSH32 0x87C76683E354ABE8640B03C72D02C9175D9A00A6C0101D5BC4BE081B9B8199EB PUSH4 0xEAD6B8BD PUSH1 0xE0 SHL PUSH1 0x40 MLOAD PUSH2 0x8B3 SWAP2 SWAP1 PUSH2 0x99E JUMP JUMPDEST PUSH1 0x40 MLOAD DUP1 SWAP2 SUB SWAP1 LOG1 PUSH32 0xEAD6B8BDECE33532847146A6FE63967E794EF7C18F3B888AE6FB3AEBB4EF1B95 SWAP1 POP SWAP2 SWAP1 POP JUMP JUMPDEST PUSH0 PUSH32 0x87C76683E354ABE8640B03C72D02C9175D9A00A6C0101D5BC4BE081B9B8199EB PUSH4 0xF0CA01DE PUSH1 0xE0 SHL PUSH1 0x40 MLOAD PUSH2 0x91A SWAP2 SWAP1 PUSH2 0x99E JUMP JUMPDEST PUSH1 0x40 MLOAD DUP1 SWAP2 SUB SWAP1 LOG1 PUSH32 0xF0CA01DE95639524000D6FF4E9309B96C7F67F7961BF24B33F8B20E85F6AD977 SWAP1 POP SWAP3 SWAP2 POP POP JUMP JUMPDEST PUSH1 0x40 MLOAD DUP1 PUSH1 0x40 ADD PUSH1 0x40 MSTORE DUP1 PUSH0 DUP2 MSTORE PUSH1 0x20 ADD PUSH1 0x60 DUP2 MSTORE POP SWAP1 JUMP JUMPDEST PUSH0 PUSH32 0xFFFFFFFF00000000000000000000000000000000000000000000000000000000 DUP3 AND SWAP1 POP SWAP2 SWAP1 POP JUMP JUMPDEST PUSH2 0x998 DUP2 PUSH2 0x964 JUMP JUMPDEST DUP3 MSTORE POP POP JUMP JUMPDEST PUSH0 PUSH1 0x20 DUP3 ADD SWAP1 POP PUSH2 0x9B1 PUSH0 DUP4 ADD DUP5 PUSH2 0x98F JUMP JUMPDEST SWAP3 SWAP2 POP POP JUMP JUMPDEST PUSH0 PUSH1 0x40 MLOAD SWAP1 POP SWAP1 JUMP JUMPDEST PUSH0 DUP1 REVERT JUMPDEST PUSH0 DUP1 REVERT JUMPDEST PUSH0 DUP2 SWAP1 POP SWAP2 SWAP1 POP JUMP JUMPDEST PUSH2 0x9DA DUP2 PUSH2 0x9C8 JUMP JUMPDEST DUP2 EQ PUSH2 0x9E4 JUMPI PUSH0 DUP1 REVERT JUMPDEST POP JUMP JUMPDEST PUSH0 DUP2 CALLDATALOAD SWAP1 POP PUSH2 0x9F5 DUP2 PUSH2 0x9D1 JUMP JUMPDEST SWAP3 SWAP2 POP POP JUMP JUMPDEST PUSH0 DUP2 ISZERO ISZERO SWAP1 POP SWAP2 SWAP1 POP JUMP JUMPDEST PUSH2 0xA0F DUP2 PUSH2 0x9FB JUMP JUMPDEST DUP2 EQ PUSH2 0xA19 JUMPI PUSH0 DUP1 REVERT JUMPDEST POP JUMP JUMPDEST PUSH0 DUP2 CALLDATALOAD SWAP1 POP PUSH2 0xA2A DUP2 PUSH2 0xA06 JUMP JUMPDEST SWAP3 SWAP2 POP POP JUMP JUMPDEST PUSH0 DUP1 PUSH1 0x40 DUP4 DUP6 SUB SLT ISZERO PUSH2 0xA46 JUMPI PUSH2 0xA45 PUSH2 0x9C0 JUMP JUMPDEST JUMPDEST PUSH0 PUSH2 0xA53 DUP6 DUP3 DUP7 ADD PUSH2 0x9E7 JUMP JUMPDEST SWAP3 POP POP PUSH1 0x20 PUSH2 0xA64 DUP6 DUP3 DUP7 ADD PUSH2 0xA1C JUMP JUMPDEST SWAP2 POP POP SWAP3 POP SWAP3 SWAP1 POP JUMP JUMPDEST PUSH0 PUSH20 0xFFFFFFFFFFFFFFFFFFFFFFFFFFFFFFFFFFFFFFFF DUP3 AND SWAP1 POP SWAP2 SWAP1 POP JUMP JUMPDEST PUSH0 PUSH2 0xA97 DUP3 PUSH2 0xA6E JUMP JUMPDEST SWAP1 POP SWAP2 SWAP1 POP JUMP JUMPDEST PUSH2 0xAA7 DUP2 PUSH2 0xA8D JUMP JUMPDEST DUP2 EQ PUSH2 0xAB1 JUMPI PUSH0 DUP1 REVERT JUMPDEST POP JUMP JUMPDEST PUSH0 DUP2 CALLDATALOAD SWAP1 POP PUSH2 0xAC2 DUP2 PUSH2 0xA9E JUMP JUMPDEST SWAP3 SWAP2 POP POP JUMP JUMPDEST PUSH0 PUSH1 0x20 DUP3 DUP5 SUB SLT ISZERO PUSH2 0xADD JUMPI PUSH2 0xADC PUSH2 0x9C0 JUMP JUMPDEST JUMPDEST PUSH0 PUSH2 0xAEA DUP5 DUP3 DUP6 ADD PUSH2 0xAB4 JUMP JUMPDEST SWAP2 POP POP SWAP3 SWAP2 POP POP JUMP JUMPDEST PUSH0 PUSH2 0xAFD DUP3 PUSH2 0xA8D JUMP JUMPDEST SWAP1 POP SWAP2 SWAP1 POP JUMP JUMPDEST PUSH2 0xB0D DUP2 PUSH2 0xAF3 JUMP JUMPDEST DUP2 EQ PUSH2 0xB17 JUMPI PUSH0 DUP1 REVERT JUMPDEST POP JUMP JUMPDEST PUSH0 DUP2 CALLDATALOAD SWAP1 POP PUSH2 0xB28 DUP2 PUSH2 0xB04 JUMP JUMPDEST SWAP3 SWAP2 POP POP JUMP JUMPDEST PUSH0 DUP1 REVERT JUMPDEST PUSH0 PUSH1 0x1F NOT PUSH1 0x1F DUP4 ADD AND SWAP1 POP SWAP2 SWAP1 POP JUMP JUMPDEST PUSH32 0x4E487B7100000000000000000000000000000000000000000000000000000000 PUSH0 MSTORE PUSH1 0x41 PUSH1 0x4 MSTORE PUSH1 0x24 PUSH0 REVERT JUMPDEST PUSH2 0xB78 DUP3 PUSH2 0xB32 JUMP JUMPDEST DUP2 ADD DUP2 DUP2 LT PUSH8 0xFFFFFFFFFFFFFFFF DUP3 GT OR ISZERO PUSH2 0xB97 JUMPI PUSH2 0xB96 PUSH2 0xB42 JUMP JUMPDEST JUMPDEST DUP1 PUSH1 0x40 MSTORE POP POP POP JUMP JUMPDEST PUSH0 PUSH2 0xBA9 PUSH2 0x9B7 JUMP JUMPDEST SWAP1 POP PUSH2 0xBB5 DUP3 DUP3 PUSH2 0xB6F JUMP JUMPDEST SWAP2 SWAP1 POP JUMP JUMPDEST PUSH0 DUP1 REVERT JUMPDEST PUSH0 DUP1 REVERT JUMPDEST PUSH0 DUP1 REVERT JUMPDEST PUSH0 PUSH8 0xFFFFFFFFFFFFFFFF DUP3 GT ISZERO PUSH2 0xBE0 JUMPI PUSH2 0xBDF PUSH2 0xB42 JUMP JUMPDEST JUMPDEST PUSH2 0xBE9 DUP3 PUSH2 0xB32 JUMP JUMPDEST SWAP1 POP PUSH1 0x20 DUP2 ADD SWAP1 POP SWAP2 SWAP1 POP JUMP JUMPDEST DUP3 DUP2 DUP4 CALLDATACOPY PUSH0 DUP4 DUP4 ADD MSTORE POP POP POP JUMP JUMPDEST PUSH0 PUSH2 0xC16 PUSH2 0xC11 DUP5 PUSH2 0xBC6 JUMP JUMPDEST PUSH2 0xBA0 JUMP JUMPDEST SWAP1 POP DUP3 DUP2 MSTORE PUSH1 0x20 DUP2 ADD DUP5 DUP5 DUP5 ADD GT ISZERO PUSH2 0xC32 JUMPI PUSH2 0xC31 PUSH2 0xBC2 JUMP JUMPDEST JUMPDEST PUSH2 0xC3D DUP5 DUP3 DUP6 PUSH2 0xBF6 JUMP JUMPDEST POP SWAP4 SWAP3 POP POP POP JUMP JUMPDEST PUSH0 DUP3 PUSH1 0x1F DUP4 ADD SLT PUSH2 0xC59 JUMPI PUSH2 0xC58 PUSH2 0xBBE JUMP JUMPDEST JUMPDEST DUP2 CALLDATALOAD PUSH2 0xC69 DUP5 DUP3 PUSH1 0x20 DUP7 ADD PUSH2 0xC04 JUMP JUMPDEST SWAP2 POP POP SWAP3 SWAP2 POP POP JUMP JUMPDEST PUSH0 PUSH1 0x40 DUP3 DUP5 SUB SLT ISZERO PUSH2 0xC87 JUMPI PUSH2 0xC86 PUSH2 0xB2E JUMP JUMPDEST JUMPDEST PUSH2 0xC91 PUSH1 0x40 PUSH2 0xBA0 JUMP JUMPDEST SWAP1 POP PUSH0 PUSH2 0xCA0 DUP5 DUP3 DUP6 ADD PUSH2 0x9E7 JUMP JUMPDEST PUSH0 DUP4 ADD MSTORE POP PUSH1 0x20 DUP3 ADD CALLDATALOAD PUSH8 0xFFFFFFFFFFFFFFFF DUP2 GT ISZERO PUSH2 0xCC3 JUMPI PUSH2 0xCC2 PUSH2 0xBBA JUMP JUMPDEST JUMPDEST PUSH2 0xCCF DUP5 DUP3 DUP6 ADD PUSH2 0xC45 JUMP JUMPDEST PUSH1 0x20 DUP4 ADD MSTORE POP SWAP3 SWAP2 POP POP JUMP JUMPDEST PUSH0 PUSH8 0xFFFFFFFFFFFFFFFF DUP3 GT ISZERO PUSH2 0xCF5 JUMPI PUSH2 0xCF4 PUSH2 0xB42 JUMP JUMPDEST JUMPDEST PUSH1 0x20 DUP3 MUL SWAP1 POP PUSH1 0x20 DUP2 ADD SWAP1 POP SWAP2 SWAP1 POP JUMP JUMPDEST PUSH0 DUP1 REVERT JUMPDEST PUSH0 PUSH2 0xD1C PUSH2 0xD17 DUP5 PUSH2 0xCDB JUMP JUMPDEST PUSH2 0xBA0 JUMP JUMPDEST SWAP1 POP DUP1 DUP4 DUP3 MSTORE PUSH1 0x20 DUP3 ADD SWAP1 POP PUSH1 0x20 DUP5 MUL DUP4 ADD DUP6 DUP2 GT ISZERO PUSH2 0xD3F JUMPI PUSH2 0xD3E PUSH2 0xD06 JUMP JUMPDEST JUMPDEST DUP4 JUMPDEST DUP2 DUP2 LT ISZERO PUSH2 0xD68 JUMPI DUP1 PUSH2 0xD54 DUP9 DUP3 PUSH2 0x9E7 JUMP JUMPDEST DUP5 MSTORE PUSH1 0x20 DUP5 ADD SWAP4 POP POP PUSH1 0x20 DUP2 ADD SWAP1 POP PUSH2 0xD41 JUMP JUMPDEST POP POP POP SWAP4 SWAP3 POP POP POP JUMP JUMPDEST PUSH0 DUP3 PUSH1 0x1F DUP4 ADD SLT PUSH2 0xD86 JUMPI PUSH2 0xD85 PUSH2 0xBBE JUMP JUMPDEST JUMPDEST DUP2 CALLDATALOAD PUSH2 0xD96 DUP5 DUP3 PUSH1 0x20 DUP7 ADD PUSH2 0xD0A JUMP JUMPDEST SWAP2 POP POP SWAP3 SWAP2 POP POP JUMP JUMPDEST PUSH1 0x3 DUP2 LT PUSH2 0xDAB JUMPI PUSH0 DUP1 REVERT JUMPDEST POP JUMP JUMPDEST PUSH0 DUP2 CALLDATALOAD SWAP1 POP PUSH2 0xDBC DUP2 PUSH2 0xD9F JUMP JUMPDEST SWAP3 SWAP2 POP POP JUMP JUMPDEST PUSH0 DUP1 PUSH0 DUP1 PUSH1 0x80 DUP6 DUP8 SUB SLT ISZERO PUSH2 0xDDA JUMPI PUSH2 0xDD9 PUSH2 0x9C0 JUMP JUMPDEST JUMPDEST PUSH0 PUSH2 0xDE7 DUP8 DUP3 DUP9 ADD PUSH2 0xB1A JUMP JUMPDEST SWAP5 POP POP PUSH1 0x20 DUP6 ADD CALLDATALOAD PUSH8 0xFFFFFFFFFFFFFFFF DUP2 GT ISZERO PUSH2 0xE08 JUMPI PUSH2 0xE07 PUSH2 0x9C4 JUMP JUMPDEST JUMPDEST PUSH2 0xE14 DUP8 DUP3 DUP9 ADD PUSH2 0xC72 JUMP JUMPDEST SWAP4 POP POP PUSH1 0x40 DUP6 ADD CALLDATALOAD PUSH8 0xFFFFFFFFFFFFFFFF DUP2 GT ISZERO PUSH2 0xE35 JUMPI PUSH2 0xE34 PUSH2 0x9C4 JUMP JUMPDEST JUMPDEST PUSH2 0xE41 DUP8 DUP3 DUP9 ADD PUSH2 0xD72 JUMP JUMPDEST SWAP3 POP POP PUSH1 0x60 PUSH2 0xE52 DUP8 DUP3 DUP9 ADD PUSH2 0xDAE JUMP JUMPDEST SWAP2 POP POP SWAP3 SWAP6 SWAP2 SWAP5 POP SWAP3 POP JUMP JUMPDEST PUSH0 PUSH8 0xFFFFFFFFFFFFFFFF DUP3 GT ISZERO PUSH2 0xE78 JUMPI PUSH2 0xE77 PUSH2 0xB42 JUMP JUMPDEST JUMPDEST PUSH1 0x20 DUP3 MUL SWAP1 POP SWAP2 SWAP1 POP JUMP JUMPDEST PUSH0 PUSH2 0xE95 PUSH2 0xE90 DUP5 PUSH2 0xE5E JUMP JUMPDEST PUSH2 0xBA0 JUMP JUMPDEST SWAP1 POP DUP1 PUSH1 0x20 DUP5 MUL DUP4 ADD DUP6 DUP2 GT ISZERO PUSH2 0xEAF JUMPI PUSH2 0xEAE PUSH2 0xD06 JUMP JUMPDEST JUMPDEST DUP4 JUMPDEST DUP2 DUP2 LT ISZERO PUSH2 0xED8 JUMPI DUP1 PUSH2 0xEC4 DUP9 DUP3 PUSH2 0x9E7 JUMP JUMPDEST DUP5 MSTORE PUSH1 0x20 DUP5 ADD SWAP4 POP POP PUSH1 0x20 DUP2 ADD SWAP1 POP PUSH2 0xEB1 JUMP JUMPDEST POP POP POP SWAP4 SWAP3 POP POP POP JUMP JUMPDEST PUSH0 DUP3 PUSH1 0x1F DUP4 ADD SLT PUSH2 0xEF6 JUMPI PUSH2 0xEF5 PUSH2 0xBBE JUMP JUMPDEST JUMPDEST PUSH1 0x3 PUSH2 0xF03 DUP5 DUP3 DUP6 PUSH2 0xE83 JUMP JUMPDEST SWAP2 POP POP SWAP3 SWAP2 POP POP JUMP JUMPDEST PUSH0 PUSH1 0x60 DUP3 DUP5 SUB SLT ISZERO PUSH2 0xF21 JUMPI PUSH2 0xF20 PUSH2 0x9C0 JUMP JUMPDEST JUMPDEST PUSH0 PUSH2 0xF2E DUP5 DUP3 DUP6 ADD PUSH2 0xEE2 JUMP JUMPDEST SWAP2 POP POP SWAP3 SWAP2 POP POP JUMP JUMPDEST PUSH0 PUSH8 0xFFFFFFFFFFFFFFFF DUP3 GT ISZERO PUSH2 0xF51 JUMPI PUSH2 0xF50 PUSH2 0xB42 JUMP JUMPDEST JUMPDEST PUSH2 0xF5A DUP3 PUSH2 0xB32 JUMP JUMPDEST SWAP1 POP PUSH1 0x20 DUP2 ADD SWAP1 POP SWAP2 SWAP1 POP JUMP JUMPDEST PUSH0 PUSH2 0xF79 PUSH2 0xF74 DUP5 PUSH2 0xF37 JUMP JUMPDEST PUSH2 0xBA0 JUMP JUMPDEST SWAP1 POP DUP3 DUP2 MSTORE PUSH1 0x20 DUP2 ADD DUP5 DUP5 DUP5 ADD GT ISZERO PUSH2 0xF95 JUMPI PUSH2 0xF94 PUSH2 0xBC2 JUMP JUMPDEST JUMPDEST PUSH2 0xFA0 DUP5 DUP3 DUP6 PUSH2 0xBF6 JUMP JUMPDEST POP SWAP4 SWAP3 POP POP POP JUMP JUMPDEST PUSH0 DUP3 PUSH1 0x1F DUP4 ADD SLT PUSH2 0xFBC JUMPI PUSH2 0xFBB PUSH2 0xBBE JUMP JUMPDEST JUMPDEST DUP2 CALLDATALOAD PUSH2 0xFCC DUP5 DUP3 PUSH1 0x20 DUP7 ADD PUSH2 0xF67 JUMP JUMPDEST SWAP2 POP POP SWAP3 SWAP2 POP POP JUMP JUMPDEST PUSH0 DUP1 PUSH1 0x40 DUP4 DUP6 SUB SLT ISZERO PUSH2 0xFEB JUMPI PUSH2 0xFEA PUSH2 0x9C0 JUMP JUMPDEST JUMPDEST PUSH0 DUP4 ADD CALLDATALOAD PUSH8 0xFFFFFFFFFFFFFFFF DUP2 GT ISZERO PUSH2 0x1008 JUMPI PUSH2 0x1007 PUSH2 0x9C4 JUMP JUMPDEST JUMPDEST PUSH2 0x1014 DUP6 DUP3 DUP7 ADD PUSH2 0xD72 JUMP JUMPDEST SWAP3 POP POP PUSH1 0x20 DUP4 ADD CALLDATALOAD PUSH8 0xFFFFFFFFFFFFFFFF DUP2 GT ISZERO PUSH2 0x1035 JUMPI PUSH2 0x1034 PUSH2 0x9C4 JUMP JUMPDEST JUMPDEST PUSH2 0x1041 DUP6 DUP3 DUP7 ADD PUSH2 0xFA8 JUMP JUMPDEST SWAP2 POP POP SWAP3 POP SWAP3 SWAP1 POP JUMP JUMPDEST PUSH32 0x4E487B7100000000000000000000000000000000000000000000000000000000 PUSH0 MSTORE PUSH1 0x32 PUSH1 0x4 MSTORE PUSH1 0x24 PUSH0 REVERT JUMPDEST PUSH0 DUP2 MLOAD SWAP1 POP SWAP2 SWAP1 POP JUMP JUMPDEST PUSH0 DUP2 SWAP1 POP SWAP3 SWAP2 POP POP JUMP JUMPDEST DUP3 DUP2 DUP4 MCOPY PUSH0 DUP4 DUP4 ADD MSTORE POP POP POP JUMP JUMPDEST PUSH0 PUSH2 0x10A4 DUP3 PUSH2 0x1078 JUMP JUMPDEST PUSH2 0x10AE DUP2 DUP6 PUSH2 0x1082 JUMP JUMPDEST SWAP4 POP PUSH2 0x10BE DUP2 DUP6 PUSH1 0x20 DUP7 ADD PUSH2 0x108C JUMP JUMPDEST DUP1 DUP5 ADD SWAP2 POP POP SWAP3 SWAP2 POP POP JUMP JUMPDEST PUSH0 PUSH2 0x10D5 DUP3 DUP5 PUSH2 0x109A JUMP JUMPDEST SWAP2 POP DUP2 SWAP1 POP SWAP3 SWAP2 POP POP JUMP JUMPDEST PUSH0 DUP2 SWAP1 POP SWAP2 SWAP1 POP JUMP JUMPDEST PUSH0 PUSH1 0xFF DUP3 AND SWAP1 POP SWAP2 SWAP1 POP JUMP JUMPDEST PUSH0 DUP2 SWAP1 POP SWAP2 SWAP1 POP JUMP JUMPDEST PUSH0 PUSH2 0x1118 PUSH2 0x1113 PUSH2 0x110E DUP5 PUSH2 0x10E0 JUMP JUMPDEST PUSH2 0x10F5 JUMP JUMPDEST PUSH2 0x10E9 JUMP JUMPDEST SWAP1 POP SWAP2 SWAP1 POP JUMP JUMPDEST PUSH2 0x1128 DUP2 PUSH2 0x10FE JUMP JUMPDEST DUP3 MSTORE POP POP JUMP JUMPDEST PUSH0 DUP2 SWAP1 POP SWAP2 SWAP1 POP JUMP JUMPDEST PUSH0 PUSH2 0x1151 PUSH2 0x114C PUSH2 0x1147 DUP5 PUSH2 0x112E JUMP JUMPDEST PUSH2 0x10F5 JUMP JUMPDEST PUSH2 0x10E9 JUMP JUMPDEST SWAP1 POP SWAP2 SWAP1 POP JUMP JUMPDEST PUSH2 0x1161 DUP2 PUSH2 0x1137 JUMP JUMPDEST DUP3 MSTORE POP POP JUMP JUMPDEST PUSH0 PUSH1 0x40 DUP3 ADD SWAP1 POP PUSH2 0x117A PUSH0 DUP4 ADD DUP6 PUSH2 0x111F JUMP JUMPDEST PUSH2 0x1187 PUSH1 0x20 DUP4 ADD DUP5 PUSH2 0x1158 JUMP JUMPDEST SWAP4 SWAP3 POP POP POP JUMP JUMPDEST PUSH0 PUSH1 0x3 SWAP1 POP SWAP2 SWAP1 POP JUMP JUMPDEST PUSH0 DUP2 SWAP1 POP SWAP3 SWAP2 POP POP JUMP JUMPDEST PUSH0 DUP2 SWAP1 POP SWAP2 SWAP1 POP JUMP JUMPDEST PUSH2 0x11B4 DUP2 PUSH2 0x10E9 JUMP JUMPDEST DUP3 MSTORE POP POP JUMP JUMPDEST PUSH0 PUSH2 0x11C5 DUP4 DUP4 PUSH2 0x11AB JUMP JUMPDEST PUSH1 0x20 DUP4 ADD SWAP1 POP SWAP3 SWAP2 POP POP JUMP JUMPDEST PUSH0 PUSH1 0x20 DUP3 ADD SWAP1 POP SWAP2 SWAP1 POP JUMP JUMPDEST PUSH2 0x11E6 DUP2 PUSH2 0x118E JUMP JUMPDEST PUSH2 0x11F0 DUP2 DUP5 PUSH2 0x1198 JUMP JUMPDEST SWAP3 POP PUSH2 0x11FB DUP3 PUSH2 0x11A2 JUMP JUMPDEST DUP1 PUSH0 JUMPDEST DUP4 DUP2 LT ISZERO PUSH2 0x122B JUMPI DUP2 MLOAD PUSH2 0x1212 DUP8 DUP3 PUSH2 0x11BA JUMP JUMPDEST SWAP7 POP PUSH2 0x121D DUP4 PUSH2 0x11D1 JUMP JUMPDEST SWAP3 POP POP PUSH1 0x1 DUP2 ADD SWAP1 POP PUSH2 0x11FE JUMP JUMPDEST POP POP POP POP POP POP JUMP JUMPDEST PUSH0 PUSH1 0x60 DUP3 ADD SWAP1 POP PUSH2 0x1246 PUSH0 DUP4 ADD DUP5 PUSH2 0x11DD JUMP JUMPDEST SWAP3 SWAP2 POP POP JUMP JUMPDEST PUSH0 DUP2 MLOAD SWAP1 POP SWAP2 SWAP1 POP JUMP JUMPDEST PUSH0 DUP3 DUP3 MSTORE PUSH1 0x20 DUP3 ADD SWAP1 POP SWAP3 SWAP2 POP POP JUMP JUMPDEST PUSH0 DUP2 SWAP1 POP PUSH1 0x20 DUP3 ADD SWAP1 POP SWAP2 SWAP1 POP JUMP JUMPDEST PUSH2 0x127E DUP2 PUSH2 0x9C8 JUMP JUMPDEST DUP3 MSTORE POP POP JUMP JUMPDEST PUSH0 PUSH2 0x128F DUP4 DUP4 PUSH2 0x1275 JUMP JUMPDEST PUSH1 0x20 DUP4 ADD SWAP1 POP SWAP3 SWAP2 POP POP JUMP JUMPDEST PUSH0 PUSH1 0x20 DUP3 ADD SWAP1 POP SWAP2 SWAP1 POP JUMP JUMPDEST PUSH0 PUSH2 0x12B1 DUP3 PUSH2 0x124C JUMP JUMPDEST PUSH2 0x12BB DUP2 DUP6 PUSH2 0x1256 JUMP JUMPDEST SWAP4 POP PUSH2 0x12C6 DUP4 PUSH2 0x1266 JUMP JUMPDEST DUP1 PUSH0 JUMPDEST DUP4 DUP2 LT ISZERO PUSH2 0x12F6 JUMPI DUP2 MLOAD PUSH2 0x12DD DUP9 DUP3 PUSH2 0x1284 JUMP JUMPDEST SWAP8 POP PUSH2 0x12E8 DUP4 PUSH2 0x129B JUMP JUMPDEST SWAP3 POP POP PUSH1 0x1 DUP2 ADD SWAP1 POP PUSH2 0x12C9 JUMP JUMPDEST POP DUP6 SWAP4 POP POP POP POP SWAP3 SWAP2 POP POP JUMP JUMPDEST PUSH0 DUP3 DUP3 MSTORE PUSH1 0x20 DUP3 ADD SWAP1 POP SWAP3 SWAP2 POP POP JUMP JUMPDEST PUSH32 0x6162630000000000000000000000000000000000000000000000000000000000 PUSH0 DUP3 ADD MSTORE POP JUMP JUMPDEST PUSH0 PUSH2 0x1347 PUSH1 0x3 DUP4 PUSH2 0x1303 JUMP JUMPDEST SWAP2 POP PUSH2 0x1352 DUP3 PUSH2 0x1313 JUMP JUMPDEST PUSH1 0x20 DUP3 ADD SWAP1 POP SWAP2 SWAP1 POP JUMP JUMPDEST PUSH0 PUSH1 0x40 DUP3 ADD SWAP1 POP DUP2 DUP2 SUB PUSH0 DUP4 ADD MSTORE PUSH2 0x1375 DUP2 DUP5 PUSH2 0x12A7 JUMP JUMPDEST SWAP1 POP DUP2 DUP2 SUB PUSH1 0x20 DUP4 ADD MSTORE PUSH2 0x1388 DUP2 PUSH2 0x133B JUMP JUMPDEST SWAP1 POP SWAP3 SWAP2 POP POP JUMP JUMPDEST PUSH2 0x1399 DUP2 PUSH2 0xA8D JUMP JUMPDEST DUP3 MSTORE POP POP JUMP JUMPDEST PUSH0 DUP3 DUP3 MSTORE PUSH1 0x20 DUP3 ADD SWAP1 POP SWAP3 SWAP2 POP POP JUMP JUMPDEST PUSH0 PUSH2 0x13B9 DUP3 PUSH2 0x1078 JUMP JUMPDEST PUSH2 0x13C3 DUP2 DUP6 PUSH2 0x139F JUMP JUMPDEST SWAP4 POP PUSH2 0x13D3 DUP2 DUP6 PUSH1 0x20 DUP7 ADD PUSH2 0x108C JUMP JUMPDEST PUSH2 0x13DC DUP2 PUSH2 0xB32 JUMP JUMPDEST DUP5 ADD SWAP2 POP POP SWAP3 SWAP2 POP POP JUMP JUMPDEST PUSH0 PUSH1 0x40 DUP4 ADD PUSH0 DUP4 ADD MLOAD PUSH2 0x13FC PUSH0 DUP7 ADD DUP3 PUSH2 0x1275 JUMP JUMPDEST POP PUSH1 0x20 DUP4 ADD MLOAD DUP5 DUP3 SUB PUSH1 0x20 DUP7 ADD MSTORE PUSH2 0x1414 DUP3 DUP3 PUSH2 0x13AF JUMP JUMPDEST SWAP2 POP POP DUP1 SWAP2 POP POP SWAP3 SWAP2 POP POP JUMP JUMPDEST PUSH0 PUSH1 0x80 DUP3 ADD SWAP1 POP PUSH2 0x1434 PUSH0 DUP4 ADD DUP8 PUSH2 0x1390 JUMP JUMPDEST DUP2 DUP2 SUB PUSH1 0x20 DUP4 ADD MSTORE PUSH2 0x1446 DUP2 DUP7 PUSH2 0x13E7 JUMP JUMPDEST SWAP1 POP DUP2 DUP2 SUB PUSH1 0x40 DUP4 ADD MSTORE PUSH2 0x145A DUP2 DUP6 PUSH2 0x12A7 JUMP JUMPDEST SWAP1 POP PUSH2 0x1469 PUSH1 0x60 DUP4 ADD DUP5 PUSH2 0x111F JUMP JUMPDEST SWAP6 SWAP5 POP POP POP POP POP JUMP JUMPDEST PUSH0 DUP3 DUP3 MSTORE PUSH1 0x20 DUP3 ADD SWAP1 POP SWAP3 SWAP2 POP POP JUMP JUMPDEST PUSH0 PUSH2 0x148D DUP4 DUP6 PUSH2 0x1472 JUMP JUMPDEST SWAP4 POP PUSH2 0x149A DUP4 DUP6 DUP5 PUSH2 0xBF6 JUMP JUMPDEST PUSH2 0x14A3 DUP4 PUSH2 0xB32 JUMP JUMPDEST DUP5 ADD SWAP1 POP SWAP4 SWAP3 POP POP POP JUMP JUMPDEST PUSH0 PUSH1 0x20 DUP3 ADD SWAP1 POP DUP2 DUP2 SUB PUSH0 DUP4 ADD MSTORE PUSH2 0x14C7 DUP2 DUP5 DUP7 PUSH2 0x1482 JUMP JUMPDEST SWAP1 POP SWAP4 SWAP3 POP POP POP JUMP INVALID LOG2 PUSH5 0x6970667358 0x22 SLT KECCAK256 JUMPDEST CALLER 0xE5 DUP3 MCOPY AND ADDRESS 0xB2 SWAP6 0xF EXTCODEHASH SWAP12 0xFB 0xA8 PUSH30 0x676054AA5924AAB0A1BE56FB8001171FC764736F6C634300081900330000 "
				},
				"gasEstimates": {
					"creation": {
						"codeDepositCost": "1076400",
						"executionCost": "1118",
						"totalCost": "1077518"
					},
					"external": {
						"callWithSignature()": "infinite",
						"elementaryParamSelector(uint256,bool)": "infinite",
						"fixedSizeParamSelector(uint256[3])": "infinite",
						"mappingParamSelector(address,(uint256,bytes),uint256[],uint8)": "infinite",
						"mint(address)": "infinite",
						"mintSelector()": "361",
						"nonFixedSizeParamSelector(uint256[],string)": "infinite",
						"nonParamSelector()": "infinite"
					}
				},
				"methodIdentifiers": {
					"callWithSignature()": "59ebea23",
					"elementaryParamSelector(uint256,bool)": "3ec37834",
					"fixedSizeParamSelector(uint256[3])": "ead6b8bd",
					"mappingParamSelector(address,(uint256,bytes),uint256[],uint8)": "e355b0ce",
					"mint(address)": "6a627842",
					"mintSelector()": "046dab16",
					"nonFixedSizeParamSelector(uint256[],string)": "f0ca01de",
					"nonParamSelector()": "03817936"
				}
			},
			"storageLayout": {
				"storage": [],
				"types": null
			},
			"userdoc": {
				"kind": "user",
				"methods": {},
				"version": 1
			}
		}
	}
}